:100000000C94EA210C941B220C941B220C941B22AE
:100010000C941B220C941B220C941B220C941B226C
:100020000C941B220C941B220C941B220C941B225C
:100030000C941B220C941B220C941B220C941B224C
:100040000C941B220C941B220C941B220C941B223C
:100050000C941B220C941B220C941B220C94E73F43
:100060000C941B220C947A430C9451430C941B2245
:100070000C941B220C941B220C941B220C941B220C
:100080000C941B220C941B220C941B220C941B22FC
:100090000C9428430C94FF420C941B220C94AA2F1E
:1000A0000C941B220C941B220C941B220C941B22DC
:1000B0000C941B220C941B220C941B220C941B22CC
:1000C0000C941B220C941B220C941B220C94D642E1
:1000D0000C94AD420C941B220C941B220C941B22FA
:1000E0000C941B22722A742AC22ADC2A1F2B342B5E
:1000F000452B002D122D242D342D452DA22D002E03
:10010000502E502E502E722E862EA42EB72ED82E64
:10011000F42E0E2F192F8A338D337C3380338633A0
:10012000C433913395339B339F33A333A933AD331A
:10013000B133C433B733BB33BF3382398539023A65
:10014000053CA03D163E663EE65EED5E165F615FD5
:10015000955FB85FD85F6361806180617E61806117
:1001600051618061806180615461806180616C61F6
:100170007B617861806180618061756100407A1087
:10018000F35A00A0724E18090010A5D4E80000E848
:100190007648170000E40B54020000CA9A3B0000A6
:1001A00000E1F505000080969800000040420F0035
:1001B0000000A08601000000102700000000E803F6
:1001C000000000006400000000000A0000000000C1
:1001D0000100000000002C76D888DC674F0823DF80
:1001E000C1DFAE59E1B1B796E5E3E453C63AE65153
:1001F000997696E8E6C28426EB898C9B62ED407C7A
:100200006FFCEFBC9C9F40F2BAA56FA5F490055A15
:100210002AF75C936B6CF9676DC11BFCE0E40D473A
:10022000FEF520E6B500D0ED902E0300943577055D
:100230000080841E080000204E0A000000C80C3315
:100240003333330F986E12831141EF8D2114893BA4
:10025000E65516CFFEE6DB18D1844B381BF77C1D24
:10026000901DA4BBE424203284725E228100C9F177
:1002700024ECA1E53D271F1C1F1E1F1E1F1F1E1F54
:100280001E1F0C005A45524F5F4552524F520000FC
:10029000000000000000000000000000000000005E
:1002A000000000000000000000000000000000004E
:1002B000000000000000000000000000000000003E
:1002C000000000000000000000000000000000002E
:1002D000000000000000000000000000000000001E
:1002E000000000000000000000000000000000000E
:1002F00000000000000000000000000000000000FE
:1003000000000000000000000000000000000000ED
:1003100000000000000000000000000000000000DD
:10032000000000000C00444542554700000000005A
:1003300000000000000000000000000000000000BD
:1003400000000000000000000000000000000000AD
:10035000000000000000000000000000000000009D
:10036000000000000000000000000000000000008D
:10037000000000000000444542554747454E00003C
:10038000000000000000000000000000000000006D
:10039000000000000000000000000000000000005D
:1003A000000000000000000000000000000000004D
:1003B000000000000000000000000000000000003D
:1003C0000000000000000C00564552424F5345000B
:1003D000000000000000000000000000000000001D
:1003E000000000000000000000000000000000000D
:1003F00000000000000000000000000000000000FD
:1004000000000000000000000000000000000000EC
:1004100000000000000000000000000000000000DC
:1004200000000000000000000000000000000000CC
:1004300000000000000000000000000000000000BC
:1004400000000000000000000000000000000000AC
:10045000000000000000000000000000000000009C
:1004600000000000000000000C00494E464F000054
:10047000000000000000000000000000000000007C
:10048000000000000000000000000000000000006C
:10049000000000000000000000000000000000005C
:1004A000000000000000000000000000000000004C
:1004B00000000000000000000000494E464F000010
:1004C000000000000000000000000000000000002C
:1004D000000000000000000000000000000000001C
:1004E000000000000000000000000000000000000C
:1004F00000000000000000000000000000000000FC
:10050000000000000000000000000C0044415441C5
:1005100000000000000000000000000000000000DB
:1005200000000000000000000000000000000000CB
:1005300000000000000000000000000000000000BB
:1005400000000000000000000000000000000000AB
:10055000000000000000000000000000444154457D
:100560004E0000000000000000000000000000003D
:10057000000000000000000000000000000000007B
:10058000000000000000000000000000000000006B
:10059000000000000000000000000000000000005B
:1005A0000000000000000000000000000C004143BB
:1005B000544956415445440000000000000000002A
:1005C000000000000000000000000000000000002B
:1005D000000000000000000000000000000000001B
:1005E000000000000000000000000000000000000B
:1005F00000000000000000000000000000000000FB
:1006000000000000000000000000000000000000EA
:1006100000000000000000000000000000000000DA
:1006200000000000000000000000000000000000CA
:1006300000000000000000000000000000000000BA
:1006400000000000000000000000000000000C009E
:10065000444541435449564154454400000000007C
:10066000000000000000000000000000000000008A
:10067000000000000000000000000000000000007A
:10068000000000000000000000000000000000006A
:10069000000000000000000000000000000000005A
:1006A000000000000000000000000000000000004A
:1006B000000000000000000000000000000000003A
:1006C000000000000000000000000000000000002A
:1006D000000000000000000000000000000000001A
:1006E000000000000000000000000000000000000A
:1006F0000C00434F4D4D414E4400000000000000EF
:1007000000000000000000000000000000000000E9
:1007100000000000000000000000000000000000D9
:1007200000000000000000000000000000000000C9
:1007300000000000000000000000000000000000B9
:1007400000000000000000000000000000000000A9
:100750000000000000000000000000000000000099
:100760000000000000000000000000000000000089
:100770000000000000000000000000000000000079
:100780000000000000000000000000000000000069
:1007900000000A005741524E494E47000000000039
:1007A0000000000000000000000000000000000049
:1007B0000000000000000000000000000000000039
:1007C0000000000000000000000000000000000029
:1007D0000000000000000000000000000000000019
:1007E000000000005741524E554E470000000000E7
:1007F00000000000000000000000000000000000F9
:1008000000000000000000000000000000000000E8
:1008100000000000000000000000000000000000D8
:1008200000000000000000000000000000000000C8
:10083000000000000C004552524F52000000000022
:1008400000000000000000000000000000000000A8
:100850000000000000000000000000000000000098
:100860000000000000000000000000000000000088
:100870000000000000000000000000000000000078
:100880000000000000004645484C455200000000B2
:100890000000000000000000000000000000000058
:1008A0000000000000000000000000000000000048
:1008B0000000000000000000000000000000000038
:1008C0000000000000000000000000000000000028
:1008D0000000000000000C0053544F5000000000C6
:1008E0000000000000000000000000000000000008
:1008F00000000000000000000000000000000000F8
:1009000000000000000000000000000000000000E7
:1009100000000000000000000000000000000000D7
:10092000000000000000000048414C54000000009E
:1009300000000000000000000000000000000000B7
:1009400000000000000000000000000000000000A7
:100950000000000000000000000000000000000097
:100960000000000000000000000000000000000087
:10097000000000000000000016004572726F722037
:100980002D20557365206F66205A65726F20496E61
:100990006465784D30000000000000000000000099
:1009A0000000000000000000000000000000000047
:1009B0000000000000000000000000000000000037
:1009C0000000000000000000000000000000000027
:1009D0000000000000000000000000000000000017
:1009E0000000000000000000000000000000000007
:1009F00000000000000000000000000000000000F7
:100A000000000000000000000000000000000000E6
:100A1000000000000000000000001600466F646443
:100A2000657220466163746F7279204177616B65EE
:100A300000000000000000000000000000000000B6
:100A400000000000000000000000000000000000A6
:100A50000000000000000000000000000000000096
:100A60000000000000000000000000004D31000008
:100A70000000000000000000000000000000000076
:100A80000000000000000000000000000000000066
:100A90000000000000000000000000000000000056
:100AA0000000000000000000000000000000000046
:100AB0000000000000000000000000000C00446581
:100AC0006275672053657269616C204465636C616F
:100AD00072656400000000000000000000000000DB
:100AE0000000000000000000000000000000000006
:100AF00000000000000000000000000000000000F6
:100B000000000000000000000000000000004D3266
:100B100000000000000000000000000000000000D5
:100B200000000000000000000000000000000000C5
:100B300000000000000000000000000000000000B5
:100B400000000000000000000000000000000000A5
:100B500000000000000000000000000000000C0089
:100B6000525443204465746563746564000000005A
:100B70000000000000000000000000000000000075
:100B80000000000000000000000000000000000065
:100B90000000000000000000000000000000000055
:100BA0000000000000000000000000000000000045
:100BB0004D330000000000000000000000000000B5
:100BC0000000000000000000000000000000000025
:100BD0000000000000000000000000000000000015
:100BE0000000000000000000000000000000000005
:100BF00000000000000000000000000000000000F5
:100C00000A00525443205265706F727473206173EE
:100C10002052756E6E696E670000000000000000D3
:100C200000000000000000000000000000000000C4
:100C300000000000000000000000000000000000B4
:100C400000000000000000000000000000000000A4
:100C500000004D3400000000000000000000000013
:100C60000000000000000000000000000000000084
:100C70000000000000000000000000000000000074
:100C80000000000000000000000000000000000064
:100C90000000000000000000000000000000000054
:100CA00000000C005345545F5254432044454649CC
:100CB0004E4544000000000000000000000000005D
:100CC0000000000000000000000000000000000024
:100CD0000000000000000000000000000000000014
:100CE0000000000000000000000000000000000004
:100CF000000000004D350000000000000000000072
:100D000000000000000000000000000000000000E3
:100D100000000000000000000000000000000000D3
:100D200000000000000000000000000000000000C3
:100D300000000000000000000000000000000000B3
:100D40000000000018004841524420434F444544ED
:100D50002054494D45205345540000000000000038
:100D60000000000000000000000000000000000083
:100D70000000000000000000000000000000000073
:100D80000000000000000000000000000000000063
:100D90000000000000004D360000000000000000D0
:100DA0000000000000000000000000000000000043
:100DB0000000000000000000000000000000000033
:100DC0000000000000000000000000000000000023
:100DD0000000000000000000000000000000000013
:100DE0000000000000001800525443204E6F742091
:100DF00052756E6E696E67202D20486172642043C3
:100E00006F64696E670000000000000000000000D1
:100E100000000000000000000000000000000000D2
:100E200000000000000000000000000000000000C2
:100E300000000000000000004D370000000000002E
:100E400000000000000000000000000000000000A2
:100E50000000000000000000000000000000000092
:100E60000000000000000000000000000000000082
:100E70000000000000000000000000000000000072
:100E800000000000000000001200525443204E6F8A
:100E90007420466F756E64000000000000000000C2
:100EA0000000000000000000000000000000000042
:100EB0000000000000000000000000000000000032
:100EC0000000000000000000000000000000000022
:100ED000000000000000000000004D38000000008D
:100EE0000000000000000000000000000000000002
:100EF00000000000000000000000000000000000F2
:100F000000000000000000000000000000000000E1
:100F100000000000000000000000000000000000D1
:100F20000000000000000000000014007538673267
:100F3000204C4344204D6F64756C6520496E697484
:100F400069616C69736564000000000000000000C6
:100F50000000000000000000000000000000000091
:100F60000000000000000000000000000000000081
:100F70000000000000000000000000004D390000EB
:100F80000000000000000000000000000000000061
:100F90000000000000000000000000000000000051
:100FA0000000000000000000000000000000000041
:100FB0000000000000000000000000000000000031
:100FC0000000000000000000000000000E00285596
:100FD0007064617465537461746552656769737494
:100FE00065722920536F75726365204944206E6FC6
:100FF00074206D6174636865640000000000000087
:1010000000000000000000000000000000000000E0
:1010100000000000000000000000000000004D3152
:101020003000000000000000000000000000000090
:1010300000000000000000000000000000000000B0
:1010400000000000000000000000000000000000A0
:101050000000000000000000000000000000000090
:1010600000000000000000000000000000000E0072
:1010700028537472546F545629204D616C666F72F8
:101080006D65642054696D6520496E746572766182
:101090006C20537472696E6700000000000000004D
:1010A0000000000000000000000000000000000040
:1010B0000000000000000000000000000000000030
:1010C0004D31310000000000000000000000000071
:1010D0000000000000000000000000000000000010
:1010E0000000000000000000000000000000000000
:1010F00000000000000000000000000000000000F0
:1011000000000000000000000000000000000000DF
:101110000E002853657475702920426C6F636B2034
:10112000436174204E6F74204D6174636865640080
:1011300000000000000000000000000000000000AF
:10114000000000000000000000000000000000009F
:10115000000000000000000000000000000000008F
:1011600000004D31320000000000000000000000CF
:10117000000000000000000000000000000000006F
:10118000000000000000000000000000000000005F
:10119000000000000000000000000000000000004F
:1011A000000000000000000000000000000000003F
:1011B00000000E0028536574436F6D6D616E6429E5
:1011C00020436F6D6D616E6420746F206E6F6E2DA5
:1011D00046465F4F555450555420626C6F636B0008
:1011E00000000000000000000000000000000000FF
:1011F00000000000000000000000000000000000EF
:10120000000000004D31330000000000000000002D
:1012100000000000000000000000000000000000CE
:1012200000000000000000000000000000000000BE
:1012300000000000000000000000000000000000AE
:10124000000000000000000000000000000000009E
:10125000000000000E00465F5245414400000000BF
:10126000000000000000000000000000000000007E
:10127000000000000000000000000000000000006E
:10128000000000000000000000000000000000005E
:10129000000000000000000000000000000000004E
:1012A0000000000000004D3134000000000000008C
:1012B000000000000000000000000000000000002E
:1012C000000000000000000000000000000000001E
:1012D000000000000000000000000000000000000E
:1012E00000000000000000000000000000000000FE
:1012F0000000000000000E0028536574436F6D6D00
:10130000616E642920476574426C6F636B42794952
:10131000442072657475726E6564204E554C4C00A5
:1013200000000000000000000000000000000000BD
:1013300000000000000000000000000000000000AD
:1013400000000000000000004D31350000000000EA
:10135000000000000000000000000000000000008D
:10136000000000000000000000000000000000007D
:10137000000000000000000000000000000000006D
:10138000000000000000000000000000000000005D
:1013900000000000000000000E0052656164696EEC
:1013A0006720616E642050726F63657373696E6746
:1013B00020436F6E66696775726174696F6E20464F
:1013C000696C6500000000000000000000000000E3
:1013D000000000000000000000000000000000000D
:1013E000000000000000000000004D313600000049
:1013F00000000000000000000000000000000000ED
:1014000000000000000000000000000000000000DC
:1014100000000000000000000000000000000000CC
:1014200000000000000000000000000000000000BC
:10143000000000000000000000000E0050726F630A
:10144000657373696E67205B73797374656D5D2076
:10145000426C6F636B0000000000000000000000A1
:10146000000000000000000000000000000000007C
:10147000000000000000000000000000000000006C
:101480000000000000000000000000004D313700A7
:10149000000000000000000000000000000000004C
:1014A000000000000000000000000000000000003C
:1014B000000000000000000000000000000000002C
:1014C000000000000000000000000000000000001C
:1014D0000000000000000000000000000E00526547
:1014E000676973746572696E6720436F6E666967BA
:1014F00020426C6F636B7320616E64204C61626587
:101500006C730000000000000000000000000000FC
:1015100000000000000000000000000000000000CB
:1015200000000000000000000000000000004D313D
:101530003800000000000000000000000000000073
:10154000000000000000000000000000000000009B
:10155000000000000000000000000000000000008B
:10156000000000000000000000000000000000007B
:1015700000000000000000000000000000000E005D
:1015800050726F63657373696E672045616368208D
:10159000426C6F636B20436F6E66000000000000BA
:1015A000000000000000000000000000000000003B
:1015B000000000000000000000000000000000002B
:1015C000000000000000000000000000000000001B
:1015D0004D31390000000000000000000000000054
:1015E00000000000000000000000000000000000FB
:1015F00000000000000000000000000000000000EB
:1016000000000000000000000000000000000000DA
:1016100000000000000000000000000000000000CA
:101620000E00284F7065726174652920426C6F63EB
:101630006B20436174204E6F74204D617463686544
:101640006400000000000000000000000000000036
:10165000000000000000000000000000000000008A
:10166000000000000000000000000000000000007A
:1016700000004D32300000000000000000000000BB
:10168000000000000000000000000000000000005A
:10169000000000000000000000000000000000004A
:1016A000000000000000000000000000000000003A
:1016B000000000000000000000000000000000002A
:1016C00000000E00284449535041544348455229D4
:1016D0002043616C6C6564202856616C6964617498
:1016E000652920666F72206561636820626C6F6394
:1016F0006B0000000000000000000000000000007F
:1017000000000000000000000000000000000000D9
:10171000000000004D323100000000000000000019
:1017200000000000000000000000000000000000B9
:1017300000000000000000000000000000000000A9
:101740000000000000000000000000000000000099
:101750000000000000000000000000000000000089
:10176000000000000E00434D445F41435400000060
:101770000000000000000000000000000000000069
:101780000000000000000000000000000000000059
:101790000000000000000000000000000000000049
:1017A0000000000000000000000000000000000039
:1017B0000000000000004D32320000000000000078
:1017C0000000000000000000000000000000000019
:1017D0000000000000000000000000000000000009
:1017E00000000000000000000000000000000000F9
:1017F00000000000000000000000000000000000E9
:101800000000000000000E00434D445F444541438A
:101810005400000000000000000000000000000074
:1018200000000000000000000000000000000000B8
:1018300000000000000000000000000000000000A8
:101840000000000000000000000000000000000098
:1018500000000000000000004D32330000000000D6
:101860000000000000000000000000000000000078
:101870000000000000000000000000000000000068
:101880000000000000000000000000000000000058
:101890000000000000000000000000000000000048
:1018A00000000000000000000E0028444953504191
:1018B0005443484552292043616C6C696E67202867
:1018C00053657475702920666F72206561636820A6
:1018D000626C6F636B0000000000000000000000FD
:1018E00000000000000000000000000000000000F8
:1018F000000000000000000000004D323400000035
:1019000000000000000000000000000000000000D7
:1019100000000000000000000000000000000000C7
:1019200000000000000000000000000000000000B7
:1019300000000000000000000000000000000000A7
:10194000000000000000000000000E002844495381
:1019500050415443484552292046697273742063AC
:10196000616C6C20746F20284F70657261746529FA
:101970000000000000000000000000000000000067
:101980000000000000000000000000000000000057
:101990000000000000000000000000004D32350093
:1019A0000000000000000000000000000000000037
:1019B0000000000000000000000000000000000027
:1019C0000000000000000000000000000000000017
:1019D0000000000000000000000000000000000007
:1019E0000000000000000000000000000E00457232
:1019F000726F72204F70656E696E67204576656EF6
:101A000074204C6F672046696C6500000000000080
:101A100000000000000000000000000000000000C6
:101A200000000000000000000000000000000000B6
:101A300000000000000000000000000000004D3227
:101A40003600000000000000000000000000000060
:101A50000000000000000000000000000000000086
:101A60000000000000000000000000000000000076
:101A70000000000000000000000000000000000066
:101A800000000000000000000000000000000E0048
:101A9000284449535041544348455229204D6F76BC
:101AA000696E6720746F20284F70657261746529B4
:101AB000206C6F6F7000000000000000000000004C
:101AC0000000000000000000000000000000000016
:101AD0000000000000000000000000000000000006
:101AE0004D32370000000000000000000000000040
:101AF00000000000000000000000000000000000E6
:101B000000000000000000000000000000000000D5
:101B100000000000000000000000000000000000C5
:101B200000000000000000000000000000000000B5
:101B30000E0042756666657220466C757368656452
:101B400020746F2046696C650000000000000000F2
:101B50000000000000000000000000000000000085
:101B60000000000000000000000000000000000075
:101B70000000000000000000000000000000000065
:101B800000004D323800000000000000000000009E
:101B90000000000000000000000000000000000045
:101BA0000000000000000000000000000000000035
:101BB0000000000000000000000000000000000025
:101BC0000000000000000000000000000000000015
:101BD00000000E0052756E6E696E6720696E2053AC
:101BE000696D756C61746F72204D6F6465000000E3
:101BF00000000000000000000000000000000000E5
:101C000000000000000000000000000000000000D4
:101C100000000000000000000000000000000000C4
:101C2000000000004D3239000000000000000000FC
:101C300000000000000000000000000000000000A4
:101C40000000000000000000000000000000000094
:101C50000000000000000000000000000000000084
:101C60000000000000000000000000000000000074
:101C7000000000000E0053696D756C61746F722076
:101C800077696C6C205573652053797374656D208A
:101C900054696D65000000000000000000000000B5
:101CA0000000000000000000000000000000000034
:101CB0000000000000000000000000000000000024
:101CC0000000000000004D33300000000000000064
:101CD0000000000000000000000000000000000004
:101CE00000000000000000000000000000000000F4
:101CF00000000000000000000000000000000000E4
:101D000000000000000000000000000000000000D3
:101D10000000000000000E0053696D756C61746F67
:101D200072207573696E6720636F6E736F6C6520C8
:101D3000666F72205549000000000000000000009E
:101D40000000000000000000000000000000000093
:101D50000000000000000000000000000000000083
:101D600000000000000000004D33310000000000C2
:101D70000000000000000000000000000000000063
:101D80000000000000000000000000000000000053
:101D90000000000000000000000000000000000043
:101DA0000000000000000000000000000000000033
:101DB00000000000000000000E00436F6E666967BF
:101DC000206E6F7420666F756E642E2043616E27DF
:101DD0007420636F6E74696E75650000000000000A
:101DE00000000000000000000000000000000000F3
:101DF00000000000000000000000000000000000E3
:101E0000000000000000000000004D333200000020
:101E100000000000000000000000000000000000C2
:101E200000000000000000000000000000000000B2
:101E300000000000000000000000000000000000A2
:101E40000000000000000000000000000000000092
:101E5000000000000000000000000E00436F6E66EE
:101E600069672066696C65206661696C65642076C7
:101E7000616C69646174696F6E00000000000000AD
:101E80000000000000000000000000000000000052
:101E90000000000000000000000000000000000042
:101EA0000000000000000000000000004D3333007F
:101EB0000000000000000000000000000000000022
:101EC0000000000000000000000000000000000012
:101ED0000000000000000000000000000000000002
:101EE00000000000000000000000000000000000F2
:101EF0000000000000000000000000000E0044454B
:101F0000425547204552524F522053442046696C57
:101F1000652048616E646C65204E554C4C00000095
:101F200000000000000000000000000000000000B1
:101F300000000000000000000000000000000000A1
:101F400000000000000000000000000000004D3311
:101F5000340000000000000000000000000000004D
:101F60000000000000000000000000000000000071
:101F70000000000000000000000000000000000061
:101F80000000000000000000000000000000000051
:101F900000000000000000000000000000000E0033
:101FA0004445425547204552524F52204576656E72
:101FB000742042756666657220456D707479000004
:101FC0000000000000000000000000000000000011
:101FD0000000000000000000000000000000000001
:101FE00000000000000000000000000000000000F1
:101FF0004D3335000000000000000000000000002C
:1020000000000000000000000000000000000000D0
:1020100000000000000000000000000000000000C0
:1020200000000000000000000000000000000000B0
:1020300000000000000000000000000000000000A0
:102040000E004445425547204552524F52205344BA
:102050002E626567696E204641494C000000000011
:102060000000000000000000000000000000000070
:102070000000000000000000000000000000000060
:102080000000000000000000000000000000000050
:1020900000004D333600000000000000000000008A
:1020A0000000000000000000000000000000000030
:1020B0000000000000000000000000000000000020
:1020C0000000000000000000000000000000000010
:1020D0000000000000000000000000000000000000
:1020E00000000E00000000000000000000000000E2
:1020F00000000000000000000000000000000000E0
:1021000000000000000000000000000000000000CF
:1021100000000000000000000000000000000000BF
:1021200000000000000000000000000000000000AF
:10213000000000000000000000000000000000009F
:10214000000000000000000000000000000000008F
:10215000000000000000000000000000000000007F
:10216000000000000000000000000000000000006F
:10217000000000000000000000000000000000005F
:10218000000000000E00466C6970206F7220466CE3
:102190006F70000000000000000000000000000060
:1021A000000000000000000000000000000000002F
:1021B000000000000000000000000000000000001F
:1021C000000000000000000000000000000000000F
:1021D0000000000000004D33380000000000000047
:1021E00000000000000000000000000000000000EF
:1021F00000000000000000000000000000000000DF
:1022000000000000000000000000000000000000CE
:1022100000000000000000000000000000000000BE
:102220000000000000000E002849734163746976C5
:10223000652920476574426C6F636B42794944207D
:1022400072657475726E6564204E554C4C000000CA
:10225000000000000000000000000000000000007E
:10226000000000000000000000000000000000006E
:1022700000000000000000004D33390000000000A5
:10228000000000000000000000000000000000004E
:10229000000000000000000000000000000000003E
:1022A000000000000000000000000000000000002E
:1022B000000000000000000000000000000000001E
:1022C00000000000000000000E002847657446561C
:1022D000616C2920476574426C6F636B4279494495
:1022E0002072657475726E6564204E554C4C00000A
:1022F00000000000000000000000000000000000DE
:1023000000000000000000000000000000000000CD
:10231000000000000000000000004D34300000000C
:1023200000000000000000000000000000000000AD
:10233000000000000000000000000000000000009D
:10234000000000000000000000000000000000008D
:10235000000000000000000000000000000000007D
:10236000000000000000000000000E002847657417
:102370004256616C2920476574426C6F636B4279E9
:1023800049442072657475726E6564204E554C4CDC
:10239000000000000000000000000000000000003D
:1023A000000000000000000000000000000000002D
:1023B0000000000000000000000000004D3431006B
:1023C000000000000000000000000000000000000D
:1023D00000000000000000000000000000000000FD
:1023E00000000000000000000000000000000000ED
:1023F00000000000000000000000000000000000DD
:102400000000000000000000000000000E00496E07
:10241000697469616C6973696E672050657273696C
:102420007374656E63652053746F7265202D20533D
:102430007461746520526567697374657200000089
:10244000000000000000000000000000000000008C
:1024500000000000000000000000000000004D34FB
:10246000320000000000000000000000000000003A
:10247000000000000000000000000000000000005C
:10248000000000000000000000000000000000004C
:10249000000000000000000000000000000000003C
:1024A00000000000000000000000000000000E001E
:1024B0002848414C536176654576656E7442756671
:1024C00066657229205361766520656D7074792088
:1024D0006275666665720000000000000000000082
:1024E00000000000000000000000000000000000EC
:1024F00000000000000000000000000000000000DC
:102500004D34330000000000000000000000000017
:1025100000000000000000000000000000000000BB
:1025200000000000000000000000000000000000AB
:10253000000000000000000000000000000000009B
:10254000000000000000000000000000000000008B
:102550000E0028476574436F6E664B6579496E645B
:1025600065782920626C6F636B5F636174203D2026
:1025700046465F4552524F525F43415400000000AF
:10258000000000000000000000000000000000004B
:10259000000000000000000000000000000000003B
:1025A00000004D3434000000000000000000000076
:1025B000000000000000000000000000000000001B
:1025C000000000000000000000000000000000000B
:1025D00000000000000000000000000000000000FB
:1025E00000000000000000000000000000000000EB
:1025F00000000E0028476574436F6E664B6579498D
:102600006E6465782920626C6F636B5F6361742010
:102610003E3D204C4153545F424C4F434B5F43413E
:102620005400000000000000000000000000000056
:10263000000000000000000000000000000000009A
:10264000000000004D3435000000000000000000D4
:10265000000000000000000000000000000000007A
:10266000000000000000000000000000000000006A
:10267000000000000000000000000000000000005A
:10268000000000000000000000000000000000004A
:10269000000000000E0028476574436F6E664B65AE
:1026A00079496E64657829204B6579206E6F7420B6
:1026B000666F756E6420696E206263617420646564
:1026C0006673000000000000000000000000000031
:1026D00000000000000000000000000000000000FA
:1026E0000000000000004D34360000000000000033
:1026F00000000000000000000000000000000000DA
:1027000000000000000000000000000000000000C9
:1027100000000000000000000000000000000000B9
:1027200000000000000000000000000000000000A9
:102730000000000000000E00284576656E744D73A1
:102740006729204576656E744D7367204265666F14
:10275000726520496E6974000000000000000000EE
:102760000000000000000000000000000000000069
:102770000000000000000000000000000000000059
:1027800000000000000000004D3437000000000091
:102790000000000000000000000000000000000039
:1027A0000000000000000000000000000000000029
:1027B0000000000000000000000000000000000019
:1027C0000000000000000000000000000000000009
:1027D00000000000000000000E00284576656E74C1
:1027E0004D73672920427566666572206E6F74208E
:1027F000656D7074792061667465722073617665A9
:1028000000000000000000000000000000000000C8
:1028100000000000000000000000000000000000B8
:10282000000000000000000000004D3438000000EF
:102830000000000000000000000000000000000098
:102840000000000000000000000000000000000088
:102850000000000000000000000000000000000078
:102860000000000000000000000000000000000068
:10287000000000000000000000000E00496E6974B6
:10288000204D6573736167652051756575652028F6
:102890004576656E742052696E672042756666657E
:1028A000722900000000000000000000000000008D
:1028B0000000000000000000000000000000000018
:1028C0000000000000000000000000004D3439004E
:1028D00000000000000000000000000000000000F8
:1028E00000000000000000000000000000000000E8
:1028F00000000000000000000000000000000000D8
:1029000000000000000000000000000000000000C7
:102910000000000000000000000000000E0028433E
:102920006F6E666967757265535953536574746940
:102930006E672920756E6B6E6F776E20422D436136
:102940007420646566696E6974696F6E00000000CA
:102950000000000000000000000000000000000077
:1029600000000000000000000000000000004D35E5
:102970003000000000000000000000000000000027
:102980000000000000000000000000000000000047
:102990000000000000000000000000000000000037
:1029A0000000000000000000000000000000000027
:1029B00000000000000000000000000000000E0009
:1029C00028436F6E66696775726553434853657433
:1029D00074696E6729204461797320466C616720B1
:1029E00072657475726E656420656D70747900002F
:1029F00000000000000000000000000000000000D7
:102A000000000000000000000000000000000000C6
:102A10004D35310000000000000000000000000003
:102A200000000000000000000000000000000000A6
:102A30000000000000000000000000000000000096
:102A40000000000000000000000000000000000086
:102A50000000000000000000000000000000000076
:102A60000E0028436F6E666967757265534348535D
:102A7000657474696E672920756E6B6E6F776E2052
:102A8000422D43617420646566696E6974696F6E76
:102A90000000000000000000000000000000000036
:102AA0000000000000000000000000000000000026
:102AB00000004D3532000000000000000000000062
:102AC0000000000000000000000000000000000006
:102AD00000000000000000000000000000000000F6
:102AE00000000000000000000000000000000000E6
:102AF00000000000000000000000000000000000D6
:102B000000000E0028436F6E6669677572654D4F51
:102B10004E53657474696E672920756E6B6E6F779E
:102B20006E20422D43617420646566696E69746924
:102B30006F6E0000000000000000000000000000B8
:102B40000000000000000000000000000000000085
:102B5000000000004D3533000000000000000000C0
:102B60000000000000000000000000000000000065
:102B70000000000000000000000000000000000055
:102B80000000000000000000000000000000000045
:102B90000000000000000000000000000000000035
:102BA000000000000E0028436F6E6669677572654D
:102BB000494E53657474696E672920756E6B6E6F2C
:102BC000776E20422D43617420646566696E697476
:102BD000696F6E00000000000000000000000000AF
:102BE00000000000000000000000000000000000E5
:102BF0000000000000004D3534000000000000001F
:102C000000000000000000000000000000000000C4
:102C100000000000000000000000000000000000B4
:102C200000000000000000000000000000000000A4
:102C30000000000000000000000000000000000094
:102C40000000000000000E0028436F6E6669677583
:102C50007265524C53657474696E672920756E6B8A
:102C60006E6F776E20422D43617420646566696ED5
:102C70006974696F6E000000000000000000000031
:102C80000000000000000000000000000000000044
:102C900000000000000000004D353500000000007D
:102CA0000000000000000000000000000000000024
:102CB0000000000000000000000000000000000014
:102CC0000000000000000000000000000000000004
:102CD00000000000000000000000000000000000F4
:102CE00000000000000000000E0028436F6E6669BF
:102CF00067757265434F4E53657474696E6729201A
:102D0000756E6B6E6F776E20422D43617420646523
:102D100066696E6974696F6E000000000000000053
:102D200000000000000000000000000000000000A3
:102D3000000000000000000000004D3536000000DB
:102D40000000000000000000000000000000000083
:102D50000000000000000000000000000000000073
:102D60000000000000000000000000000000000063
:102D70000000000000000000000000000000000053
:102D8000000000000000000000000E0028436F6EED
:102D90006669677572654F555453657474696E67DB
:102DA0002920756E6B6E6F776E20422D4361742003
:102DB000646566696E6974696F6E000000000000EA
:102DC0000000000000000000000000000000000003
:102DD0000000000000000000000000004D3537003A
:102DE00000000000000000000000000000000000E3
:102DF00000000000000000000000000000000000D3
:102E000000000000000000000000000000000000C2
:102E100000000000000000000000000000000000B2
:102E20000000000000000000000000000E00284329
:102E30006F6E666967757265494E53657474696E25
:102E40006729204D616C666F726D656420646174E2
:102E5000615F756E6974730000000000000000007F
:102E60000000000000000000000000000000000062
:102E700000000000000000000000000000004D35D0
:102E8000380000000000000000000000000000000A
:102E90000000000000000000000000000000000032
:102EA0000000000000000000000000000000000022
:102EB0000000000000000000000000000000000012
:102EC00000000000000000000000000000000E00F4
:102ED00028436F6E666967757265434F4E5365741C
:102EE00074696E6729204143545F434D44207374D5
:102EF00072206E6F74206B6E6F776E0000000000A2
:102F000000000000000000000000000000000000C1
:102F100000000000000000000000000000000000B1
:102F20004D353900000000000000000000000000E6
:102F30000000000000000000000000000000000091
:102F40000000000000000000000000000000000081
:102F50000000000000000000000000000000000071
:102F60000000000000000000000000000000000061
:102F70000E0028436F6E666967757265434F4E5346
:102F8000657474696E67292044454143545F434D1D
:102F90004420737472206E6F74206B6E6F776E00B6
:102FA0000000000000000000000000000000000021
:102FB0000000000000000000000000000000000011
:102FC00000004D363000000000000000000000004E
:102FD00000000000000000000000000000000000F1
:102FE00000000000000000000000000000000000E1
:102FF00000000000000000000000000000000000D1
:1030000000000000000000000000000000000000C0
:1030100000000E0028436F6E666967757265436F26
:103020006D6D6F6E53657474696E6729206B657979
:103030005F696478203D207A65726F206572726FD7
:10304000720000000000000000000000000000000E
:103050000000000000000000000000000000000070
:10306000000000004D3631000000000000000000AC
:103070000000000000000000000000000000000050
:103080000000000000000000000000000000000040
:103090000000000000000000000000000000000030
:1030A0000000000000000000000000000000000020
:1030B000000000000E0028436F6E66696775726538
:1030C000426C6F636B2920496E76616C69642042A3
:1030D0006C6F636B2043617465676F7279000000E9
:1030E00000000000000000000000000000000000E0
:1030F00000000000000000000000000000000000D0
:103100000000000000004D3632000000000000000A
:1031100000000000000000000000000000000000AF
:10312000000000000000000000000000000000009F
:10313000000000000000000000000000000000008F
:10314000000000000000000000000000000000007F
:103150000000000000000E0028436F6E666967756E
:103160007265426C6F636B292046696E64696E6795
:10317000206F7220416464696E6720426C6F636BDC
:10318000000000000000000000000000000000003F
:10319000000000000000000000000000000000002F
:1031A00000000000000000004D3633000000000069
:1031B000000000000000000000000000000000000F
:1031C00000000000000000000000000000000000FF
:1031D00000000000000000000000000000000000EF
:1031E00000000000000000000000000000000000DF
:1031F00000000000000000000E00426C6F636B20B6
:10320000436F6E666967757261746F6E2052656197
:10321000642066726F6D2042696E61727920466922
:103220006C650000000000000000000000000000CD
:10323000000000000000000000000000000000008E
:10324000000000000000000000004D3634000000C7
:10325000000000000000000000000000000000006E
:10326000000000000000000000000000000000005E
:10327000000000000000000000000000000000004E
:10328000000000000000000000000000000000003E
:10329000000000000000000000000E0028416464EF
:1032A000426C6F636B29206D616C6C6F632072657B
:1032B0007475726E6564204E554C4C000000000021
:1032C00000000000000000000000000000000000FE
:1032D00000000000000000000000000000000000EE
:1032E0000000000000000000000000004D36350026
:1032F00000000000000000000000000000000000CE
:1033000000000000000000000000000000000000BD
:1033100000000000000000000000000000000000AD
:10332000000000000000000000000000000000009D
:103330000000000000000000000000000E00434DEF
:10334000445F52455345545F4D494E4D415800002E
:10335000000000000000000000000000000000006D
:10336000000000000000000000000000000000005D
:10337000000000000000000000000000000000004D
:1033800000000000000000000000000000004D36BA
:1033900036000000000000000000000000000000F7
:1033A000000000000000000000000000000000001D
:1033B000000000000000000000000000000000000D
:1033C00000000000000000000000000000000000FD
:1033D00000000000000000000000000000000E00DF
:1033E00028557064617465532E2E522E2E29204D5F
:1033F000696E4D617820446973706C617920526503
:103400006769737465727320526573657400000098
:1034100000000000000000000000000000000000AC
:10342000000000000000000000000000000000009C
:103430004D363700000000000000000000000000D2
:10344000000000000000000000000000000000007C
:10345000000000000000000000000000000000006C
:10346000000000000000000000000000000000005C
:10347000000000000000000000000000000000004C
:103480000E004D3638000000000000000000000073
:10349000000000000000000000000000000000002C
:1034A000000000000000000000000000000000001C
:1034B000000000000000000000000000000000000C
:1034C00000000000000000000000000000000000FC
:1034D00000004D3638000000000000000000000031
:1034E00000000000000000000000000000000000DC
:1034F00000000000000000000000000000000000CC
:1035000000000000000000000000000000000000BB
:1035100000000000000000000000000000000000AB
:1035200000000E004D3639000000000000000000D1
:10353000000000000000000000000000000000008B
:10354000000000000000000000000000000000007B
:10355000000000000000000000000000000000006B
:10356000000000000000000000000000000000005B
:10357000000000004D36390000000000000000008F
:10358000000000000000000000000000000000003B
:10359000000000000000000000000000000000002B
:1035A000000000000000000000000000000000001B
:1035B000000000000000000000000000000000000B
:1035C000000000000E004D37300000000000000039
:1035D00000000000000000000000000000000000EB
:1035E00000000000000000000000000000000000DB
:1035F00000000000000000000000000000000000CB
:1036000000000000000000000000000000000000BA
:103610000000000000004D373000000000000000F6
:10362000000000000000000000000000000000009A
:10363000000000000000000000000000000000008A
:10364000000000000000000000000000000000007A
:10365000000000000000000000000000000000006A
:103660000000000000000E004D3731000000000097
:10367000000000000000000000000000000000004A
:10368000000000000000000000000000000000003A
:10369000000000000000000000000000000000002A
:1036A000000000000000000000000000000000001A
:1036B00000000000000000004D3731000000000055
:1036C00000000000000000000000000000000000FA
:1036D00000000000000000000000000000000000EA
:1036E00000000000000000000000000000000000DA
:1036F00000000000000000000000000000000000CA
:1037000000000000000000000E004D3732000000F5
:1037100000000000000000000000000000000000A9
:103720000000000000000000000000000000000099
:103730000000000000000000000000000000000089
:103740000000000000000000000000000000000079
:10375000000000000000000000004D3732000000B3
:103760000000000000000000000000000000000059
:103770000000000000000000000000000000000049
:103780000000000000000000000000000000000039
:103790000000000000000000000000000000000029
:1037A000000000000000000000000E004D37330054
:1037B0000000000000000000000000000000000009
:1037C00000000000000000000000000000000000F9
:1037D00000000000000000000000000000000000E9
:1037E00000000000000000000000000000000000D9
:1037F0000000000000000000000000004D37330012
:1038000000000000000000000000000000000000B8
:1038100000000000000000000000000000000000A8
:103820000000000000000000000000000000000098
:103830000000000000000000000000000000000088
:103840000000000000000000000000000E004D37E6
:103850003400000000000000000000000000000034
:103860000000000000000000000000000000000058
:103870000000000000000000000000000000000048
:103880000000000000000000000000000000000038
:1038900000000000000000000000000000004D37A4
:1038A00034000000000000000000000000000000E4
:1038B0000000000000000000000000000000000008
:1038C00000000000000000000000000000000000F8
:1038D00000000000000000000000000000000000E8
:1038E00000000000000000000000000000000E00CA
:1038F0004D3735000000000000000000000000000F
:1039000000000000000000000000000000000000B7
:1039100000000000000000000000000000000000A7
:103920000000000000000000000000000000000097
:103930000000000000000000000000000000000087
:103940004D373500000000000000000000000000BE
:103950000000000000000000000000000000000067
:103960000000000000000000000000000000000057
:103970000000000000000000000000000000000047
:103980000000000000000000000000000000000037
:103990000E004D373600000000000000000000005F
:1039A0000000000000000000000000000000000017
:1039B0000000000000000000000000000000000007
:1039C00000000000000000000000000000000000F7
:1039D00000000000000000000000000000000000E7
:1039E00000004D373600000000000000000000001D
:1039F00000000000000000000000000000000000C7
:103A000000000000000000000000000000000000B6
:103A100000000000000000000000000000000000A6
:103A20000000000000000000000000000000000096
:103A300000000E004D3737000000000000000000BD
:103A40000000000000000000000000000000000076
:103A50000000000000000000000000000000000066
:103A60000000000000000000000000000000000056
:103A70000000000000000000000000000000000046
:103A8000000000004D37370000000000000000007B
:103A90000000000000000000000000000000000026
:103AA0000000000000000000000000000000000016
:103AB0000000000000000000000000000000000006
:103AC00000000000000000000000000000000000F6
:103AD000000000000E004D3738000000000000001C
:103AE00000000000000000000000000000000000D6
:103AF00000000000000000000000000000000000C6
:103B000000000000000000000000000000000000B5
:103B100000000000000000000000000000000000A5
:103B20000000000000004D373800000000000000D9
:103B30000000000000000000000000000000000085
:103B40000000000000000000000000000000000075
:103B50000000000000000000000000000000000065
:103B60000000000000000000000000000000000055
:103B70000000000000000E004D373900000000007A
:103B80000000000000000000000000000000000035
:103B90000000000000000000000000000000000025
:103BA0000000000000000000000000000000000015
:103BB0000000000000000000000000000000000005
:103BC00000000000000000004D3739000000000038
:103BD00000000000000000000000000000000000E5
:103BE00000000000000000000000000000000000D5
:103BF00000000000000000000000000000000000C5
:103C000000000000000000000000000000000000B4
:103C100000000000000000000E004D3830000000E1
:103C20000000000000000000000000000000000094
:103C30000000000000000000000000000000000084
:103C40000000000000000000000000000000000074
:103C50000000000000000000000000000000000064
:103C6000000000000000000000004D38300000009F
:103C70000000000000000000000000000000000044
:103C80000000000000000000000000000000000034
:103C90000000000000000000000000000000000024
:103CA0000000000000000000000000000000000014
:103CB00000000000000000000000000021002400BF
:103CC00027002A002D00300033000101000004010C
:103CD00007010A0100000A0B02090C0D0E08070378
:103CE00004010000000000000000000000000000CF
:103CF00000000000000000000000000000000000C4
:103D00001211100000000000000000000000000080
:103D10000000000000000000000000002000230060
:103D2000260029002C002F003200000100000301B2
:103D3000060109010102102020080810204010206F
:103D4000408002010201080402010102040810205F
:103D5000408080402010080402018004020180405D
:103D600020100804020108040201010204081020C6
:103D7000408001020408102040800000220025003D
:103D800028002B002E003100340002010000050144
:103D900008010B01050505050705080808080202CA
:103DA00002020A0A080804040404010101010101D5
:103DB00001010303030303030303040707070C0CB8
:103DC0000C0C0C0C0C0C020202020606060606067F
:103DD00006060B0B0B0B0B0B0B0B5F000302030414
:103DE000030504050C00FE07FE08FF0142028603DE
:103DF000AE2005006A0721073943C7A00422079BAC
:103E000056476209230D35424F65504A49322815FD
:103E100000240E4D3E57B654946C4B94CA1601259F
:103E20000A3D428734659D2601260D3D424F96444A
:103E3000495649A4480927061957C700280BCB3E05
:103E4000571225512DCA02290CCB3E471665512524
:103E50004A22002A0B3D4257A5B2654B53042B0A58
:103E60002D4657180D5218012C081B3E8F32240086
:103E70002D060D4EC7202E069242C7102F0A3D4236
:103E8000671666C52C04300ABC428F12794A1400AA
:103E90003108BB424F227519320A3D42CF928559F3
:103EA000DB20330C3D42C7206699AA250B00340C59
:103EB0003D425F2625A564D0C204350B3D42C77143
:103EC00048432D5900360C3D42979485439269C969
:103ED00002370B3D42C7206661169600380C3D4202
:103EE000CF9269C99269C902390C3D42CF9269C922
:103EF000106691043A08AA42C7100D013B09333EEF
:103F00008F511912003C07AB4657522B3D081D4AF2
:103F1000C7A00E023E08AB46475629013F0A3D4264
:103F2000CF9235E65004400D3D42CF92294392286E
:103F300043BA00410B3D42CF9269C390D902420D72
:103F40003D42C71055A264AA448302430A3D42CFB2
:103F500092896DC902440F3D42C71055A2244AA25E
:103F6000241A1400450B3D42C7311C92301C0446F4
:103F70000A3D42C7311C92B008470B3D42CF92899F
:103F8000A52D5900480A3D4247661B86CC164908B4
:103F9000BB42C71275194A0A3D42D716B64491046E
:103FA0004B0D3D42472625252D892A59004C083DB9
:103FB0004247D8E3204D0A3D4247B62C89E6164ECB
:103FC0000C3D4247A64D4A226D5A004F0A3D42CF52
:103FD00092794B1600500C3D42C79064DAA084459C
:103FE00000510B3D42CF92B92452A404520D3D42E0
:103FF000C79064DAA0942A5900530B3D42CF92A98E
:10400000AB962C0054093D42C720853D0155093D22
:104010004247E65BB200560B3D4247E69694922C2F
:1040200002570A3D4247E62551BA00580B3D424728
:10403000A625B54A4D0B590A3D4247A625B5B009FC
:104040005A0A3D42C720661D07015B08CB3EC710D8
:10405000F5695C093D42471AA6C5345D08CB3EC7E9
:10406000D4A7215E081D565796D4025F060D3AC7A5
:104070002060069B564756610A2D42CF9A0C5A3251
:1040800004620C3D4247180E49661B1400630A2D5A
:1040900042CF928959B200640A3D426765D06CC92B
:1040A00010650A2D42CF920D4ABA00660A3D42972A
:1040B00054C9B6B006670C3D3ACF92D992214C163E
:1040C00000680A3D4247180E49E6166908BB424F90
:1040D00028B50C6A0ACC3A5FACB54989026B0B3D36
:1040E0004247589392A992056C08BB4287D4CB00F3
:1040F0006D0B2D4287D2A2244AA2146E092D42478D
:1041000062D26C016F092D42CF92D99205700C3D9D
:104110003AC79064B641094300710A3D3ACFA0D92D
:1041200092212C72092D424762128B0073092D4295
:10413000CFA01E1400740A3D4257180D5258157531
:10414000092D4247E6A42801760A2D4247664B6AAC
:104150001100770A2D42476649942E00780A2D42B5
:104160004796D42AB500790A3D3A47664B6A8D00D6
:104170007A092D42C7A0B50D027B0ACB3E571255D6
:10418000B2A8167C06493FC7037D0BCB3E4716D528
:1041900092A812017E091D4A4FA424520200000079
:1041A000005354415455535F4552524F5200000042
:1041B00000000000000000000000000000000000FF
:1041C00000000000000000000000000000000000EF
:1041D00000000000000000000000000000000000DF
:1041E00000000000000000000000000000000000CF
:1041F000005354415455535F494E49540000000048
:1042000000000000000000000000000000000000AE
:10421000000000000000000000000000000000009E
:10422000000000000000000000000000000000008E
:10423000000000000000000000000000000000007E
:10424000005354415455535F56414C49445F4441D7
:1042500054410000000000000000000000000000C9
:10426000000000000000000000000000000000004E
:10427000000000000000000000000000000000003E
:10428000000000000000000000000000000000002E
:10429000005354415455535F494E56414C49445F75
:1042A00044415441000000000000000000000000F4
:1042B00000000000000000000000000000000000FE
:1042C00000000000000000000000000000000000EE
:1042D00000000000000000000000000000000000DE
:1042E0000032323A34343A3131004A616E2031378B
:1042F0002032303138007C3C3E5E2B3D3F2F5B5DF1
:104300003B2C2A225C004A616E75617279204665F9
:10431000627275617279204D6172636820417072BA
:10432000696C204D6179204A756E65204A756C79FB
:10433000204175677573742053657074656D62658F
:1043400072204F63746F626572204E6F76656D6286
:10435000657220446563656D626572200053756EF9
:10436000646179204D6F6E64617920547565736462
:104370006179205765646E6573646179205468754E
:104380007273646179204672696461792053617443
:104390007572646179200053756E4D6F6E5475654A
:1043A000576564546875467269536174004A616E5A
:1043B0004665624D61724170724D61794A756E4A0F
:1043C000756C4175675365704F63744E6F764465C5
:1043D0006300706211241FBECFEFD1E2DEBFCDBFFC
:1043E00000E00CBF14E0A0E0B2E0ECEDFBED00E07B
:1043F0000BBF02C007900D92A83EB107D9F72CE081
:10440000A8EEB4E001C01D92AA38B207E1F711E2AC
:10441000CAEED1E200E006C021970109802FFE011B
:104420000E94A96DC93ED10780E00807A9F70E9444
:10443000BE5D0C94EC6D0C940000CF92DF92EF9275
:10444000FF920F931F93CF93DF936C01EB017B01DE
:10445000E40EF51E00E010E0CE15DF0561F0699175
:10446000D601ED91FC910190F081E02DC6011995E6
:10447000080F191FF1CFC801DF91CF911F910F9144
:10448000FF90EF90DF90CF900895089580E090E046
:1044900008952F923F924F925F926F927F928F92E8
:1044A0009F92AF92BF92CF92DF92EF92FF920F93C3
:1044B0001F93CF93DF93CDB7DEB7E0970FB6F89495
:1044C000DEBF0FBECDBF8C015B010E94E0567E01B6
:1044D00025E1E20EF11C9C014DEB52E06EE070E034
:1044E000C7010E94D557C8010E94E0566E01E3E261
:1044F000CE0ED11C9C0142E053E06CE070E0C6019E
:104500000E94D557F801848195810E945F31782EF1
:10451000692EF801868197810E945F31582E492EBD
:10452000F801808590E00E943131382E292EF80163
:10453000818590E00E9403319C01F80144855585F6
:1045400066857785CE0101964C012FA738AB0E9476
:10455000F7309F928F92F80183858F9382858F9396
:1045600038A93F932FA52F932F923F924F925F929E
:104570006F927F92DF92CF92FF92EF9286EC92E061
:104580009F938F93BF92AF920E9440690FB6F894A9
:10459000DEBF0FBECDBFC501E0960FB6F894DEBFFB
:1045A0000FBECDBFDF91CF911F910F91FF90EF9084
:1045B000DF90CF90BF90AF909F908F907F906F9043
:1045C0005F904F903F902F9008950F931F93CF933C
:1045D000DF93EC018C010C5F1F4FFC01E958FF4F8A
:1045E0000190F081E02DC80119958E3F2FEF9207C1
:1045F00080F4FE01E658FF4FC758DF4F9C01408111
:104600006881C8010E948654288190E0820F911D24
:10461000888381E090E0DF91CF911F910F91089501
:10462000CF93DF9300D01F92CDB7DEB744E050E0C8
:10463000BE016F5F7F4F0E94234469817A818B8125
:104640009C810F900F900F900F90DF91CF91089564
:10465000CF93DF931F921F92CDB7DEB742E050E0B9
:10466000BE016F5F7F4F0E94234489819A810F9022
:104670000F90DF91CF910895CF93DF931F92CDB725
:10468000DEB741E050E0BE016F5F7F4F0E942344E0
:1046900089810F90DF91CF910895DF92EF92FF9281
:1046A0000F931F93CF93DF9320E081E697E963E9AF
:1046B0007EEF31E0422F437009F030E02F5F432F4F
:1046C00050E0FA01E359FE4F8E179F0730F0FB01CF
:1046D000E41BF50B8E0F9F1FECCF21E0E22FF0E0E3
:1046E000EB58FD4FE491332319F0223009F4EF5FCA
:1046F000F0E02F5F8E179F0718F08E1B9F0BEECFF9
:10470000EE24E394E092EA0888E680930C09109284
:10471000EB0810920D0960E08FE29BE00E946D2C87
:1047200081E00E94835687E090E00E9431358FE25D
:104730009BE00E94F02B8F77982F92959F702AEF25
:10474000F22EC82F9F9DC00D11248FE29BE00E9486
:10475000F02B9C01332744E0359527954A95E1F7E6
:10476000D82FF29ED00D11248FE29BE00E94F02BF7
:104770009C01332754E0359527955A95E1F7182F7A
:10478000F29E100D11248FE29BE00E94F02B8FE22D
:104790009BE00E94F02B9C01332764E03595279520
:1047A0006A95E1F7082FF29E000D11248FE29BE03D
:1047B0000E94F02B9C01332774E0359527957A955C
:1047C000E1F7D82EF29ED00C11248FE29BE00E94DC
:1047D000F02B9C013327E4E035952795EA95E1F726
:1047E000F29E800D1124A82FB0E0BD016053784FD8
:1047F000402F50E0E6E7F2E09E2D9E1B892F8E0FA2
:104800008D1528F48491480F511D3196F7CFF2E0B1
:10481000FD1538F4CD0183709927892B11F44F5F72
:104820005F4F8DE691E0A89F9001A99F300DB89F42
:10483000300D11246D5C7740769567957695679578
:10484000260F371F21503109240F351FA8E1B0E092
:104850000E94046D9B01AC01210F311D411D511DB2
:10486000ACE3B0E00E94E16C9B01AC012D0F311D67
:10487000411D511D0E94E16C6C0F711D811D911D28
:10488000DF91CF911F910F91FF90EF90DF900895EE
:10489000CF93DF93CDB7DEB7C255D1090FB6F894E9
:1048A000DEBF0FBECDBFF9DE63966CAF7DAF8EAFBE
:1048B0009FAF6397CE01815B9F4F0E94E0569C01A2
:1048C0004EED52E06AE070E0CE01CD960E94D557E1
:1048D00083E198E00E94E0569C014EED52E06AE0D0
:1048E00070E0CE01C3960E94D55787E298E00E94FF
:1048F000E0569C014EED52E06AE070E0CE018996F0
:104900000E94D5578BE398E00E94E0569C014EED43
:1049100052E06AE070E0CE014F960E94D5578BE1DD
:1049200098E00E94E0569C014EED52E06AE070E093
:10493000CE0145960E94D5578FE298E00E94E0563E
:104940009C014EED52E06AE070E0CE010B960E94B1
:10495000D55783E498E00E94E0569C014EED52E06A
:104960006AE070E0CE0101960E94D5578091830BDA
:104970009091840B8A5D9D4309F4A8C0EAEDFDE3A4
:10498000F093840BE093830BE491E093940BEBEDB5
:10499000FDE3E491E093950BECEDFDE3E491E0930E
:1049A000960BEDEDFDE3E491E093970BEEEDFDE367
:1049B000E491E093980BEFEDFDE3E491E093990B24
:1049C000E0EEFDE3E491E0939A0BE1EEFDE3E49188
:1049D000E0939B0BE2EEFDE3E491E0939C0BE3EEAE
:1049E000FDE3E491E0939D0BE4EEFDE3E491E093BD
:1049F0009E0BE5EEFDE3E491E0939F0BE6EEFDE315
:104A0000E491E093A00BE7EEFDE3E491E093A10BCA
:104A1000E8EEFDE3E491E093A20BE9EEFDE3E4911F
:104A2000E093A30BEAEEFDE3E491E093A40B81E1B4
:104A30000E94BD369093A60B8093A50B83E10E9444
:104A4000BD369093A80B8093A70B85E10E94BD36DD
:104A50009093AA0B8093A90B8091830B9091840B68
:104A6000892BA1F18091A10B8093AC0B4091A20BFB
:104A70004093AD0B9091AB0B992341F1913069F4C8
:104A80009091A30B891714F49093AC0B8091A40B15
:104A90008417E4F48093AD0B19C030919E0B2091E4
:104AA000A00B082E000C990B622F022E000C770B26
:104AB000630F711D37FD7A95861797071CF4320F27
:104AC0003093AC0B241714F42093AD0B8FE39BE0D1
:104AD0000E949A2FAE01435C5F4F67E080E00E9426
:104AE000B6364BEB54E062E180E00E94B63644EE0D
:104AF00052E06FE180E00E94B63648EE52E069E293
:104B000080E00E94B6364CEE52E066E380E00E9400
:104B1000B63648EE52E060E480E00E94B63647E6E2
:104B200054E067E08BE20E94B63640910B0850914A
:104B30000C0860910D0870910E08CE01895B9F4FA3
:104B40000E94F730AC0162E189E10E94B6364091E3
:104B50000F08509110086091110870911208CE0151
:104B6000895B9F4F0E94F730AC016FE189E10E94A1
:104B7000B636AE014D5C5F4F69E289E10E94B63600
:104B800040911708509118086091190870911A08FF
:104B9000CE01895B9F4F0E94F730AC0166E389E14B
:104BA0000E94B636AE014B5E5F4F60E489E10E9421
:104BB000B63640EF52E067E088E40E94B636409196
:104BC0001F08509120086091210870912208CE01A1
:104BD000895B9F4F0E94F730AC0162E18CE30E9439
:104BE000B6364091230850912408609125087091B1
:104BF0002608CE01895B9F4F0E94F730AC016FE120
:104C00008CE30E94B636AE01475D5F4F69E28CE3EC
:104C10000E94B63640912B0850912C0860912D08C7
:104C200070912E08CE01895B9F4F0E94F730AC0136
:104C300066E38CE30E94B636AE01455F5F4F60E4E9
:104C40008CE30E94B63644EF52E067E08EE60E94A5
:104C5000B636409133085091340860913508709110
:104C60003608CE01895B9F4F0E94F730AC0162E1AC
:104C70008FE50E94B6364091370850913808609110
:104C8000390870913A08CE01895B9F4F0E94F73036
:104C9000AC016FE18FE50E94B636AE01415E5F4F19
:104CA00069E28FE50E94B63640913F085091400876
:104CB0006091410870914208CE01895B9F4F0E942C
:104CC000F730AC0166E38FE50E94B636AE014F5F68
:104CD0005F4F60E48FE50E94B6368FE39BE00E9451
:104CE000642F8111F7CECE5ADF4F0FB6F894DEBF96
:104CF0000FBECDBFDF91CF910895EF92FF920F933A
:104D00001F93CF93DF93CDB7DEB7C25BD1090FB648
:104D1000F894DEBF0FBECDBFF82EE92EBEDCC15524
:104D2000DF4F688379838A839B83CF5AD040CE013B
:104D300081559F4F0E94E0568E0109561F4F9C01DE
:104D400048EF52E068E170E0C8010E94D557EF9249
:104D5000FF921F930F938BE093E09F938F930659DD
:104D600011091F930F930E94406940E855E260E0EB
:104D700070E088E49AE00E941C56B80188E49AE04A
:104D80000E94794088E49AE00E94634188E49AE0B6
:104D90000E94A3430FB6F894DEBF0FBECDBFCE5422
:104DA000DF4F0FB6F894DEBF0FBECDBFDF91CF91BE
:104DB0001F910F91FF90EF900895CF92DF92EF92A5
:104DC000FF920F931F93CF93DF93CDB7DEB7C759F1
:104DD000D1090FB6F894DEBF0FBECDBF6C01842F92
:104DE00090E0C956DF4F6883C759D0400E94033115
:104DF000F82EE92EC956DF4F6881C759D040862F5B
:104E000090E00E943131182F092FC6010E945F31B6
:104E1000EF92FF920F931F939F938F9389E193E0FB
:104E20009F938F938E010F5F1F4F1F930F930E94CD
:104E30004069C80162DF0FB6F894DEBF0FBECDBF78
:104E4000C956DF4F0FB6F894DEBF0FBECDBFDF915E
:104E5000CF911F910F91FF90EF90DF90CF90089529
:104E60002F923F924F925F926F927F928F929F927A
:104E7000AF92BF92CF92DF92EF92FF920F931F9368
:104E8000CF93DF93CDB7DEB7C35DD1090FB6F894EA
:104E9000DEBF0FBECDBF4C013B01242E322ECE52C1
:104EA000DF4F19830883C25DD040560167018091AE
:104EB0004F08882331F04FE26AE084EF91E07DDF14
:104EC000FFCFEBDBCE53DF4F688379838A839B83ED
:104ED000C25CD040CA53DF4F99828882C65CD04002
:104EE000C853DF4F79826882C85CD040C653DF4F19
:104EF0002882CA5CD040C553DF4F3882CB5CD0409B
:104F0000CE52DF4F88819981C25DD040C453DF4FBC
:104F100099838883CC5CD040C253DF4FA882B9828A
:104F2000CA82DB82CE5CD04080E1FE01EE53FF4FAF
:104F3000DE01AE54BF4F01900D928A95E1F780914A
:104F40004F08811130C08091490890914A08DC01D6
:104F500024E0AA0FBB1F2A95E1F7A05BB74F20E121
:104F6000FE01EE54FF4F01900D922A95E1F720913A
:104F70004D0830914E080196B9010E948A6C9093B9
:104F80004A088093490840914B0850914C08841777
:104F9000950769F40196B9010E948A6C90934C08B8
:104FA00080934B0804C086E293E0A7DEFFCFCE01DA
:104FB00001962C01BC018F539F4F6BDA40E855E2FC
:104FC00060E070E088E49AE00E941C56B20188E438
:104FD0009AE00E94794088E49AE00E94634188E464
:104FE0009AE00E94A343CA53DF4F08811981C65C2F
:104FF000D04087E493E00E944A3F0817190709F45C
:105000005AC1CA53DF4F08811981C65CD0408AE576
:1050100093E00E944A3F0817190709F44CC1CA538C
:10502000DF4F08811981C65CD0408AE693E00E9478
:105030004A3F0817190709F43EC1C653DF4F88815C
:10504000CA5CD0408730F9F4C553DF4F8881CB5C10
:10505000D0408234C1F4C253DF4FE880F9800A8126
:105060001B81CE5CD040C453DF4F28813981CC5C9A
:10507000D04042E467E0CA53DF4F88819981C65C23
:10508000D0400E94A9318091490890914A08019628
:1050900060914D0870914E080E948A6C20914B08D7
:1050A00030914C088217930709F04CC025C143E1A9
:1050B0006BEB73E0C2010E947A358B819C81C756ED
:1050C000DF4F99838883C959D0408D819E81AF81FC
:1050D000B885C556DF4F88839983AA83BB83CB5994
:1050E000D04089859A85AB85BC85C156DF4F8883C2
:1050F0009983AA83BB83CF59D0408DE0FE013D96B2
:10510000A7E9B0E0AC0FBD1F1C9601900D928A95E7
:10511000E1F7EA8DFB8DC055DF4FF983E883C05B73
:10512000D040309719F08581811156C142E269E083
:1051300084EF91E042DE10E080E19BE00E940C4AA7
:1051400011111BC1222009F47BC1022D10E09FEF39
:1051500069167906D9F17E0127E9E20EF11CB60144
:10516000A501C7010E94F730832D90E00E94033112
:10517000D82EC92EC8010E943131382E292EC301E4
:105180000E945F31182F092FC4010E945F31FF92E6
:10519000EF92CD52DF4F2881C35DD0402F93CE5286
:1051A000DF4F2881C25DD0402F93CF92DF922F92A4
:1051B0003F920F931F939F938F9388E993E09F9360
:1051C0008F935F924F920E9440696DC095E23912B1
:1051D00015C0C8010E943131182F092FC4010E9447
:1051E0005F310F931F939F938F9383EB93E09F9374
:1051F0008F935F924F920E94406955C0632C712C2F
:10520000CE52DF4F88819981C25DD0400196D9F49A
:10521000C301F9D7F82EE92EC8010E943131182FA9
:10522000092FC4010E945F31EF92FF920F931F93E9
:105230009F938F9389E193E09F938F935F924F9217
:105240000E94406930C01E0197E9290E311CB60149
:10525000A501C101CCD7C301D6D7F82EE92EC801CC
:105260000E943131182F092FC4010E945F313F92F3
:105270002F92CD52DF4F2881C35DD0402F93CE5265
:10528000DF4F2881C25DD0402F93EF92FF920F93A2
:105290001F939F938F938EE993E09F938F935F92D9
:1052A0004F920E9440690FB6F894DEBF0FBECDBF8B
:1052B000C20123DDC5C0C253DF4FE880F9800A81F7
:1052C0001B81CE5CD040C453DF4F28813981CC5C38
:1052D000D040C553DF4F4881CB5CD040C653DF4F31
:1052E0006881CA5CD040CA53DF4F88819981C65C0F
:1052F000D0400E94A931A1CEC756DF4F1982188233
:10530000C959D04088EE93E0A0E0B0E0C556DF4F29
:1053100088839983AA83BB83CB59D04082E192E0F2
:10532000C956DF4F99838883C759D040C055DF4F96
:1053300019821882C05BD040CD55DF4F1882C35A06
:10534000D04061E085E30E94213761E08AE00E945D
:1053500021370E945D37882371F0209149083091F0
:105360004A0880914B0890914C082817390709F09A
:105370009ECE43E2DCCE44E25EC0209149083091EB
:105380004A0880914B0890914C082817390709F476
:10539000D9CE40E350C080914F08811129C0F90156
:1053A00084E0EE0FFF1F8A95E1F7C9010196609135
:1053B0004D0870914E080E948A6C90934C0880931F
:1053C0004B08B201CF01805B974F63D8B201CE0189
:1053D00089569F4F0E94794020914B0830914C088C
:1053E0008091490890914A0882179307A1F604C05A
:1053F00088E793E082DCFFCFCE0189569F4F0E9461
:105400003142C055DF4F88819981C05BD040009701
:1054100081F00E940C4AC055DF4F88819981C05BA2
:10542000D0400E94C967C055DF4F19821882C05B07
:10543000D04011E081CE69E084EF91E0BEDC82CE05
:10544000CD52DF4F0FB6F894DEBF0FBECDBFDF9158
:10545000CF911F910F91FF90EF90DF90CF90BF9071
:10546000AF909F908F907F906F905F904F903F9004
:105470002F900895CF92DF92EF92FF920F931F9398
:10548000670178018901242F462F68E572E0E8DC86
:105490001F910F91FF90EF90DF90CF900895CF92E2
:1054A000DF92EF92FF920F931F93CF93DF93CDB7CD
:1054B000DEB7C659D1090FB6F894DEBF0FBECDBF17
:1054C0006C01DC011296EC918E2F90E0FC0132977A
:1054D000E730F10508F0EFC08827EE58FF4F8F4FF7
:1054E0000C94A96DD5D9ECC0F601838194818230EA
:1054F000910519F0039749F1E3C0CFD8F601FE9664
:1055000060837183828393830E94CA6422E230E0C5
:1055100040E050E00E94BF6C6B5F7F4F8F4F9F4F0A
:105520000E94E564D601DA966D937D938D939C93EA
:10553000DD977B018C0120E030E04EE064E01596C1
:105540008D919C91169796DFBBC0F601ED5BFF4FE6
:105550008081863009F0B4C086010C5B1F4F60E08B
:10556000F80180810E94213798D8F601FE96608369
:10557000718382839383D8018C910E94CA36F6018D
:1055800080AF9EC0D60113968D919C911497863062
:10559000910509F466C040F48430910509F461C0B6
:1055A000059709F45CC08CC08730910509F457C099
:1055B000089709F456C084C0D60113968D919C912A
:1055C00014978A30910509F44CC08B30910521F075
:1055D000099709F075C04FC0D601D7961C925DD8C7
:1055E000F601FE9660837183828393837496408173
:1055F000518162817381349680819181A281B381CE
:10560000481759076A077B0708F45AC0B7E0CB0E62
:10561000D11CDF92CF9288EC93E09F938F938E0101
:105620000F5F1F4F1F930F930E944069C80165DBF6
:105630000F900F900F900F900F900F9041C0F601B8
:10564000838194818D30910561F018F40C9739F0C5
:1056500037C08E30910519F00F9719F031C0D6017F
:105660000AC0F60117AA09C0D60113968D919C9124
:105670001497409729F5D7961C920FD8F601FE96FD
:1056800060837183828393831BC0F601838194813D
:105690004297B1F417AA01D8F601FE966083718390
:1056A0008283938337968FEF8083319761E0808187
:1056B0000E94213705C04CE069E084EF91E07DDB7A
:1056C000CA56DF4F0FB6F894DEBF0FBECDBFDF91D5
:1056D000CF911F910F91FF90EF90DF90CF900895A1
:1056E000EF92FF920F931F93E12CF12C0FE713E43D
:1056F0002FEF3FEF45E2BEDE1F910F91FF90EF903D
:105700000895BF92CF92DF92EF92FF920F931F9373
:10571000CF93DF9300D01F921F92CDB7DEB78C01DD
:10572000DC01D796BC90D797D896DC90D897ED91AE
:10573000FC91C188E12CF12CD801ED91FC911197DD
:105740008089D5964D915C91D6971C829D2D9E0D9A
:105750009D838B83B8E08B9FC00111248E9D9001A7
:105760008F9D300D9E9D300D1124CA01820F931F15
:105770009A838983D8011496ED91FC9115979E0127
:105780002F5F3F4F41E06FE0C801199581E08E0D1A
:105790008B1538F4BFEFEB1AFB0A8D2D8E0D8C158F
:1057A00058F20F900F900F900F900F90DF91CF91C4
:1057B0001F910F91FF90EF90DF90CF90BF900895D1
:1057C0000895E091E0078091DF07E81730F4F0E0FA
:1057D000EF51F84F808190E008958FEF9FEF08958B
:1057E0009091E0078091DF07981750F4E92FF0E0DF
:1057F000EF51F84F208130E09F5F9093E00702C0A7
:105800002FEF3FEFC90108958091DF0790E02091CD
:10581000E007821B9109089585ED8093BC0080917B
:10582000BC0084FDFCCF1092E90808954091AA05C0
:10583000262F30E0240F311D21323105DCF4209178
:10584000E9082430C9F4FC0180E090E0861758F4A0
:105850003091AA052191DC01A857BA4FA30FB11DC1
:105860002C930196F3CF8091AA05680F6093AA0547
:1058700080E0089581E0089582E00895CF92DF925C
:10588000EF92FF920F931F93CF93DF937C01262F0C
:10589000972F8A018091EA08882391F0C62FD72F8D
:1058A0006E01C40ED51ECC15DD0569F06991D701D6
:1058B000ED91FC910190F081E02DC7011995F3CF96
:1058C000642F822FB3DFC801DF91CF911F910F9119
:1058D000FF90EF90DF90CF900895CF93DF931F92CA
:1058E000CDB7DEB769832091EA082223D1F0209159
:1058F0000D09203240F021E030E0FC0133832283A7
:1059000080E090E014C08091EB08E82FF0E0E451D3
:10591000F74F998190838F5F8093EB0880930D09F7
:1059200004C061E0CE01019681DF81E090E00F903C
:10593000DF91CF910895FC01A081B18150969C9197
:1059400047A9949FA001112483E0440F551F8A9515
:10595000E1F760E070E085A996A90C94C26D8F9282
:105960009F92AF92BF92CF92DF92EF92FF920F93EE
:105970001F93CF93DF93EC018A81893010F00E944E
:10598000B16D0B811C81C80101974397C0F78D81D0
:105990009E81845F91408B309E4F88F78F81882352
:1059A00071F38FA98111EBCF88AD8111E8CF89AD5B
:1059B0008F3F29F720E030E04FE753E46AAD7BAD3D
:1059C0008CAD9DAD0E94DF648111D9CFFE01FE96A2
:1059D00080819181A281B3818F3F9F4FAF4FBF4F95
:1059E00071F6F8013297E231F10508F026C2DE01C6
:1059F000AD5BBF4F8827E758FF4F8F4F0C94A96DC1
:105A00008C91853009F0BBCFFE01EC5BFF4F8081AC
:105A10008F3F09F4B4CFC75BDF4F8881843008F42F
:105A20000CC2ADCF8C91863009F0A9CFFE01EC5BA2
:105A3000FF4F80818F3F09F4A2CFC75BDF4F888182
:105A4000833009F4FAC19BCF8D919C91885E93407D
:105A500087319C4F08F093CFFE01EB5BFF4F8081B5
:105A60009181019629F18BCF8D919C91885E934015
:105A700087319C4F08F083CFFE01EB5BFF4F8081A5
:105A80009181019609F471C07ACF8D919C91885EC5
:105A9000934087319C4F08F072CFFE01EB5BFF4FC4
:105AA00080819181885E934087319C4F08F067CF59
:105AB000329680819181019609F061CF3296808182
:105AC0009181019609F05BCF3296C080D180E2804F
:105AD000F38020E030E048E452ECC701B6010E94B8
