:100000005FC100008EC100008CC100008AC10000E9
:1000100088C1000086C1000084C1000082C10000C8
:1000200080C100007EC100007CC100007AC10000D8
:1000300078C1000076C1000074C1000072C10000E8
:1000400070C100006EC100006CC100006AC10000F8
:1000500068C1000066C1000064C100000C94D009B2
:1000600060C10000D6C30000ABC300005AC100004D
:1000700058C1000056C1000054C1000052C1000028
:1000800050C100004EC100004CC100004AC1000038
:1000900048C1000046C1000044C10000F2C4000095
:1000A00040C100003EC100003CC100003AC1000058
:1000B00038C1000036C1000034C1000032C1000068
:1000C00030C100002EC100002CC100002AC1000078
:1000D00028C1000026C1000024C1000022C1000088
:1000E00020C10000005EBCE2613FDD83C29C7E2037
:1000F000A3FD1F419DC3217FFCA2401E5F01E3BD04
:100100003E6082DC237D9FC1421CFEA0E1BF5D03F7
:1001100080DE3C62BEE0025CDF81633D7C22C09EEB
:100120001D43A1FF4618FAA427799BC584DA3866D7
:10013000E5BB5907DB856739BAE406581947A5FBC3
:100140007826C49A653BD987045AB8E6A7F91B45B7
:10015000C6987A24F8A6441A99C7257B3A6486D8AB
:100160005B05E7B98CD2306EEDB3510F4E10F2AC97
:100170002F7193CD114FADF3702ECC92D38D6F3183
:10018000B2EC0E50AFF1134DCE90722C6D33D18F77
:100190000C52B0EE326C8ED0530DEFB1F0AE4C126B
:1001A00091CF2D73CA947628ABF517490856B4EA57
:1001B0006937D58B5709EBB536688AD495CB297743
:1001C000F4AA4816E9B7550B88D6346A2B7597C937
:1001D0004A14F6A8742AC896154BA9F7B6E80A542B
:1001E000D7896B3500002200250028002B002E0047
:1001F0003100340002010000050108010B0100007C
:100200002100240027002A002D00300033000101C6
:100210000000040107010A0100002000230026005D
:1002200029002C002F00320000010000030106010C
:10023000090105050505070508080808020202026C
:100240000A0A080804040404010101010101010172
:100250000303030303030303040707070C0C0C0C3D
:100260000C0C0C0C02020202060606060606060626
:100270000B0B0B0B0B0B0B0B0102102020080810B3
:100280002040102040800201020108040201010206
:1002900004081020408080402010080402018004DF
:1002A000020180402010080402010804020101023A
:1002B0000408102040800102040810204080D60B62
:1002C00011241FBECFEFD1E2DEBFCDBF00E00CBFD7
:1002D00013E0A0E0B2E0E0EFFDE100E00BBF02C000
:1002E00007900D92A238B107D9F724E0A2E8B3E055
:1002F00001C01D92A43DB207E1F711E0C0E6D1E0D4
:1003000000E006C021970109802FFE010E94EA0E3D
:10031000CF35D10780E00807A9F70E941A0A0C948C
:10032000F60E6ECECF92DF92EF92FF920F931F9355
:10033000CF93DF936C017A018B01C0E0D0E0CE1542
:10034000DF0589F0D8016D918D01D601ED91FC9109
:100350000190F081E02DC6011995892B11F47E01E1
:1003600002C02196ECCFC701DF91CF911F910F9171
:10037000FF90EF90DF90CF900895FC01538D448D56
:10038000252F30E0842F90E0821B930B541710F040
:10039000CF96089501970895FC01918D828D98174D
:1003A00061F0828DDF01A80FB11D5D968C91928D59
:1003B0009F5F9F73928F90E008958FEF9FEF089556
:1003C000FC01918D828D981731F0828DE80FF11D1F
:1003D000858D90E008958FEF9FEF0895FC01918D3A
:1003E000228D892F90E0805C9F4F821B91098F7333
:1003F0009927089581E094E0F1DF21E0892B09F449
:1004000020E0822F0895FC01848DDF01A80FB11D2B
:10041000A35ABF4F2C91848D90E001968F7399273A
:10042000848FA689B7892C93A089B1898C91806427
:100430008C93938D848D981306C00288F389E02DE8
:1004400080818F7D80830895EF92FF920F931F9399
:10045000CF93DF93EC0181E0888F9B8D8C8D981377
:1004600005C0E889F989808185FD23C0F62E0B8DB2
:1004700010E00F5F1F4F0F731127E02E8C8DE812D5
:100480000BC00FB607FCFACFE889F989808185FF98
:10049000F5CFCE01B8DFF2CF8B8DFE01E80FF11D55
:1004A000E35AFF4FF0820B8FEA89FB8980818062DB
:1004B00007C0EE89FF896083E889F98980818064BB
:1004C000808381E090E0DF91CF911F910F91FF90A9
:1004D000EF900895CF93DF93EC01888D8823C1F0CE
:1004E000EA89FB89808185FD05C0A889B9898C913D
:1004F00086FD0EC00FB607FCF5CF808185FFF2CFD9
:10050000A889B9898C9185FFEDCFCE017CDFE8CF3A
:10051000DF91CF91089580E090E0892B19F06ADF98
:10052000811125C080E090E0892B41F080E090E0CF
:10053000892B21F00E94000081111CC080E090E016
:10054000892B41F080E090E0892B21F00E9400008F
:10055000811113C080E090E0892BA1F080E090E051
:10056000892B81F00E94000081110AC008950E9429
:100570000000D8CF0E940000E1CF0E940000EACF27
:100580000C9400000895089508958FEF9FEF08954B
:100590008FEF9FEF08958091F00390E09195819502
:1005A00091090895089580E090E0089585ED809385
:1005B000BC008091BC0084FDFCCF1092CA0308955A
:1005C0004091A403262F30E0240F311D2132310544
:1005D000DCF42091CA032430C9F4FC0180E090E0EF
:1005E000861758F43091A4032191DC01AE57BC4F1B
:1005F000A30FB11D2C930196F3CF8091A403680F34
:100600006093A40380E0089581E0089582E0089556
:10061000CF93DF931F921F92CDB7DEB7CB01642F2C
:1006200049835A83CDDF4981842F5A81952F0F90BA
:100630000F90DF91CF910895CF93DF931F92CDB7A5
:10064000DEB7698361E0CE010196BADF81E090E018
:100650000F90DF91CF910895EF92FF920F931F9328
:10066000CF93DF93EC018C01085F1F4F7E018881DF
:10067000803118F48BED92E0AAD32196F7016081C6
:1006800070E080E090E040E163D3C017D10771F7DC
:10069000DF91CF911F910F91FF90EF9008950E94ED
:1006A000F20ECF92DF92EF92FF92CF93DF93CDB70E
:1006B000DEB729970FB6F894DEBF0FBECDBF7C0121
:1006C0008AE292E084D3C701C7DF82E492E07FD35D
:1006D000BE016F5F7F4FC701C6D3882361F1698177
:1006E00048E0649FB00111249A81292F30E0322F15
:1006F0002227330F330F330F262B372BF70180813F
:100700008031E1F4688570E08F81AB01481B5109AD
:10071000CA019695982F8827979587950E94A10ED4
:1007200060517109207F53E0220F331F5A95E1F782
:10073000620F731F04C060E874EE01C0B901613834
:1007400054EE75077CF0072E000C880B990B0E9465
:10075000860D20E030E040E05CE30E943A0E6B0141
:100760007C0106C0C12CD12C8EEFE82E82ECF82E35
:100770008BE392E02CD342E0C701B6018CD484E431
:1007800092E025D326E636E646EE5FE3C701B601E2
:100790000E943A0E20E030E040E052E40E94880CD3
:1007A00042E079D415D329960FB6F894DEBF0FBE78
:1007B000CDBFDF91CF91FF90EF90DF90CF90089564
:1007C0001F920F920FB60F9211240BB60F922F9318
:1007D0003F934F935F936F937F938F939F93AF93C9
:1007E000BF93EF93FF9381E094E00DDEFF91EF91D3
:1007F000BF91AF919F918F917F916F915F914F9139
:100800003F912F910F900BBE0F900FBE0F901F9036
:1008100018951F920F920FB60F9211240BB60F92DC
:100820002F938F939F93EF93FF93E0911104F09197
:1008300012048081E0911704F091180482FD12C027
:10084000908180911A048F5F8F7320911B0482170F
:1008500051F0E0911A04F0E0EF5FFB4F958F809329
:100860001A0401C08081FF91EF919F918F912F9188
:100870000F900BBE0F900FBE0F901F901895DC01CC
:10088000E0E0615038F08D91E827F0E0EC51FF4F47
:10089000E491F7CF8E2F0895FC0190810180F281C1
:1008A000E02DF8948181892B81832281892F809585
:1008B00028232283A7E0B0E01197F1F7218182235A
:1008C0008183A3E2B0E01197F1F780817894EFEC97
:1008D000F0E03197F1F7982381E009F480E0089582
:1008E000FC0190810180F281E02D892F809560FFCD
:1008F00012C0F8942281822382838181892B818393
:10090000A3E2B0E01197F1F78281982B928378945B
:1009100087ED90E011C0F894228182238283818147
:10092000892B8183AFEFB0E01197F1F78281982B8B
:10093000928378948FE090E00197F1F70895CF9239
:10094000DF92EF92FF920F931F93CF93DF931F924B
:10095000CDB7DEB76C01E62E08E010E0FF24F3947B
:1009600061E08F2D8E2109F460E0C6014983B8DF74
:10097000FF0C0150110949810115110589F7411139
:1009800015C0F894D6011196ED91FC9112979181C2
:100990008C918095892381831196ED91FC9112971A
:1009A00092818C9180958923828378940F90DF9136
:1009B000CF911F910F91FF90EF90DF90CF9008950E
:1009C000CF92DF92EF92FF920F931F93CF93DF931B
:1009D0001F92CDB7DEB78C01F62E40E065E5798336
:1009E000AEDFCF2C7981D72E760188E0E80EF11C9E
:1009F000F60161916F0140E0C801A1DFCE14DF0470
:100A0000B9F70F90DF91CF911F910F91FF90EF9069
:100A1000DF90CF900895FC0190810180F281E02D5C
:100A2000F8948181292F20958223818378948DE702
:100A300043E050E0815021F1DA011197F1F7308164
:100A40003923C1F3F8948281822382838181892BA7
:100A500081837894ABE7B7E01197F1F7F89481813F
:100A600028232183A3E1B1E01197F1F78081982336
:100A700081E009F080E07894E3E6F6E03197F1F761
:100A800008951F920F920FB60F9211240BB60F927A
:100A90002F933F934F935F936F937F938F939F9386
:100AA000AF93BF93EF93FF938091B900887F803617
:100AB00009F49CC068F5883209F45BC090F4803179
:100AC00009F454C038F4882309F4F6C0883009F4D6
:100AD0004DC0F5C0883109F44CC0803209F45DC0C6
:100AE000EEC0803409F468C048F4803309F455C07E
:100AF000883309F0E4C08093C903D8C0803509F475
:100B00004FC0883509F45DC0883409F0D8C0D6C01C
:100B1000883909F4C7C0A8F4883709F467C038F4E5
:100B2000883609F463C0803709F460C0C8C08838CB
:100B300009F4B8C0803909F45FC0803809F0BFC03B
:100B40005BC0803B09F486C038F4803A09F466C083
:100B5000883A09F47FC0B3C0803C09F4A7C0883C40
:100B600009F4A4C0883B09F48AC0A9C08091EF03AE
:100B700010C09091EE038091ED03981770F5E0910D
:100B8000EE0381E08E0F8093EE03F0E0E353FC4F21
:100B900080818093BB0085EC86C08093C9038EC0A2
:100BA000E091EE0381E08E0F8093EE038091BB0015
:100BB000F0E0E353FC4F80839091EE038091ED03CE
:100BC0006EC0E091EE0381E08E0F8093EE03809182
:100BD000BB00F0E0E353FC4F80838091CC03811194
:100BE0006DC081E08093CB0384EA61C083E0809391
:100BF000CA031092C803CFCF8091C803803208F097
:100C000051C0E091C80381E08E0F8093C8038091AA
:100C1000BB00F0E0E855FC4F8083BDCF85EC8093AE
:100C2000BC001092CA038091C803803230F4E09176
:100C3000C803F0E0E855FC4F10826091C80370E0F3
:100C4000E091A603F091A70388EA93E0199510922A
:100C5000C80335C084E08093CA031092A5031092A4
:100C6000A403E091A203F091A30319958091A4033A
:100C7000811105C081E08093A40310928203E0916A
:100C8000A50381E08E0F8093A503F0E0EE57FC4FA3
:100C900080818093BB009091A5038091A403981755
:100CA00008F479CF85E88093BC0009C085EC809377
:100CB000BC001092CA0303C01092C90377DCFF91F5
:100CC000EF91BF91AF919F918F917F916F915F91C4
:100CD0004F913F912F910F900BBE0F900FBE0F9031
:100CE0001F9018953FB7F8948091B6049091B7047F
:100CF000A091B804B091B90426B5A89B05C02F3FB8
:100D000019F00196A11DB11D3FBFBA2FA92F982F31
:100D10008827820F911DA11DB11DBC01CD0142E0AC
:100D2000660F771F881F991F4A95D1F7089500977E
:100D300061F0FC0101900020E9F73197AF01481BF9
:100D4000590BBC0181E094E0EDCA80E090E0089589
:100D50008F929F92AF92BF920F931F93CF93DF9387
:100D6000CDB7DEB7A1970FB6F894DEBF0FBECDBFEB
:100D700019A2423008F44AE08E010F5D1F4F842E05
:100D8000912CA12CB12CA5019401EED7E62FB9012D
:100D9000CA0101501109EA3014F4E05D01C0E95CB8
:100DA000D801EC93232B242B252B69F7C801BFDF37
:100DB000A1960FB6F894DEBF0FBECDBFDF91CF91E5
:100DC0001F910F91BF90AF909F908F900895AFCFDC
:100DD00083E793E0ACCFAF92BF92CF92DF92EF92D6
:100DE000FF920F931F93CF93DF938B01BC018091F0
:100DF000A3049091A404E4DD40E06EEB8091A30491
:100E00009091A4049CDDE801680189E0C80ED11C22
:100E1000A090A304B090A40488E0E82EF12C01E097
:100E200010E0C50139DD8111102B000F81E0E81AB7
:100E3000F108B9F71993CC15DD0551F78091A3049A
:100E40009091A404E8DD91E0813009F090E0892FD1
:100E5000DF91CF911F910F91FF90EF90DF90CF9096
:100E6000BF90AF9008950F931F93CF93DF938C01A2
:100E7000EB018091A3049091A404CDDD882359F067
:100E8000BE01C801A8DF882331F068E0CE01F7DC9D
:100E900091E02885821390E0892FDF91CF911F91F7
:100EA0000F910895CF93DF93CDB7DEB729970FB693
:100EB000F894DEBF0FBECDBFFC0120812031C9F008
:100EC000BE016F5F7F4FCFDF882389F08D818F3325
:100ED00061F020F48F3159F489E00CC08F3519F09E
:100EE0008F3739F004C08BE005C08AE003C080E092
:100EF00001C08CE029960FB6F894DEBF0FBECDBFBF
:100F0000DF91CF910895CF93DF9311DFEC0160DF84
:100F10008C0F9D1FDF91CF910895AF92BF92CF921A
:100F2000DF92EF92FF920F931F93CF93DF931F9265
:100F3000CDB7DEB75C01D62EE72EFC018585811189
:100F400004C0C50168DD811106C0F5011386158650
:100F5000148680E061C040E060EFC501F0DC01E094
:100F6000F12CC12C11E0C50197DC682FC501698304
:100F700093DC6981613019F48130B9F432C04F2DAE
:100F800050E068131BC0F5018385181730F4E40F97
:100F9000F51F8381802349F402C0181731F060E007
:100FA000193058F4F501148708C0F501EF0DF11D53
:100FB0008381802B838361E009C0C12EF501E40F9A
:100FC000F51F9381802F809589238383C50188DC59
:100FD0001F5F000F11F4F39401E0F7E0FF1508F034
:100FE000C2CF113408F4B1CFF501C386C11002C0DD
:100FF00081E08587F5018381882309F4A6CFD50197
:101000001396ED2DFE2D9501255F3F4F8D91819318
:10101000A217B307D9F781E00F90DF91CF911F910D
:101020000F91FF90EF90DF90CF90BF90AF90089519
:101030000F931F93CF93DF938C01D62FE091A304DE
:10104000F091A404138615861486DF011B9633964F
:101050001E92AE17BF07E1F7C0E0B8018091A3046C
:101060009091A4045ADF811102C080E00FC0CD131B
:1010700009C067E0C80103DCF8019781891302C049
:1010800081E004C0CF5FDC1780F3E7CFDF91CF9121
:101090001F910F9108954F925F926F927F928F925E
:1010A0009F92AF92BF92CF92DF92EF92FF926B012D
:1010B0007C01B42E9B01AC0140D6882319F086E751
:1010C00093E024C026013701E89477F82FEF3FEF33
:1010D0004FE75FE7C301B20130D681110CC02FEF9B
:1010E0003FEF4FE75FE7C301B20176D418161CF457
:1010F0008AE793E00BC02FEF3FEF4FE75FE4C701B4
:10110000B601B4D518167CF48EE793E0FF90EF900B
:10111000DF90CF90BF90AF909F908F907F906F9017
:101120005F904F9004CE2FEF3FEF4FE75FECC7018A
:10113000B60152D487FDE8CF20E030E0A901C70115
:10114000B6014AD487FF11C0E0910104F091020476
:101150000190F081E02D6DE281E094E019954C0161
:10116000F7FAF094F7F8F09402C0812C912CA12C9E
:1011700060E070E080E09FE3AB1439F020E030E005
:1011800040E251E42DD4A394F7CF9B01AC01C701F9
:10119000B601BED32B013C018BD46B017C01B4D4CE
:1011A0009B01AC01C301B201B2D32B013C014AE067
:1011B000C701B601CDDD7C01E80CF91CBB2069F04C
:1011C000E0910104F09102040190F081E02D6EE2C3
:1011D00081E094E01995E80EF91EDB2CDD20F9F092
:1011E00020E030E040E251E4C301B20143D52B01DD
:1011F0003C015ED44B01A12CB12C4AE0C501B401E5
:10120000A7DDE80EF91EC501B4017ED49B01AC0137
:10121000C301B2017CD32B013C01DA94DFCFC701BB
:10122000FF90EF90DF90CF90BF90AF909F908F9006
:101230007F906F905F904F9008958F929F92AF92A2
:10124000BF92CF92DF92EF92FF926B017C014ADD59
:101250004B015C01C114D104E104F104E9F042DD69
:10126000DC01CB0188199909AA09BB09883E934082
:10127000A105B10578F321E0C21AD108E108F1080F
:1012800088EE880E83E0981EA11CB11CC114D10405
:10129000E104F10421F7DECFFF90EF90DF90CF90D3
:1012A000BF90AF909F908F900895FF920F931F93E0
:1012B000CF93DF93CDB7DEB729970FB6F894DEBF93
:1012C0000FBECDBF8C01BE016F5F7F4FCCDDF82E0E
:1012D000882309F458C0F8018081803109F453C093
:1012E0008FE78D838091A3049091A40494DBB801CF
:1012F0008091A3049091A40463DB40E06EE48091AC
:10130000A3049091A4041BDB40E06B818091A304B3
:101310009091A40414DB40E06C818091A30490912F
:10132000A4040DDBF8018081803139F040E06D814B
:101330008091A3049091A40402DB8091A304909176
:10134000A40469DBB8018091A3049091A40438DB64
:1013500040919E0468E48091A3049091A404EFDA84
:1013600064E170E080E090E068DF80919E04882373
:1013700029F06AE070E080E090E05FDF8091A304F4
:101380009091A40448DB8F2D29960FB6F894DEBF08
:101390000FBECDBFDF91CF911F910F91FF900895A8
:1013A0001F920F920FB60F9211242F933F938F939A
:1013B0009F93AF93BF938091B2049091B304A09197
:1013C000B404B091B5043091B10423E0230F2D375C
:1013D00020F40196A11DB11D05C026E8230F029639
:1013E000A11DB11D2093B1048093B2049093B30466
:1013F000A093B404B093B5048091B6049091B7045F
:10140000A091B804B091B9040196A11DB11D8093BB
:10141000B6049093B704A093B804B093B904BF91F5
:10142000AF919F918F913F912F910F900FBE0F9091
:101430001F901895CF93DF93CDB7DEB761970FB6A6
:10144000F894DEBF0FBECDBF789484B5826084BDB2
:1014500084B5816084BD85B5826085BD85B58160B8
:1014600085BD80916E00816080936E001092810036
:1014700080918100826080938100809181008160F1
:1014800080938100809180008160809380008091B2
:10149000B10084608093B1008091B000816080933E
:1014A000B0008091910082608093910080919100C2
:1014B0008160809391008091900081608093900082
:1014C0008091A10082608093A1008091A100816041
:1014D0008093A1008091A00081608093A000809102
:1014E000210182608093210180912101816080939C
:1014F00021018091200181608093200180917A00F8
:10150000846080937A0080917A00826080937A0070
:1015100080917A00816080937A0080917A0080685F
:1015200080937A001092C100E0911104F0911204AE
:1015300082E08083E0910D04F0910E041082E0912E
:101540000F04F09110048FEC808310921904E09145
:101550001504F091160486E08083E0911304F09165
:101560001404808180618083E0911304F09114045D
:10157000808188608083E0911304F091140480815D
:1015800080688083E0911304F091140480818F7D42
:1015900080838EE492E0B7DCE091A304F091A40490
:1015A000138615861486DF011B9633961E92AE179E
:1015B000BF07E1F71092A20411E0BE01665F7F4F02
:1015C0008091A3049091A404A8DC882309F44FC05F
:1015D00067E0CE010A9653D999898913EECF80919D
:1015E0009E04811122C08091A3049091A40413DA77
:1015F000BE01665F7F4F8091A3049091A404E0D95F
:1016000040E064EB8091A3049091A40498D9809168
:10161000A3049091A40440D9082F8091A304909131
:10162000A404F9D9002309F4BEC08091A3049091C9
:10163000A404F1D9882331F0BE016F5F7F4FCE0142
:101640000A96C9DB00919F04CE010A962BDC801715
:1016500018F480919F0403C0CE010A9623DC809386
:101660009F048091A2048F5F8093A204A6CF89E794
:1016700092E0ADDB8DE892E0AADB6091A20470E01D
:1016800080E090E04AE064DB84E992E03CDC8EE9B3
:1016900092E09DDB80919E04882319F082EB92E01A
:1016A00002C085EB92E02FDC60E089EF93E0C0DCC4
:1016B000811103C089EB92E026DC61E081EF93E0C9
:1016C000B7DC811103C08DED92E01DDC81E093E079
:1016D0007EDB89EF93E00E942C037ADB84E193E0C8
:1016E00076DB81EF93E00E942C0372DB89EF93E0BD
:1016F000DCDD81EF93E0D9DD87E293E068DB89EF01
:1017000093E0D0DB682F70E080E090E04AE020DBDF
:101710005FDB8DE393E05BDB81EF93E0C3DB682F5E
:1017200070E080E090E04AE013DB52DB83E593E079
:101730004EDB8091A3049091A4046DD940E06CEC41
:101740008091A3049091A404FAD840919E0464E48B
:101750008091A3049091A404F2D88091A0048823DE
:10176000A1F0E0919F04E950E33040F4F0E0EE0F87
:10177000FF1FE050FE4F6081718102C06EEE72E08B
:10178000072E000C880B990B58DD8EE693E0BBDB2F
:1017900089EF93E00E94510381EF93E00E9451038F
:1017A0000E948B02C3CF10939E043FCFCF93DF9351
:1017B000109204041092030488EE93E0A0E0B0E0DD
:1017C0008093050490930604A0930704B093080443
:1017D0002AE032E0309302042093010425EC30E04B
:1017E00030930E0420930D0424EC30E03093100469
:1017F00020930F0420EC30E0309312042093110466
:1018000021EC30E0309314042093130422EC30E0F8
:10181000309316042093150426EC30E0309318041E
:101820002093170410921A0410921B0410921C04A7
:1018300010921D041092BD041092BC048093BE044B
:101840009093BF04A093C004B093C1048CE192E0D4
:101850009093BB048093BA04EEE7F2E02491E8E3AE
:10186000F2E084918823C1F090E0880F991FFC0179
:10187000E250FE4FC591D491FC01EC51FE4FA59171
:10188000B4919FB7F8948881E22FE0958E238883E6
:101890008C91E823EC939FBFEEE7F2E0E491E093B4
:1018A000C604E8E3F2E0E491F0E0EE0FFF1FE85E2B
:1018B000FD4F859194919093C8048093C704109232
:1018C000D1041092D3041092D204E1EDF4E012920C
:1018D00084E0E93CF807D9F783EC92E09093B004F8
:1018E0008093AF0486EC94E09093A4048093A304C7
:1018F0001092A20410929E0489E080939F0481E0DC
:101900008093A0048093A104DF91CF910895505853
:10191000BB27AA270ED070C161D130F066D120F06C
:1019200031F49F3F11F41EF456C10EF4E095E7FB2D
:101930004CC1E92F72D180F3BA176207730784078D
:10194000950718F071F49EF58AC10EF4E0950B2E00
:10195000BA2FA02D0B01B90190010C01CA01A00101
:101960001124FF27591B99F0593F50F4503E68F15C
:101970001A16F040A22F232F342F4427585FF3CF9D
:10198000469537952795A795F0405395C9F77EF46E
:101990001F16BA0B620B730B840BBAF09150A1F0B7
:1019A000FF0FBB1F661F771F881FC2F70EC0BA0F3D
:1019B000621F731F841F48F4879577956795B795C5
:1019C000F7959E3F08F0B3CF9395880F08F09927BD
:1019D000EE0F979587950895D4D008F481E0089587
:1019E0000CD00AC102D140F0F9D030F021F45F3FB1
:1019F00019F0EBC0511134C1EEC00FD198F3992307
:101A0000C9F35523B1F3951B550BBB27AA276217C2
:101A10007307840738F09F5F5F4F220F331F441F07
:101A2000AA1FA9F333D00E2E3AF0E0E830D091503F
:101A30005040E695001CCAF729D0FE2F27D0660F2C
:101A4000771F881FBB1F261737074807AB07B0E86B
:101A500009F0BB0B802DBF01FF2793585F4F2AF081
:101A60009E3F510568F0B1C0FBC05F3FECF3983E6C
:101A7000DCF3869577956795B795F7959F5FC9F7DE
:101A8000880F911D9695879597F90895E1E0660F67
:101A9000771F881FBB1F621773078407BA0720F0E0
:101AA000621B730B840BBA0BEE1F88F7E095089549
:101AB000BCD088F09F5790F0B92F9927B751A0F06C
:101AC000D1F0660F771F881F991F1AF0BA95C9F7D2
:101AD00012C0B13081F0C3D0B1E00895C0C0672F0B
:101AE000782F8827B85F39F0B93FCCF38695779582
:101AF0006795B395D9F73EF490958095709561956B
:101B00007F4F8F4F9F4F0895E89409C097FB3EF495
:101B100090958095709561957F4F8F4F9F4F99233A
:101B2000A9F0F92F96E9BB279395F69587957795B8
:101B30006795B795F111F8CFFAF4BB0F11F460FF78
:101B40001BC06F5F7F4F8F4F9F4F16C0882311F0D0
:101B500096E911C0772321F09EE8872F762F05C0E4
:101B6000662371F096E8862F70E060E02AF09A957F
:101B7000660F771F881FDAF7880F9695879597F974
:101B80000895990F0008550FAA0BE0E8FEEF16160E
:101B90001706E807F907C0F012161306E407F50761
:101BA00098F0621B730B840B950B39F40A2661F0D5
:101BB000232B242B252B21F408950A2609F4A14078
:101BC000A6958FEF811D811D089597F99F6780E885
:101BD00070E060E008959FEF80EC089500240A947F
:101BE0001616170618060906089500240A941216F8
:101BF0001306140605060895092E0394000C11F42B
:101C0000882352F0BB0F40F4BF2B11F460FF04C0D7
:101C10006F5F7F4F8F4F9F4F089557FD9058440F30
:101C2000551F59F05F3F71F04795880F97FB991F3B
:101C300061F09F3F79F087950895121613061406F8
:101C4000551FF2CF4695F1DF08C016161706180685
:101C5000991FF1CF86957105610508940895E89460
:101C6000BB2766277727CB0197F908958ADF08F409
:101C70008FEF08950BD0C0CFB1DF28F0B6DF18F09A
:101C8000952309F0A2CFA7CF1124EACFC6DFA0F396
:101C9000959FD1F3950F50E0551F629FF001729F01
:101CA000BB27F00DB11D639FAA27F00DB11DAA1F20
:101CB000649F6627B00DA11D661F829F2227B00D6D
:101CC000A11D621F739FB00DA11D621F839FA00DF8
:101CD000611D221F749F3327A00D611D231F849F48
:101CE000600D211D822F762F6A2F11249F5750409F
:101CF0008AF0E1F088234AF0EE0FFF1FBB1F661F3A
:101D0000771F881F91505040A9F79E3F510570F0F2
:101D10005CCFA6CF5F3FECF3983EDCF386957795DA
:101D20006795B795F795E7959F5FC1F7FE2B880FED
:101D3000911D9695879597F9089523DF880B990B48
:101D4000089597FB072E16F4009406D077FD08D06F
:101D50002DD007FC05D03EF4909581959F4F0895B6
:101D6000709561957F4F0895A1E21A2EAA1BBB1BA7
:101D7000FD010DC0AA1FBB1FEE1FFF1FA217B30757
:101D8000E407F50720F0A21BB30BE40BF50B661F6D
:101D9000771F881F991F1A9469F760957095809531
:101DA00090959B01AC01BD01CF010895AA1BBB1BFF
:101DB00051E107C0AA1FBB1FA617B70710F0A61B4B
:101DC000B70B881F991F5A95A9F780959095BC016C
:101DD000CD010895EE0FFF1F881F8BBF0790F6916E
:101DE000E02D199481E090E0F89400C0F894FFCFC2
:101DF0005E00BC0077010000000024029201BD01DA
:101E00006A02EE01CC01E001000000001C0308039F
:101E1000D302C402CB02C802C50244657669636579
:101E200020416464726573733A200054656D7020BC
:101E3000433A20002054656D7020463A20004461EA
:101E40006C6C61732054656D706572617475726538
:101E500020494320436F6E74726F6C204C6962722C
:101E60006172792044656D6F004C6F636174696EB7
:101E70006720646576696365732E2E2E00466F7544
:101E80006E64200020646576696365732E0050617E
:101E900072617369746520706F7765722069733A37
:101EA00020004F4E004F464600556E61626C652023
:101EB000746F2066696E6420616464726573732058
:101EC000666F7220446576696365203000556E61E7
:101ED000626C6520746F2066696E64206164647250
:101EE00065737320666F722044657669636520317F
:101EF00000446576696365203020416464726573CF
:101F0000733A20004465766963652031204164643A
:101F1000726573733A2000446576696365203020EA
:101F20005265736F6C7574696F6E3A200044657604
:101F30006963652031205265736F6C7574696F6ECB
:101F40003A200052657175657374696E6720746517
:101F50006D7065726174757265732E2E2E00444F1C
:101F60004E45000D0A006E616E00696E66006F7668
:021F7000660009
:00000001FF
