:1000000007C1000008C60000DBC50000AEC5000047
:1000100081C5000054C5000027C50000FAC40000D7
:10002000CDC4000023C1000021C100001FC1000099
:100030001DC100001BC1000019C1000017C1000054
:1000400015C1000013C1000011C100000FC1000064
:100050000DC100000BC1000009C1000065C4000013
:1000600005C100002CC6000001C60000FFC0000052
:10007000FDC00000FBC00000F9C00000F7C0000098
:10008000F5C00000F3C00000F1C00000EFC00000A8
:10009000EDC00000EBC00000E9C00000E7C00000B8
:1000A000E5C00000E3C00000E1C00000DFC00000C8
:1000B000DDC00000DBC00000D9C00000D7C00000D8
:1000C000D5C00000D3C00000D1C00000CFC00000E8
:1000D000CDC00000CBC00000C9C00000C7C00000F8
:1000E000C5C000008401870176017A017E01BE014E
:1000F0008B018F01950199019D01A301A701AB011E
:10010000BE01B101B501B90100000A0B02090C0DD5
:100110000E080703040100000000000000000000BA
:1001200000000000000000000000000000000000CF
:10013000000000001211100000000000000000008C
:1001400000000000000000000000000000000000AF
:100150002200250028002B002E003100340002016F
:100160000000050108010B01000021002400270008
:100170002A002D00300033000101000004010701B6
:100180000A0105050505070508080808020202021C
:100190000A0A080804040404010101010101010123
:1001A0000303030303030303040707070C0C0C0CEE
:1001B0000C0C0C0C020202020606060606060606D7
:1001C0000B0B0B0B0B0B0B0B010210202008081064
:1001D00020401020408002010201080402010102B7
:1001E0000408102040808040201008040201800490
:1001F00002018040201008040201080402010102EB
:100200000408102040800102040810204080950658
:1002100011241FBECFEFD1E2DEBFCDBF00E00CBF87
:1002200023E0AAE7B2E001C01D92AD33B207E1F7C7
:1002300012E0A0E0B2E0E8E0F1E100E00BBF02C0B4
:1002400007900D92AA37B107D9F711E0C8E0D1E0C5
:1002500000E005C021970109802FFE0147D7C73074
:10026000D10780E00807B1F7B1D54CC7C9CE90E0FF
:10027000FC01E853FE4F2491FC01EE57FE4F8491A0
:10028000882399F090E0880F991FFC01E859FE4FF0
:10029000A591B491FC01E25BFE4F859194918FB7DB
:1002A000F894EC91E22BEC938FBF0895362F90E0F9
:1002B000FC01E85FFE4F4491FC01E853FE4F24919E
:1002C000FC01EE57FE4F9491992309F46AC0442330
:1002D00009F454C050E0FA013197E231F10508F019
:1002E0004DC08827EE58FF4F8F4F00C78091800088
:1002F0008F7707C0809180008F7D03C08091800040
:10030000877F809380003AC084B58F7702C084B520
:100310008F7D84BD33C08091B0008F7703C0809102
:10032000B0008F7D8093B00029C0809190008F77BE
:1003300007C0809190008F7D03C080919000877FDF
:10034000809390001BC08091A0008F7707C08091A0
:10035000A0008F7D03C08091A000877F8093A000C4
:100360000DC0809120018F7707C0809120018F7D83
:1003700003C080912001877F80932001E92FF0E066
:10038000EE0FFF1FE25BFE4FA591B4918FB7F8947B
:10039000EC91311103C020952E2301C02E2B2C93FC
:1003A0008FBF08953FB7F8948091800290918102A9
:1003B000A0918202B091830226B5A89B05C02F3F71
:1003C00019F00196A11DB11D3FBFBA2FA92F982F7B
:1003D0008827820F911DA11DB11DBC01CD0142E0F6
:1003E000660F771F881F991F4A95D1F708958F923E
:1003F0009F92AF92BF92CF92DF92EF92FF92D2DFA5
:100400004B015C018AE0C82ED12CE12CF12CCADF13
:10041000DC01CB0188199909AA09BB09883E9340E0
:10042000A105B10558F021E0C21AD108E108F10890
:1004300088EE880E83E0981EA11CB11CC114D10463
:10044000E104F10421F7FF90EF90DF90CF90BF908F
:10045000AF909F908F9008950895CF92DF92EF9282
:10046000FF920F931F93CF93DF936C017A018B015F
:10047000C0E0D0E0CE15DF0589F0D8016D918D0187
:10048000D601ED91FC910190F081E02DC601199506
:10049000892B11F47E0102C02196ECCFC701DF91B8
:1004A000CF911F910F91FF90EF90DF90CF90089523
:1004B000FC01538D448D252F30E0842F90E0821B6A
:1004C000930B541710F0CF96089501970895FC01EF
:1004D000918D828D981761F0828DDF01A80FB11D7B
:1004E0005D968C91928D9F5F9F73928F90E008959F
:1004F0008FEF9FEF0895FC01918D828D981731F059
:10050000828DE80FF11D858D90E008958FEF9FEFAC
:100510000895FC01918D228D892F90E0805C9F4F82
:10052000821B91098F739927089584E892E0F1DF87
:1005300021E0892B09F420E0822F0895FC01848DAD
:10054000DF01A80FB11DA35ABF4F2C91848D90E0FD
:1005500001968F739927848FA689B7892C93A089D8
:10056000B1898C9180648C93938D848D981306C08F
:100570000288F389E02D80818F7D80830895EF923A
:10058000FF920F931F93CF93DF93EC0181E0888F4D
:100590009B8D8C8D981305C0E889F989808185FD34
:1005A00023C0F62E0B8D10E00F5F1F4F0F73112726
:1005B000E02E8C8DE8120BC00FB607FCFACFE8894D
:1005C000F989808185FFF5CFCE01B8DFF2CF8B8D21
:1005D000FE01E80FF11DE35AFF4FF0820B8FEA890D
:1005E000FB898081806207C0EE89FF896083E8898A
:1005F000F98980818064808381E090E0DF91CF91F0
:100600001F910F91FF90EF900895CF93DF93EC012E
:10061000888D8823C1F0EA89FB89808185FD05C02A
:10062000A889B9898C9186FD0EC00FB607FCF5CF5D
:10063000808185FFF2CFA889B9898C9185FFEDCFA4
:10064000CE017CDFE8CFDF91CF91089580E090E08C
:10065000892B19F06ADF811125C080E090E0892B99
:1006600041F080E090E0892B21F00E940000811190
:100670001CC080E090E0892B41F080E090E0892B65
:1006800021F00E940000811113C080E090E0892BCE
:10069000A1F080E090E0892B81F00E9400008111A0
:1006A0000AC008950E940000D8CF0E940000E1CF48
:1006B0000E940000EACF0C9400000895EF92FF9290
:1006C0001F93CF93DF931F92CDB7DEB77C01162F18
:1006D00060E0FC0186854983E9DDF7019485858525
:1006E0009CBD8DBD1EBD000049810DB407FEFDCF30
:1006F0008EB54EBD00000DB407FEFDCF1EB561E006
:10070000F7018685D3DD812F0F90DF91CF911F9167
:10071000FF90EF90089508950F931F93CF93DF9369
:10072000EC01E881F9810084F185E02D1995892B90
:1007300089F040E06DE0CE01C1DF082F40E060E0CD
:10074000CE01BCDF182F402F6DE8CE01B7DF812F1F
:1007500090E002C08FEF9FEFDF91CF911F910F913B
:100760000895CF93DF93EC01E881F9810084F1854E
:10077000E02D1995892B59F08E899F8901969F8BC1
:100780008E8B40E060E0CE0199DF90E002C08FEFF9
:100790009FEFDF91CF910895CF93DF93EC0140E07D
:1007A00063E18CDF282F30E08E899F89A901481BE7
:1007B000590BCA01DF91CF9108958F929F92AF920A
:1007C000BF92CF92DF92FF920F931F93CF93DF934D
:1007D0001F92CDB7DEB76C01B62E4A0140E062E24F
:1007E00079836CDFF82E90E09C01280D391D79810A
:1007F0002F3F310531F028F02FEF30E04901881A02
:10080000990A0B2D172F5801A80CB91C0A151B05A6
:1008100039F0F80141918F0160E8C6014FDFF6CF52
:10082000482D4F0D62EAC60149DFC4010F90DF91E8
:10083000CF911F910F91FF90DF90CF90BF90AF901D
:100840009F908F900895CF93DF931F92CDB7DEB71F
:100850006983DC01ED91FC910280F381E02D41E0A0
:1008600050E0BE016F5F7F4F19950F90DF91CF91E0
:100870000895089580E090E0089540D461157105D1
:1008800079F0FB0101900020E9F73197AF01461B99
:10089000570BDC01ED91FC910280F381E02D19945E
:1008A00080E090E008958F929F92AF92BF920F9355
:1008B0001F93CF93DF93CDB7DEB7A1970FB6F89410
:1008C000DEBF0FBECDBF19A2423008F44AE08E0150
:1008D0000F5D1F4F842E912CA12CB12CA5019401EA
:1008E000E3D3E62FB901CA0101501109EA3014F42B
:1008F000E05D01C0E95CD801EC93232B242B252B70
:1009000069F7B80184E892E0B9DFA1960FB6F894D0
:10091000DEBF0FBECDBFDF91CF911F910F91BF9072
:10092000AF909F908F9008951F920F920FB60F92E5
:1009300011242F933F938F939F93AF93BF938091F5
:100940007C0290917D02A0917E02B0917F02309155
:100950007B0223E0230F2D3720F40196A11DB11D4A
:1009600005C026E8230F0296A11DB11D20937B022E
:1009700080937C0290937D02A0937E02B0937F02CD
:100980008091800290918102A0918202B0918302B5
:100990000196A11DB11D8093800290938102A093C6
:1009A0008202B0938302BF91AF919F918F913F914B
:1009B0002F910F900FBE0F901F9018951F920F92BE
:1009C0000FB60F9211240BB60F922F933F934F93B4
:1009D0005F936F937F938F939F93AF93BF93EF93A7
:1009E000FF93E0910E02F0910F021995FF91EF91A4
:1009F000BF91AF919F918F917F916F915F914F9137
:100A00003F912F910F900BBE0F900FBE0F901F9034
:100A100018951F920F920FB60F9211240BB60F92DA
:100A20002F933F934F935F936F937F938F939F93F6
:100A3000AF93BF93EF93FF93E0910C02F0910D02FF
:100A40001995FF91EF91BF91AF919F918F917F91F8
:100A50006F915F914F913F912F910F900BBE0F902F
:100A60000FBE0F901F9018951F920F920FB60F9206
:100A700011240BB60F922F933F934F935F936F9375
:100A80007F938F939F93AF93BF93EF93FF93E091E7
:100A90000202F09103021995FF91EF91BF91AF917E
:100AA0009F918F917F916F915F914F913F912F9186
:100AB0000F900BBE0F900FBE0F901F9018951F92B6
:100AC0000F920FB60F9211240BB60F922F933F93F4
:100AD0004F935F936F937F938F939F93AF93BF9346
:100AE000EF93FF93E0910002F09101021995FF91BD
:100AF000EF91BF91AF919F918F917F916F915F9196
:100B00004F913F912F910F900BBE0F900FBE0F9002
:100B10001F9018951F920F920FB60F9211240BB6CB
:100B20000F922F933F934F935F936F937F938F9386
:100B30009F93AF93BF93EF93FF93E0910A02F091DD
:100B40000B021995FF91EF91BF91AF919F918F91FA
:100B50007F916F915F914F913F912F910F900BBEBD
:100B60000F900FBE0F901F9018951F920F920FB607
:100B70000F9211240BB60F922F933F934F935F93D5
:100B80006F937F938F939F93AF93BF93EF93FF9355
:100B9000E0910802F09109021995FF91EF91BF9140
:100BA000AF919F918F917F916F915F914F913F9105
:100BB0002F910F900BBE0F900FBE0F901F901895A6
:100BC0001F920F920FB60F9211240BB60F922F9314
:100BD0003F934F935F936F937F938F939F93AF93C5
:100BE000BF93EF93FF93E0910602F09107021995EE
:100BF000FF91EF91BF91AF919F918F917F916F91F5
:100C00005F914F913F912F910F900BBE0F900FBEB0
:100C10000F901F9018951F920F920FB60F921124EC
:100C20000BB60F922F933F934F935F936F937F93E6
:100C30008F939F93AF93BF93EF93FF93E091040241
:100C4000F09105021995FF91EF91BF91AF919F919E
:100C50008F917F916F915F914F913F912F910F9065
:100C60000BBE0F900FBE0F901F9018951F920F9202
:100C70000FB60F9211240BB60F922F933F934F9301
:100C80005F936F937F938F939F93AF93BF93EF93F4
:100C9000FF9384E892E052DCFF91EF91BF91AF9116
:100CA0009F918F917F916F915F914F913F912F9184
:100CB0000F900BBE0F900FBE0F901F9018951F92B4
:100CC0000F920FB60F9211240BB60F922F938F93A2
:100CD0009F93EF93FF93E0919402F09195028081AE
:100CE000E0919A02F0919B0282FD12C09081809166
:100CF0009D028F5F8F7320919E02821751F0E091C9
:100D00009D02F0E0EC57FD4F958F80939D0201C04E
:100D10008081FF91EF919F918F912F910F900BBE4A
:100D20000F900FBE0F901F901895E4E8F2E0138229
:100D3000128288EE93E0A0E0B0E084839583A683DE
:100D4000B78384E192E09183808385EC90E095877E
:100D5000848784EC90E09787868780EC90E0918B85
:100D6000808B81EC90E0938B828B82EC90E0958B72
:100D7000848B86EC90E0978B868B118E128E138E6F
:100D8000148EE1E2F3E01382128286E292E0918314
:100D9000808380E5848781E085878AE090E097877B
:100DA000868789E090E0918B808B82E090E0938B46
:100DB000828B158A148A178A168A118E108E138ECA
:100DC000128E14821582168217820895789484B543
:100DD000826084BD84B5816084BD85B5826085BD37
:100DE00085B5816085BD80916E00816080936E00C5
:100DF00010928100809181008260809381008091B7
:100E00008100816080938100809180008160809367
:100E100080008091B10084608093B1008091B00027
:100E200081608093B00080919100826080939100F6
:100E30008091910081608093910080919000816009
:100E4000809390008091A10082608093A1008091A6
:100E5000A10081608093A1008091A00081608093B7
:100E6000A000809121018260809321018091210165
:100E70008160809321018091200181608093200115
:100E800080917A00846080937A0080917A008260F9
:100E900080937A0080917A00816080937A008091BB
:100EA0007A00806880937A001092C100E0919402E9
:100EB000F091950282E08083E0919002F09191029E
:100EC0001082E0919202F09193028FEC8083109255
:100ED0009C02E0919802F091990286E08083E09173
:100EE0009602F0919702808180618083E091960262
:100EF000F0919702808188608083E0919602F09162
:100F00009702808180688083E0919602F091970239
:100F100080818F7D808364E372E084E892E0AEDCC0
:100F200068E472E084E892E0A9DC80912F039FD905
:100F3000809131039CD960E080913103B7D957DAB1
:100F400061E080913103B2D952DA61E080912F03E0
:100F5000ADD9FFB6F89480917A02811120C0E7EBF9
:100F6000F1E08491EDEFF1E09491E82FF0E0EE0FE5
:100F7000FF1FE859FE4FA591B491EC91E92319F4B4
:100F800061E085E393D985E372D98CB580618CBD2E
:100F90008CB580648CBD84E36AD983E368D9809181
:100FA0007A028F5F80937A02FFBE40E062E481E2C2
:100FB00093E084DB823109F06CC040E861E881E2B3
:100FC00093E07CDB80EC9AEC9093360380933503BE
:100FD00044EE66E881E293E071DB40EC67E881E291
:100FE00093E06CDB40E068E881E293E067DB40E09F
:100FF0006EE881E293E062DB40E06FE881E293E03B
:101000005DDB40E06CE081E293E058DB482F436019
:101010006CE881E293E052DB44E066EA81E293E02F
:101020004DDB4FE869E881E293E048DB41E861E8A5
:1010300081E293E043DBC12CD12C76016DE472E0B8
:1010400084E892E01BDC40E1C701B6012CDC6BE4D4
:1010500072E084E892E012DC40E06C2D81E293E0E3
:101060002DDB682F70E080E090E040E11CDC68E45C
:1010700072E084E892E002DC8FEFC81AD80AE80A2E
:10108000F80A80E8C816D104E104F104B9F6DEDA02
:10109000FECF60E572E084E892E0F0DB68E472E0A5
:1010A00084E892E0EBDBFFCFA1E21A2EAA1BBB1B68
:1010B000FD010DC0AA1FBB1FEE1FFF1FA217B30724
:1010C000E407F50720F0A21BB30BE40BF50B661F3A
:1010D000771F881F991F1A9469F7609570958095FE
:1010E00090959B01AC01BD01CF010895EE0FFF1F4C
:1010F000881F8BBF0790F691E02D199481E090E056
:08110000F89400C0F894FFCF41
:101108002C022C022C022C022C022C022C022C0267
:1011180000000000BF022D02580205038902670281
:101128007B02000000002304DD033A048B03CC0398
:10113800B1038C034C6F52612044756D7020526569
:1011480067697374657273000D0A003A203078007D
:101158004C6F526120696E6974206661696C6564C0
:101168002E20436865636B20796F757220636F6EFC
:0A1178006E656374696F6E732E00DC
:00000001FF
