:100000007DC20000ACC20000AAC20000A8C200006D
:10001000A6C20000A4C20000A2C20000A0C200004C
:100020009EC200009CC200009AC2000098C200005C
:1000300096C2000094C2000092C2000090C200006C
:100040008EC200008CC200008AC2000088C200007C
:1000500086C2000084C2000082C200000C94F8191D
:100060007EC200000C94B71B0C948D1B78C200005C
:1000700076C2000074C2000072C2000070C20000AC
:100080006EC200006CC200006AC2000068C20000BC
:100090000C94641B0C943A1B62C2000063C70000FE
:1000A0005EC200005CC200005AC2000058C20000DC
:1000B00056C2000054C2000052C2000050C20000EC
:1000C0004EC200004CC200004AC200000C94111B3A
:1000D0000C94E71A44C2000042C2000040C2000073
:1000E0003EC200003D1940192F19331939197719EB
:1000F000441948194E19521956195C196019641996
:1001000077196A196E19721900407A10F35A00A013
:10011000724E18090010A5D4E80000E876481700D0
:1001200000E40B54020000CA9A3B000000E1F50510
:10013000000080969800000040420F000000A0865A
:1001400001000000102700000000E803000000008C
:100150006400000000000A00000000000100000030
:1001600000002C76D888DC674F0823DFC1DFAE594A
:10017000E1B1B796E5E3E453C63AE651997696E8DD
:10018000E6C28426EB898C9B62ED407C6FFCEFBC61
:100190009C9F40F2BAA56FA5F490055A2AF75C938C
:1001A0006B6CF9676DC11BFCE0E40D47FEF520E6C2
:1001B000B500D0ED902E0300943577050080841EA5
:1001C000080000204E0A000000C80C333333330F00
:1001D000986E12831141EF8D2114893BE65516CF9D
:1001E000FEE6DB18D1844B381BF77C1D901DA4BBA9
:1001F000E424203284725E228100C9F124ECA1E55E
:100200003D271F1C1F1E1F1E1F1F1E1F1E1F00001D
:1002100020002300260029002C002F0032000001BE
:100220000000030106010901005EBCE2613FDD83BD
:10023000C29C7E20A3FD1F419DC3217FFCA2401EC6
:100240005F01E3BD3E6082DC237D9FC1421CFEA0B6
:10025000E1BF5D0380DE3C62BEE0025CDF81633DA6
:100260007C22C09E1D43A1FF4618FAA427799BC596
:1002700084DA3866E5BB5907DB856739BAE4065886
:100280001947A5FB7826C49A653BD987045AB8E676
:10029000A7F91B45C6987A24F8A6441A99C7257B66
:1002A0003A6486D85B05E7B98CD2306EEDB3510F56
:1002B0004E10F2AC2F7193CD114FADF3702ECC9246
:1002C000D38D6F31B2EC0E50AFF1134DCE90722C36
:1002D0006D33D18F0C52B0EE326C8ED0530DEFB126
:1002E000F0AE4C1291CF2D73CA947628ABF5174916
:1002F0000856B4EA6937D58B5709EBB536688AD406
:1003000095CB2977F4AA4816E9B7550B88D6346AF5
:100310002B7597C94A14F6A8742AC896154BA9F7E5
:10032000B6E80A54D7896B35000021002400270065
:100330002A002D00300033000101000004010701F4
:100340000A0100002200250028002B002E003100A9
:10035000340002010000050108010B010505050537
:10036000070508080808020202020A0A080804042D
:10037000040401010101010101010303030303035B
:100380000303040707070C0C0C0C0C0C0C0C0202EA
:10039000020206060606060606060B0B0B0B0B0BE7
:1003A0000B0B010210202008081020401020408074
:1003B0000201020108040201010204081020408029
:1003C00080402010080402018004020180402010B7
:1003D0000804020108040201010204081020408000
:1003E000010204081020408000000A0B02090C0DD5
:1003F0000E080703040100000000000000000000D8
:1004000000000000000000000000000000000000EC
:1004100000000000121110000000000000000000A9
:1004200000000000000000000000000000004A6121
:100430006E75617279204665627275617279204DC0
:100440006172636820417072696C204D6179204A45
:10045000756E65204A756C792041756775737420D7
:1004600053657074656D626572204F63746F626569
:1004700072204E6F76656D62657220446563656DAE
:10048000626572200053756E646179204D6F6E64F1
:1004900061792054756573646179205765646E6570
:1004A000736461792054687572736461792046724F
:1004B00069646179205361747572646179200053B5
:1004C000756E4D6F6E5475655765645468754672E8
:1004D00069536174004A616E4665624D6172417094
:1004E000724D61794A756E4A756C417567536570D6
:1004F0004F63744E6F7644656300362411241FBE2B
:10050000CFEFD1E2DEBFCDBF00E00CBF14E0A0E032
:10051000B2E0E6E8FCE500E00BBF02C007900D92F8
:10052000A830B107D9F72AE0A8E0B4E001C01D92D5
:10053000AA38B207E1F712E0CEE7D2E000E006C049
:1005400021970109802FFE010E94352ECD37D1075A
:1005500080E00807A9F70E945D220C94412E50CD3F
:10056000662329F06A3019F0862F90E008958FEF06
:100570009FEF08950F93DC01D8965C91D897D99698
:100580003C91213089F4631708F050C0B8EF5B9FAD
:10059000400D1124FC0122AD421708F047C001A80C
:1005A000F2A9E02D21E041C0023019F4621B6F5F17
:1005B00004C0033011F4421B4F5FF8EF5F9F400D02
:1005C0001124DC01DA965C91702F717000FD14C06B
:1005D000451760F5260F261730F4631718F42FEF30
:1005E000230F03C060E0631708F52223F9F03217E8
:1005F00008F4232F261B13C06317C0F4240F2417FD
:1006000030F4451718F42FEF250F03C040E04517CD
:1006100068F4222359F0521708F4252F241BDC011B
:10062000D196ED91FC91D297072F19950F910895CE
:10063000CF93DF93FC0127A9822F880F880F880FA3
:1006400082AFA081B18150968C915097803208F092
:100650008FE1880F880F880F81AF30AD932F990FEE
:10066000990F990F93AF51966C915197432F50E08A
:10067000420F511DC62FD0E0C417D50714F4262F02
:10068000231B94AF492F38E0239F400D1124242FC2
:1006900045AF30EF36AF54964D915C915597413F41
:1006A000510508F446AF56963C9137AFDF01A05C88
:1006B000BF4F1C9211968C9311969C93ED5BFF4F4C
:1006C0002083DF91CF9108950F93CF93DF93DC01C7
:1006D000ED91FC915089362F3770E0E8F0E002C0D0
:1006E000F595E7953A95E2F73E2FA52FB0E0FC018E
:1006F000C5A9D6A9669566956695E62FF0E0459F53
:10070000E00DF11D1124EC0FFD1FEC01CF58DF4F60
:1007100001111DC08881823018F49081932B908341
:100720008881813019F0908193279083369511F458
:10073000319630E8215071F711C08881813019F06D
:10074000908193279083EA0FFB1F215039F0888115
:10075000823098F79081932B9083EFCFDF91CF91E8
:100760000F91089580E00895213039F020F0223073
:1007700031F4861B0895860F0895841B0895840F15
:100780000895213039F020F0223031F4841B08958F
:10079000840F0895860F0895861B08955F926F92C7
:1007A0007F928F929F92AF92BF92CF92DF92EF9201
:1007B000FF920F931F93CF93DF936C01F62E642E5D
:1007C000EC01C85BDF4F1C81BD804C0181E7880EC6
:1007D000911CEE80E11AAE2CFE1408F4AF2C5B8065
:1007E0000C85202F4B2D612F8A81BEDF782E202F84
:1007F0004B2D612F852DC5DF482F662021F09A856E
:10080000D4019C9306C09985911111C09B85F40178
:100810009083AA2061F0D601D396ED91FC91D497F4
:100820000280F381E02D2A2D672DC6011995FE1453
:1008300020F0FE18B39410E0CCCF1F0D1C83BD82B6
:10084000DF91CF911F910F91FF90EF90DF90CF90AC
:10085000BF90AF909F908F907F906F905F90089522
:10086000DC0118964C911897ED91FC911197249109
:1008700030E0042E02C0359527950A94E2F7862FC2
:10088000840F883010F4E22F0EC031961196FC933D
:10089000EE939491E92F98E0941B01C0EE0F9A9586
:1008A000EAF7E22B885018968C9381E090E001C023
:1008B000880F6A95EAF781508E2308950895E09194
:1008C000DF048091DE04E81730F4F0E0E254FB4FDF
:1008D000808190E008958FEF9FEF08959091DF045D
:1008E0008091DE04981750F4E92FF0E0E254FB4FBA
:1008F000208130E09F5F9093DF0402C02FEF3FEF35
:10090000C90108958091DE0490E02091DF04821BEC
:100910009109089585ED8093BC008091BC0084FD11
:10092000FCCF10927504089540914F04262F30E0BB
:10093000240F311D21323105DCF42091750424305F
:10094000C9F4FC0180E090E0861758F430914F0420
:100950002191DC01A35DBB4FA30FB11D2C93019628
:10096000F3CF80914F04680F60934F0480E00895A7
:1009700081E0089582E00895CF92DF92EF92FF9296
:100980000F931F93CF93DF937C01262F972F8A011C
:100990008091BD04882391F0C62FD72F6E01C40E1D
:1009A000D51ECC15DD0569F06991D701ED91FC915B
:1009B0000190F081E02DC7011995F3CF642F822FAC
:1009C000B3DFC801DF91CF911F910F91FF90EF909E
:1009D000DF90CF900895CF93DF931F92CDB7DEB70E
:1009E00069832091BD042223D1F02091BC042032E0
:1009F00040F021E030E0FC013383228380E090E08E
:100A000014C08091BB04E82FF0E0E556FB4F9981BC
:100A100090838F5F8093BB048093BC0404C061E02B
:100A2000CE01019681DF81E090E00F90DF91CF91C0
:100A30000895CF92DF92EF92FF920F931F93CF937F
:100A4000DF936C01EB017B01E40EF51E00E010E08A
:100A5000CE15DF0561F06991D601ED91FC91019011
:100A6000F081E02DC6011995080F191FF1CFC801BB
:100A7000DF91CF911F910F91FF90EF90DF90CF907A
:100A800008952F923F924F925F926F927F928F9232
:100A90009F92AF92BF92CF92DF92EF92FF920F930D
:100AA0001F93CF93DF9300D0CDB7DEB79B838A83AC
:100AB0007C0184E0E80EF11CEA81FB81E958FF4FDC
:100AC0000190F081E02DC70119958C018E3F9F4F59
:100AD00008F0A0C1EA81FB81E658FF4FB080CA80D0
:100AE000DB80F9E7CF0ED11CF601A080EA81FB8103
:100AF000E85AFF4F80818130D9F078F0823019F1C7
:100B0000833059F5EA81FB81E65BFF4F0190F0816C
:100B1000E02DC7011995A80E20C0EA81FB81E65B94
:100B2000FF4F0190F081E02DC7011995B80E15C057
:100B3000EA81FB81E65BFF4F0190F081E02DC70168
:100B40001995A81A0AC0EA81FB81E65BFF4F019064
:100B5000F081E02DC7011995B81AEA81FB81E25BAB
:100B6000FF4FA082EA81FB81E15BFF4FB082EA8107
:100B7000FB81E85BFF4F20813181295E3F4F0F3FB2
:100B8000110509F040F50136110528F0EA81FB81D5
:100B9000E459FF4F07C00134110540F0EA81FB81A1
:100BA000E659FF4F80819181280F391FC9010196B5
:100BB000FC014491442309F4E5C0F901449150E05B
:100BC0004017510719F42E5F3F4F24C0FC01849158
:100BD000280F311DEBCFEA81FB81E259FF4F808165
:100BE0009181280F391FF901849190E0982F88276F
:100BF0003196E4918E2B009709F4C4C080179107B9
:100C000019F42D5F3F4F06C0F9013296E4912E0F83
:100C1000311DE9CF2115310509F4B4C00A811B81CA
:100C2000045B1F4FF801318320831086EA81FB812A
:100C3000E35AFF4F6081C80113DEF8018683EA8121
:100C4000FB81E25AFF4F6081C8010ADEA82EF8013D
:100C500087836A807B80F5E76F0E711CF3019081BA
:100C6000F801928781E0911180E0F8018387EA81A1
:100C7000FB81E15AFF4FB0806B2DC801F1DDBA94C2
:100C800022242394312C910101C0220FBA94EAF757
:100C9000482E421AEA81FB81E05AFF4FB0806B2D4B
:100CA000C801DEDDBA94410101C0880CBA94EAF7AC
:100CB0002A2D280FEA81FB81EF59FF4FB0806B2D61
:100CC000C8012983CDDDBA9401C0220CBA94EAF799
:100CD000B82EB218F8015680298115140CF053C0B3
:100CE0009485821A292F482D642D828199833CDDB9
:100CF000982EF80182839981292F482D642D8381B4
:100D000040DDF80183839981913099F068F0923049
:100D1000C1F0933009F5392D3A0D282F251991E0AE
:100D2000980F81E0820F1AC0392D350D982F9A0D3A
:100D300015C0292F2A1931E0390D982F950D920EE3
:100D40000DC091E0492F451931E0390D292F2A199D
:100D5000980F820F940E02C0982F392DEA81FB81E3
:100D6000EA5BFF4F2081EA81FB81E95BFF4F408115
:100D7000841718F4291718F40EC0291720F49817AF
:100D800010F409C0B12CF60120818B2D90E0820F68
:100D9000911D80833FC0EA81FB81EC5BFF4F808126
:100DA000EA81FB81EB5BFF4F9081991618F4831762
:100DB00018F404C0831738F7391528F7F80114829E
:100DC00015828A809B80FBE58F0E911C2A803B80D8
:100DD0008CE5280E311CF4016081C80141DD482EEC
:100DE000F1016081C8013CDD582E40E0642DC7014F
:100DF000D5DC41E0652DC701D1DC61E0C80130DD03
:100E00008111F3CFF80185818A152CF38285F301D6
:100E10008083B9CF81E090E00F900F900F90DF9129
:100E2000CF911F910F91FF90EF90DF90CF90BF90E7
:100E3000AF909F908F907F906F905F904F903F907A
:100E40002F900895089580E090E00895DC011696B3
:100E5000ED91FC91179720E030E040E069E11994B2
:100E6000DC011696ED91FC91179720E030E040E010
:100E700068E119949A01DC011696ED91FC9117979F
:100E8000462F67E11994EF92FF920F931F93CF9330
:100E9000DF931F92CDB7DEB77C018B01D8016C9137
:100EA0006731E1F078F4653198F1F80141814983C7
:100EB000D7011696ED91FC91179720E030E0C7011D
:100EC000199523C06A31A0F06E3F11F5F8014181F8
:100ED000498369E2C7010E94F30F17C0F8018181BD
:100EE0008983AE014F5F5F4F61E0C701C3DF0DC073
:100EF0000F5F1F4FD7011696ED91FC91179720E0D9
:100F000030E040E0C7011995C9CF0E5F1F4FC6CF33
:100F10000F90DF91CF911F910F91FF90EF90089567
:100F2000462FDC011696ED91FC91179720E030E0FA
:100F300065E119949A01DC011896ED91FC911997DD
:100F4000462F67E11994CF93DF931F92CDB7DEB799
:100F50006983AE014F5F5F4F61E0ECDF0F90DF917F
:100F6000CF9108951F920F920FB60F9211240BB6D6
:100F70000F922F933F934F935F936F937F938F9332
:100F80009F93AF93BF93EF93FF938091B900887FB6
:100F9000803609F49CC068F5883209F45BC090F48F
:100FA000803109F454C038F4882309F4F6C088303D
:100FB00009F44DC0F5C0883109F44CC0803209F401
:100FC0005DC0EEC0803409F468C048F4803309F491
:100FD00055C0883309F0E4C080937404D8C08035CC
:100FE00009F44FC0883509F45DC0883409F0D8C0D1
:100FF000D6C0883909F4C7C0A8F4883709F467C097
:1010000038F4883609F463C0803709F460C0C8C07A
:10101000883809F4B8C0803909F45FC0803809F015
:10102000BFC05BC0803B09F486C038F4803A09F445
:1010300066C0883A09F47FC0B3C0803C09F4A7C0F9
:10104000883C09F4A4C0883B09F48AC0A9C08091F7
:101050009A0410C09091990480919804981770F5A3
:10106000E091990481E08E0F80939904F0E0E858B4
:10107000FB4F80818093BB0085EC86C08093740415
:101080008EC0E091990481E08E0F80939904809145
:10109000BB00F0E0E858FB4F808390919904809169
:1010A00098046EC0E091990481E08E0F80939904BA
:1010B0008091BB00F0E0E858FB4F8083809177047B
:1010C00081116DC081E08093760484EA61C083E081
:1010D0008093750410927304CFCF80917304803293
:1010E00008F051C0E091730481E08E0F8093730487
:1010F0008091BB00F0E0ED5AFB4F8083BDCF85ECC3
:101100008093BC001092750480917304803230F497
:10111000E0917304F0E0ED5AFB4F1082609173048C
:1011200070E0E0915104F091520483E594E0199548
:101130001092730435C084E08093750410925004BB
:1011400010924F04E0914D04F0914E041995809156
:101150004F04811105C081E080934F0410922D044B
:10116000E091500481E08E0F80935004F0E0E35D45
:10117000FB4F80818093BB009091500480914F047D
:10118000981708F479CF85E88093BC0009C085ECF6
:101190008093BC001092750403C010927404BADBF3
:1011A000FF91EF91BF91AF919F918F917F916F913F
:1011B0005F914F913F912F910F900BBE0F900FBEFB
:1011C0000F901F901895AF92BF92CF92DF92EF923F
:1011D000FF920F931F93CF93DF93CDB7DEB7C85421
:1011E000D1400FB6F894DEBF0FBECDBF182F092F28
:1011F00020E081E697E963E97EEF31E0422F43701A
:1012000009F030E02F5F432F50E0FA01E359FE4F21
:101210008E179F0730F0FB01E41BF50B8E0F9F1F0D
:10122000ECCF21E0E22FF0E0EF5FFD4FE4913323BC
:1012300019F0223009F4EF5FF0E02F5F8E179F075F
:1012400018F08E1B9F0BEECF81E08093BD0488E6E3
:1012500080932C041092BB041092BC0460E085EED5
:1012600098E0B9DB8091BC04813208F045C09091D0
:1012700075049111FCCF92E09093750491E09093E6
:1012800077049FEF909374041092990480939804CC
:10129000ABE9B4E028E734E0F9019E2F921B9817E0
:1012A00018F49D919193F9CF10929A0480919A0429
:1012B000806D80939A0480917604813061F410925D
:1012C000760480919A048093BB008091BC0083FDDA
:1012D000F8CF85EC01C085EE8093BC008091750449
:1012E0008230E1F3809174048F3F31F08091740477
:1012F000803211F0809174041092BB041092BC04EF
:101300001092BD04809175048111FCCF81E080931F
:101310007504809377049FEF90937404109299045E
:1013200096E09093980480939A0480919A04806D3B
:1013300080939A0480917604813061F4109276044F
:1013400080919A048093BB008091BC0083FDF8CF0C
:1013500085EC01C085EE8093BC00809175048130DE
:10136000E1F380919904873018F48091990401C0C9
:1013700087E0A8E7B4E02EEB34E0F9019E2F921B42
:10138000981718F49D919193F9CF1092DF048093F0
:10139000DE0485EE98E0A2DA8F77982F92959F7001
:1013A0002AEFC22EF82E9C9DF00C112485EE98E0B9
:1013B00095DA9C01332744E0359527954A95E1F766
:1013C000E82EC29EE00C112485EE98E087DA9C019D
:1013D000332754E0359527955A95E1F7D82EC29ECC
:1013E000D00C112485EE98E079DA85EE98E076DA73
:1013F000BC017727E4E075956795EA95E1F7A82E9B
:10140000C69EA00C112485EE98E068DA9C01332773
:10141000F4E035952795FA95E1F7B82EC29EB00C09
:10142000112485EE98E05ADA9C013327A4E0359523
:101430002795AA95E1F7C29E800D1124A82FB0E050
:10144000BD016053784F4A2D50E0E2E0F2E081E0C8
:101450008E1B982F9E0F9B1528F49491490F511DB8
:101460003196F7CFF2E0FB1538F4CD018370992760
:10147000892B11F44F5F5F4F8DE691E0A89F90019B
:10148000A99F300DB89F300D11246D5C7740769583
:10149000679576956795260F371F21503109240FE0
:1014A000351FA8E1B0E00E94262E9B01AC012D0D56
:1014B000311D411D511DACE3B0E00E94092E9B017E
:1014C000AC012E0D311D411D511D0E94092EDC0164
:1014D000CB018F0D911DA11DB11DCB5BDE4F88830C
:1014E0009983AA83BB83C554D140CE018B5B9E4FA9
:1014F0000E949F1C7E0123EDE21A2EEFF20A9C014E
:101500004FE852E068E170E0C7010E942E1D84E0C0
:1015100090E00E947128D82EC92E0E9406292DB76E
:101520003EB7CF92DF923F932F931F921F9282EA92
:1015300092E09F938F93CE0101966C019F938F93BE
:101540000E947D2A0F931F93DF92CF92FF92EF921A
:101550008CEB92E09F938F938E0109561F4F1F9340
:101560000F930E947D2AE0915808F091590882E07B
:101570008083E0915408F09155081082E09156085C
:10158000F09157088FEC808310926008E0915C081E
:10159000F0915D0886E08083E0915A08F0915B0845
:1015A000808180618083E0915A08F0915B0880819E
:1015B00088608083E0915A08F0915B0880818068A0
:1015C0008083E0915A08F0915B0880818F7D808351
:1015D000B80188E498E00E94421A6FEC72E088E457
:1015E00098E00E94421A88E498E00E94011988E479
:1015F00098E00E940119E0915A08F0915B088081FF
:101600008F7E8083E0915A08F0915B088081877F0C
:101610008083E0915A08F0915B0880818F77808306
:10162000E0915A08F0915B0880818F7D80838091E2
:101630006208809361080FB6F894DEBF0FBECDBF7D
:10164000C85BDE4F0FB6F894DEBF0FBECDBFDF9193
:10165000CF911F910F91FF90EF90DF90CF90BF90AF
:10166000AF900895F894E091FA04F091FB04A091F2
:10167000FC04B091FD0498E0208120832C912C93F0
:1016800020812083880F9150B9F7000000000000EE
:101690000000808180837894089580E008953F92CF
:1016A0004F925F926F927F928F929F92AF92BF9272
:1016B000CF92DF92EF92FF920F931F93CF93DF931E
:1016C000CDB7DEB72C970FB6F894DEBF0FBECDBFF7
:1016D0005C01DC015B968D909C905C971696CD909A
:1016E000DD90ED90FC901997C114D104E104F10450
:1016F00039F0BFEFCB1ADB0AEB0AFB0A312C07C02B
:10170000F401C080D180E280F38033243394F4016B
:1017100081859285A385B4859C01AD012F5F3F4FE4
:101720004F4F5F4F29873A874B875C8726013701E8
:101730001D821E821F821886F40181859285A385F1
:10174000B4852D813E814F815885281739074A0776
:101750005B0708F063C089859A85AB85BC858C15CD
:101760009D05AE05BF0550F482E0C82ED12CE12CBA
:10177000F12C92E0492E512C612C712C9E012F5F8F
:101780003F4FB701A601C4010E948117882309F4C5
:1017900045C089819A81AB81BC81892B8A2B8B2B97
:1017A00041F0260137019FEF491A590A690A790A5F
:1017B00005C0C414D504E604F70491F02D813E81E0
:1017C0004F8158852F5F3F4F4F4F5F4F2D833E8393
:1017D0004F8358873FEFC31AD30AE30AF30AACCF0B
:1017E0000FEF1FEF2FEF3FE0B301A201C4010E94F2
:1017F000E216882399F0D50116964D915D916D9171
:101800007C911997411551056105710549F09301C6
:101810008201C4010E94E216811102C080E02AC048
:10182000D50116964D925D926D927C921997332058
:1018300051F0D301C2010196A11DB11DF4018083B5
:101840009183A283B383F5018789908DA18DB28D99
:10185000892B8A2B8B2B69F4D50157964D925D927B
:101860006D927C925A9714968C9114978068149676
:101870008C9381E02C960FB6F894DEBF0FBECDBFDF
:10188000DF91CF911F910F91FF90EF90DF90CF905C
:10189000BF90AF909F908F907F906F905F904F9090
:1018A0003F9008950F931F93CF93DF93EC01862F02
:1018B000642F8C3270F48A3208F076C0883289F056
:1018C000893209F042C070E080E090E00E94B419D3
:1018D0006BC08D32D1F0C8F194EB980F923020F1AB
:1018E00034C08E01055E1F4FD0E0F80181918F0159
:1018F0008F3F39F0D03110F461E001C062E00E9406
:101900007819DF5FD63189F74FC0433018F082E095
:1019100090E002C085E090E0880F991F880F991F22
:1019200005970197F1F740C08F73C80FD11D411182
:1019300007C061E08B8D0E94781960E08B8D11C02B
:1019400062E08B8D0E9478192FC0803478F18F73FC
:10195000FE01E80FF11D238D2F3F31F1803120F47E
:10196000822F0E94701C20C030E0F901E851FC4F2A
:101970008491F901EE55FC4F0491F901E45AFC4FB2
:101980001491112379F081110E942219E12FF0E0C6
:10199000EE0FFF1FE25FFD4FA591B491EC91E023A4
:1019A00081E009F480E08E8B81E001C080E0DF916E
:1019B000CF911F910F91089561E0FC0184810C94F7
:1019C000701CF894E091FC04F091FD048081808308
:1019D000E091FA04F091FB04A091F804B091F904AD
:1019E00088E0908190839C9190819083000000001A
:1019F0008150B9F7789408950F931F93CF93DF9395
:101A0000EB010E94EC198B01DCDF8F3F49F00E9453
:101A1000EC19601B710B6C177D07B0F380E001C0FF
:101A200081E0DF91CF911F910F910895CF93DF93C4
:101A3000EC018E81882379F08F8198859C012F5F3E
:101A40003F4F38872F838230924010F4BADFF4CFB3
:101A5000CE01B2DF1E82DF91CF910895CF92DF9247
:101A6000FF920F931F93CF93DF9300D01F92CDB7B8
:101A7000DEB76C01F62E29833A834B835C83D6DF75
:101A800060E0F60184810E94701C6CE271E0C60186
:101A9000B3DF8F2D8064E6DD08E110E05C814B81CF
:101AA0003A812981DA01C901002E04C0B695A795B3
:101AB000979587950A94D2F729833A834B835C8361
:101AC000D1DD0850110929813A814B815C81083FA1
:101AD000FFEF1F0739F7FF2029F088E0F81204C054
:101AE00087E803C085E901C08FEFBCDD10E069DF46
:101AF000F601828787FF04C01F3F11F01F5FF7CFF9
:101B00000F900F900F900F90DF91CF911F910F9139
:101B1000FF90DF90CF900895CF92DF92EF92FF92E7
:101B20000F931F93CF93DF93EC018901411551056A
:101B30006105710511F482E15FC08B85833039F056
:101B4000E9E0440F551F661F771FEA95D1F79A0108
:101B5000AB0168E1CE0182DF882311F084E04CC044
:101B60008C8598013E5F7901882329F1F801C12C09
:101B7000D12C419150E0BA016D25AB0194E055950F
:101B800047959A95E1F746275727DC2CCC24C426A5
:101B9000D526CA01982F88279295907FC826D926E6
:101BA00065E0440F551F6A95E1F7C426D526EE156A
:101BB000FF05F9F603C0CC24CA94DC2C8EEF52DD6D
:101BC000F80181918F014EDD0E151F05C9F78D2D8E
:101BD00049DD8C2D47DDF5DE8A878F71853029F050
:101BE00081E18D83CE01E8DE08C068E572E0CE01B8
:101BF00003DF811106C085E18D83CE01DDDE80E04B
:101C000010C020E030E0A9016DE0CE0127DF811196
:101C100003C0D7DE882311F084E1EECFCE01CCDE05
:101C200081E0DF91CF911F910F91FF90EF90DF90B6
:101C3000CF9008954F925F926F927F928F929F9272
:101C4000AF92BF92EF92FF920F931F93CF93DF93C8
:101C500000D01F921F92CDB7DEB78C016D83DC01DF
:101C600015968C911597813009F057C014968C9178
:101C700081FF53C05AC0038CF48DE02D258530E0E0
:101C8000275F3F4F2A013B01B1E04B1A5108610821
:101C90007108022E04C076946794579447940A946E
:101CA000D2F7D501C4010197A109B10904C0B695C5
:101CB000A795979587952A95D2F784159505A6053A
:101CC000B70508F070C0F8014789508D618D728D9D
:101CD00046835783608771872C013D017801E6E0D8
:101CE000EE0EF11CD801411451046104710409F491
:101CF00064C016964D915D916D917C9119979701F5
:101D00005B968D919C915C970E948117B1E04B1A74
:101D10005108610871088111E5CF81E090E0F80178
:101D20009383828380E090E04AC182FF0EC0F80175
:101D3000428553856485758583889488A588B6888F
:101D4000481559056A057B05F1F4D8011A964D919D
:101D50005D916D917C911D975B968D919C915C97A7
:101D6000FC0174807A944A015B0129E0B694A7943F
:101D7000979487942A95D1F778207A01F1E0FF2291
:101D8000772011F163C081149104A104B10409F01A
:101D900072CF1682178210861186F801128613867A
:101DA00014861586D2CF452B462B472B09F48BCFB3
:101DB00084199509A609B7098FCF1A968D929D921D
:101DC000AD92BC921D97C1CFE114F10409F03EC061
:101DD000F80146815781608571854115510561057E
:101DE000710549F48789908DA18DB28D0097A10569
:101DF000B10539F521C09E012F5F3F4F0E94811729
:101E0000882309F48FCF89819A81AB81BC81F80145
:101E1000238D348DF9012789203129F048EF5FEFB8
:101E20006FEF7FE004C048EF5FEF60E070E0841781
:101E30009507A607B70728F0C80131DC811106C055
:101E40006CCFF80186839783A087B187D8015B9612
:101E5000ED91FC915C9716968D909D90AD90BC9005
:101E60001997B2E08B1A9108A108B108058404C043
:101E7000880C991CAA1CBB1C0A94D2F786859785EE
:101E8000A089B189880E991EAA1EBB1E870C911CC1
:101E9000A11CB11CE114F10401F5F8014285538540
:101EA0006485758583899489A589B68948175907FA
:101EB0006A077B0790F0ABD6882309F42ECF809277
:101EC000000290920102A0920202B092030280915D
:101ED000000581608093000507C041E0C501B401A1
:101EE000D3D6882309F419CFF701EF5FFA4F8D811C
:101EF0008083F80182859385A485B5850196A11D0F
:101F0000B11D82879387A487B587438954896589E2
:101F10007689481759076A077B0738F4838B948BB7
:101F2000A58BB68B848180688483D80114968C91AC
:101F300083FD03C081E090E042C0F80195819923C0
:101F400009F4EBCE87FF37C0668577858089918954
:101F500041E09AD6882309F4E0CED8015296EC915C
:101F6000B0E2EB9F90011124D901AF5FBA4F1097F7
:101F700009F4D3CEF8018581823050F44389548925
:101F8000658976895C964D935D936D937C935F979D
:101F9000F8018789908DA18DB28DF901EF5FFA4F1D
:101FA000938F828FB58BA48BD80114968C91149744
:101FB0008F7714968C932BD68111BCCFAECE0F9019
:101FC0000F900F900F900F90DF91CF911F910F9175
:101FD000FF90EF90BF90AF909F908F907F906F9009
:101FE0005F904F900895DC011A96ED91FC911B973C
:101FF00020E030E019941F93CF93DF93EC01A88188
:10200000B9811C967C911C97683109F47AC030F430
:10201000643109F46CC0673149F0C6C0693109F414
:10202000B3C0603209F0C0C06AE4BAC0A091F6043F
:10203000B091F7048091F504E091F304F091F40479
:102040009091F1045091F2041091F00470FD3AC0A7
:10205000442309F4A7C0E90169919E01415061112F
:102060000DC06C9168236C9368E07081752B708350
:102070007081792370836150C1F7EACF78E0CC9109
:1020800067FF02C0C12B01C0C823CC93C081C52B00
:10209000C083660FC081C923C083715081F7D8CF38
:1020A000E90169919E01415061110FC06C91682353
:1020B0006C9368E07081792370837081752B7083D5
:1020C0006150C1F74111ECCF6DC078E0CC9167FF52
:1020D00002C0C12B01C0C823CC93C081C923C083D7
:1020E000660FC081C52BC083715081F7EBCF11966D
:1020F0004C9169E478DFE881F9814485417060E4BE
:102100004FC04C9169E46FDFA881B981EA85FB85F6
:1021100020E030E012964C916CE2CE0119958B8D47
:1021200090E0FC01E45AFC4FE491F0E0EE0FFF1F59
:10213000EE5BFC4F259134913093F4042093F3042B
:10214000FC01EE55FC4FE491E093F204E095E0933E
:10215000F1048C8D90E0FC01E45AFC4FE491F0E036
:10216000EE0FFF1FEE5BFC4F259134913093F70487
:102170002093F604FC01EE55FC4FE491E093F0044B
:10218000E095E093F5040EC0EA85FB8520E030E0A1
:1021900013964C916CE21995E881F981418169E4CB
:1021A000CE0121DF81E001C080E0DF91CF911F915E
:1021B0000895AF92BF92CF92DF92EF92FF920F936A
:1021C0001F93CF93DF93EC01693031F48BE292E0FF
:1021D00099838883188A75C079016B30B1F16F30AB
:1021E00009F43EC06A3009F06EC0EA85FB8520E044
:1021F00030E040E068E21995EE81FF8120E030E0B8
:1022000040E064E1CE01199541E06BE4CE01EBDEE4
:10221000E881F981448169E2CE01E5DE40E06BE4CA
:10222000CE01E1DEE881F981448169E2CE01DBDEA5
:1022300041E06BE4CE01D7DEE881F981458169E2B6
:10224000CE01D1DE68E172E007C0411103C061E157
:1022500072E002C06AE072E0CE010E94430731C022
:10226000F9010481000F000F000F13811695003251
:1022700010F00052185FCE010E943007F701A080D5
:10228000B1806EE3CE010E949007D12C10686D2DB5
:10229000600F6068CE010E949007612FCE010E94FE
:1022A0009007F701C280A5016C2DCE010E943A076C
:1022B000AC0CB11CD394F8E0DF12E9CFCE010E9440
:1022C000260781E001C080E0DF91CF911F910F913F
:1022D000FF90EF90DF90CF90BF90AF900895CF9296
:1022E000DF92EF92FF920F931F93CF93DF93EC0156
:1022F000142F7901663121F1E8F4643109F47FC0CB
:10230000653109F08AC068EF0E94A30741E06CE2E2
:10231000CE0169DE612F607FCE010E94A30741E0FC
:102320006CE2CE0160DE612F6295607FCE010E947B
:10233000A3075FC0673199F06A3108F06EC05FC0D3
:1023400068EF0E94A307612F607FCE010E94A30760
:10235000612F6295607FCE010E94A3074EC06AEF95
:102360000E94A30741E06CE2CE013DDE6701012F30
:102370000E0D802F8C19883058F4012F0770169598
:1023800016951695F8E01F9FE00CF11C11241FC054
:10239000A601E0EEF4E0DA018D91AD01982F907F77
:1023A000908332969F01215031098295807FD90117
:1023B0008C93B4E0E03FFB0771F7E8E0CE0ED11C50
:1023C00040EE54E060E1CE010E949A07D2CF002394
:1023D00081F0D7011D917D01612F607FCE010E94A8
:1023E000A307612F6295607FCE010E94A307015071
:1023F000EECF41E06CE2CE01F6DD81E00FC0E88572
:10240000F9859701412FCE01DF91CF911F910F9157
:10241000FF90EF90DF90CF90199480E0DF91CF9103
:102420001F910F91FF90EF90DF90CF900895FC01E6
:10243000918D228D892F90E0805C9F4F821B9109A6
:102440008F739927089580E090E0892B19F08AD640
:1024500081111BC080E090E0892B19F07AD68111A0
:1024600017C080E090E0892B19F06AD6811113C063
:1024700080E090E0892BA1F080E090E0892B81F052
:102480000E94000081110AC008950E940000E2CF5E
:102490000E940000E6CF0E940000EACF0C940000EA
:1024A00008950895DC01E0E0615038F08D91E8274F
:1024B000F0E0E85DFD4FE491F7CF8E2F0895FC0129
:1024C000848DDF01A80FB11DA35ABF4F2C91848DBD
:1024D00090E001968F739927848FA689B7892C93F2
:1024E000A089B1898C9180648C93938D848D98138D
:1024F00006C00288F389E02D80818F7D8083089556
:10250000EF92FF920F931F93CF93DF937C018B0188
:10251000D42FDC011596ED91FC9116971386158644
:102520001486DF011B9633961E92AE17BF07E1F7A4
:10253000C0E0B801D70115968D919C9116970E9425
:10254000E01B811102C080E00FC0CD1309C067E01D
:10255000C801A8DFF8019781891302C081E004C097
:10256000CF5FDC1780F3E5CFDF91CF911F910F9103
:10257000FF90EF900895FC0190810180F281E02DA1
:10258000F8948181892B81832281892F809528234A
:102590002283A7E0B0E01197F1F7218182238183A4
:1025A000A3E2B0E01197F1F780817894EFECF0E0CE
:1025B0003197F1F7982381E009F480E00895FC0158
:1025C00090810180F281E02D892F809560FF12C0FB
:1025D000F8942281822382838181892B8183A3E2E3
:1025E000B0E01197F1F78281982B9283789487ED70
:1025F00090E011C0F8942281822382838181892B0B
:102600008183AFEFB0E01197F1F78281982B92832D
:1026100078948FE090E00197F1F70895CF92DF92E0
:10262000EF92FF920F931F93CF93DF931F92CDB73B
:10263000DEB76C01E62E08E010E0FF24F39461E0C1
:102640008F2D8E2109F460E0C6014983B8DFFF0CAD
:102650000150110949810115110589F7411115C072
:10266000F894D6011196ED91FC91129791818C917D
:102670008095892381831196ED91FC911297928127
:102680008C9180958923828378940F90DF91CF91EC
:102690001F910F91FF90EF90DF90CF900895CF9210
:1026A000DF92EF92FF920F931F93CF93DF931F92CE
:1026B000CDB7DEB78C01F62E40E065E57983AEDF5D
:1026C000CF2C7981D72E760188E0E80EF11CF60137
:1026D00061916F0140E0C801A1DFCE14DF04B9F7BA
:1026E0000F90DF91CF911F910F91FF90EF90DF90AE
:1026F000CF900895FC0190810180F281E02DF89443
:102700008181292F20958223818378948DE743E06E
:1027100050E0815021F1DA011197F1F7308139232E
:10272000C1F3F8948281822382838181892B818302
:102730007894ABE7B7E01197F1F7F89481812823FB
:102740002183A3E1B1E01197F1F78081982381E023
:1027500009F080E07894E3E6F6E03197F1F7089528
:102760006F927F928F929F92AF92BF92CF92DF92A1
:10277000EF92FF920F931F93CF93DF931F921F92BD
:10278000CDB7DEB78C017A01FC0185819681698322
:102790007A83B0DF69817A81882371F1F8018581BC
:1027A00096817DDF40E06EEBF8018581968136DF12
:1027B00037015701F9E0AF0EB11CF8018580968012
:1027C00088E0C82ED12CEE24E394F12CC401D3DE92
:1027D0008111FE28EE0CF1E0CF1AD108B9F7F30110
:1027E000F1923F01EA15FB0541F7F80185819681D9
:1027F00081DF91E0813009F090E0892F0F900F90F8
:10280000DF91CF911F910F91FF90EF90DF90CF90CC
:10281000BF90AF909F908F907F906F9008950F938F
:102820001F93CF93DF93CDB7DEB761970FB6F894C0
:10283000DEBF0FBECDBF8C01462FBE01665F7F4F4E
:102840005FDE811105C060E070E08EEF92EC53C056
:10285000AE014F5F5F4FBE01665F7F4FC80180DFF3
:10286000882309F445C068E0CE0101961BDE9985F6
:1028700089133EC0698188E0689FB00111248A8174
:10288000282F30E0322F2227330F330F330F262B20
:10289000372B8A85803151F5688570E08F81AB01D7
:1028A000481B5109CA019695982F882797958795B7
:1028B0000E94B82D60517109207F53E0220F331F11
:1028C0005A95E1F7620F731F613854EE75070CF4E7
:1028D000BACF072E000C880B990B0E94462620E0E9
:1028E00030E040E05CE30E94812605C0B901ECCFF6
:1028F00060E874EEE9CF61960FB6F894DEBF0FBEC4
:10290000CDBFDF91CF911F910F910895CF93DF93AA
:10291000CDB7DEB729970FB6F894DEBF0FBECDBF97
:10292000FB012081203109F1AE014F5F5F4F18DFBD
:10293000882371F068E0CE010196B4DD9985891392
:1029400007C008C0803458F08F3569F08F3769F0C0
:1029500080E00CC08D818F33A9F78AE007C08F31EA
:10296000B9F789E003C08BE001C08CE029960FB66F
:10297000F894DEBF0FBECDBFDF91CF9108954F9287
:102980005F926F927F928F929F92AF92BF92EF92DF
:10299000FF921F93CF93DF93CDB7DEB761970FB64A
:1029A000F894DEBF0FBECDBF7C01462FBE01665F2F
:1029B0007F4FA6DDBE01665F7F4FC701A7DF182FDF
:1029C000811102C010E056C0F7018581968192DE28
:1029D0008823C1F3BE01665F7F4FF7018581968131
:1029E0005EDEF701408164E48581968117DEF701A0
:1029F000B280BB2009F43DC01950133048F4E12FD8
:102A0000F0E0EE0FFF1FED5BFD4F8080918004C072
:102A10008EEE882E82E0982EF7011381112311F19A
:102A2000808181111FC0D8D42B013C01092C000CDE
:102A3000AA08BB08AE014F5F5F4FBE01665F7F4FC4
:102A4000C7018EDE8981811115C0C6D4DC01CB019E
:102A500088199909AA09BB0984159505A605B70522
:102A600048F308C0B401990C880B990B7DD41B2D39
:102A700001C011E0812F61960FB6F894DEBF0FBE42
:102A8000CDBFDF91CF911F91FF90EF90BF90AF909E
:102A90009F908F907F906F905F904F900895EF92EE
:102AA000FF920F931F93CF93DF93CDB7DEB761975C
:102AB0000FB6F894DEBF0FBECDBF8C01DC011596BA
:102AC000ED91FC911697138615861486DF011B96EF
:102AD00033961E92AE17BF07E1F7F8011482FF2468
:102AE000F394BE01665F7F4FD80115968D919C913E
:102AF000169766D6882309F44FC067E0CE010A9680
:102B0000D1DC99898913EDCFD8018C91811121C035
:102B100015968D919C911697EDDDBE01665F7F4FF6
:102B2000F80185819681BBDD40E064EBD801159604
:102B30008D919C91169772DDF801858196811BDD40
:102B4000E82ED80115968D919C911697D3DDEE2035
:102B500001F1AE014F5F5F4FBE01665F7F4FC8015D
:102B6000FFDDF801E180BE01665F7F4FC801CEDE68
:102B70008E1520F4D80111968C9105C0BE01665FB8
:102B80007F4FC801C3DEF801818384818F5F848316
:102B9000A8CFF801F082DDCF61960FB6F894DEBFC2
:102BA0000FBECDBFDF91CF911F910F91FF90EF909E
:102BB00008950F931F93CF93DF93EC01162F60E0DE
:102BC000812F96D3612F70E0FB01EE55FC4FE4910D
:102BD000E883FB01E45AFC4FE491F0E0EE0FFF1FA5
:102BE000E25FFD4F859194919A8389831B861D86B0
:102BF0001C86FE013B968E010D5F1F4F1292E0175F
:102C0000F107E1F7DF91CF911F910F910895CF93D5
:102C1000DF9380910005882399F1C091FE04D09143
:102C2000FF044091000250910102609102027091F4
:102C3000030221E035E0CE010E948C0D811102C01B
:102C400080E01FC040910107509102076091030787
:102C500070910407411551056105710579F021E076
:102C600035E0CE010E948C0D882351F310920107AC
:102C700010920207109203071092040710920005A9
:102C800081E0DF91CF910895BF92CF92DF92EF92D2
:102C9000FF920F931F93CF93DF936B017C01B42EB0
:102CA0008091000290910102A0910202B091030272
:102CB0008C159D05AE05BF0509F473C0A8DF8823F8
:102CC00009F476C0C091FE04D091FF048E81882360
:102CD00069F088819981AA81BB81C816D906EA0664
:102CE000FB0621F48F819885892BA1F1C882D982B6
:102CF000EA82FB828B85A7019601833039F089E057
:102D0000220F331F441F551F8A95D1F761E1CE0171
:102D10000E942E0D882319F083E08D8335C05CD38B
:102D20008B010E94E10C8A878F3F41F455D3601BD1
:102D3000710B6D327140A8F38FE003C08E3F31F00C
:102D40008DE08D83CE010E94DC0C1EC018861F8290
:102D500081E08E8301E015E00E94E10CF80181938F
:102D60008F01F7E001301F07B9F78F8198859E5FCB
:102D700098878F832985222319F08115924048F086
:102D8000CE010E94160D05C0CE010E94DC0C80E031
:102D90000FC0C0920002D0920102E0920202F092B3
:102DA000030280910005482F4B294093000581E0E4
:102DB000DF91CF911F910F91FF90EF90DF90CF9017
:102DC000BF9008954F925F926F927F928F929F92E1
:102DD000AF92BF92CF92DF92EF92FF920F931F9329
:102DE000CF93DF93EC016A017B0128013901423066
:102DF00051056105710510F480E072C089859A85DE
:102E0000AB85BC850196A11DB11D84179507A6074A
:102E1000B70790F38B889C88AD88BE888F898031F6
:102E200029F4BB27AF2D9E2D8D2D09C0DB01CA01D2
:102E300047E0B695A795979587954A95D1F7880E5F
:102E4000991EAA1EBB1E8091000290910102A091C2
:102E50000202B091030288169906AA06BB0679F40D
:102E60008F89803199F4DD24EE24FF24C601880F78
:102E7000991FFC01EF5FFA4F5182408218C040E079
:102E8000C501B40101DF8111EBCFB6CFE894C7F8DB
:102E9000DD24EE24FF24C601880F991F880F991F97
:102EA000FC01EF5FFA4F408251826282738280910F
:102EB00000058160809300058A89823080F08D81D1
:102EC0009E81AF81B885880E991EAA1EBB1E809276
:102ED000010790920207A0920307B092040781E0D5
:102EE000DF91CF911F910F91FF90EF90DF90CF90E6
:102EF000BF90AF909F908F907F906F905F904F901A
:102F000008958F929F92AF92BF92CF92DF92EF92ED
:102F1000FF920F931F93CF93DF93FC0181859285DE
:102F2000A385B4850196A11DB11D84179507A60739
:102F3000B70710F480E05BC083899489A589B689BE
:102F4000C789C03129F4852E962EA72EBB2409C02F
:102F50004A015B01C7E0B694A79497948794CA95F9
:102F6000D1F7E9016A017B018F01BC01CD01680D38
:102F7000791D8A1D9B1D8090000290900102A090F7
:102F80000202B0900302681579058A059B0599F441
:102F9000F80187898031A1F4B701A601552766277A
:102FA0007727440F551FFA01EF5FFA4F8081918117
:102FB000A0E0B0E017C040E067DE8111E9CFBACFF2
:102FC000B701A6014F77552766277727440F551F6E
:102FD000440F551FFA01EF5FFA4F80819181A28162
:102FE000B381BF7088839983AA83BB8381E0DF911B
:102FF000CF911F910F91FF90EF90DF90CF90BF90F6
:10300000AF909F908F9008953FB7F89480910A07F2
:1030100090910B07A0910C07B0910D0726B5A89BC6
:1030200005C02F3F19F00196A11DB11D3FBFBA2F5A
:10303000A92F982F8827820F911DA11DB11DBC01BA
:10304000CD0142E0660F771F881F991F4A95D1F77F
:103050000895CF92DF92EF92FF920F931F93CF9339
:10306000DF936C017A018B01C0E0D0E0CE15DF0563
:1030700089F0D8016D918D01D601ED91FC910190FF
:10308000F081E02DC6011995892B11F47E0102C053
:103090002196ECCFC701DF91CF911F910F91FF9047
:1030A000EF90DF90CF900895FC01A089B1898C91B9
:1030B000A689B78982FD0FC09C91818D8F5F8F7328
:1030C000228D821749F0218DDF01A20FB11D5D967F
:1030D0009C93818F08958C910895FC01538D448DAC
:1030E000252F30E0842F90E0821B930B541710F0B3
:1030F000CF96089501970895FC01918D828D9817C0
:1031000061F0828DDF01A80FB11D5D968C91928DCB
:103110009F5F9F73928F90E008958FEF9FEF0895C8
:10312000FC01918D828D981731F0828DE80FF11D91
:10313000858D90E008958FEF9FEF08950E943D2EBA
:103140008EE097E074D921E0892B09F420E0822FEA
:1031500008958BEA97E06BD921E0892B09F420E0F0
:10316000822F089588E498E062D921E0892B09F440
:1031700020E0822F0895EF92FF920F931F93CF9339
:10318000DF93EC0181E0888F9B8D8C8D981305C0B7
:10319000E889F989808185FD23C0F62E0B8D10E02A
:1031A0000F5F1F4F0F731127E02E8C8DE8120BC09D
:1031B0000FB607FCFACFE889F989808185FFF5CF42
:1031C000CE017DD9F2CF8B8DFE01E80FF11DE35AC0
:1031D000FF4FF0820B8FEA89FB898081806207C0F4
:1031E000EE89FF896083E889F98980818064808322
:1031F00081E090E0DF91CF911F910F91FF90EF90D0
:103200000895CF93DF93EC01888D8823C1F0EA897C
:10321000FB89808185FD05C0A889B9898C9186FDCF
:103220000EC00FB607FCF5CF808185FFF2CFA889CD
:10323000B9898C9185FFEDCFCE0141D9E8CFDF91DF
:10324000CF91089590E0FC013197E231F10508F04B
:103250004EC08827EE58FF4F8F4F0C94352E80912B
:1032600080008F7703C0809180008F7D80938000E5
:10327000089580918000877FF9CF84B58F7702C051
:1032800084B58F7D84BD08958091B0008F7703C091
:103290008091B0008F7D8093B00008958091900060
:1032A0008F7707C0809190008F7D03C08091900040
:1032B000877F8093900008958091A0008F7707C04A
:1032C0008091A0008F7D03C08091A000877F8093B4
:1032D000A0000895809120018F7707C08091200180
:1032E0008F7D03C080912001877F80932001089506
:1032F000CF93DF9390E0FC01EE55FC4F2491FC014D
:10330000E45AFC4F8491882361F190E0880F991F63
:10331000FC01E85DFC4FC591D491FC01EE5BFC4FD4
:10332000A591B491611109C09FB7F8948881209547
:1033300082238883EC912E230BC0623061F49FB707
:10334000F8943881822F809583238883EC912E2BEB
:103350002C939FBF06C08FB7F894E8812E2B28834B
:103360008FBFDF91CF9108958F929F92AF92BF92BE
:10337000CF92DF92EF92FF926B017C0145DE4B0111
:103380005C01C114D104E104F104E9F03DDEDC018B
:10339000CB0188199909AA09BB09883E9340A10568
:1033A000B10578F321E0C21AD108E108F10888EEEE
:1033B000880E83E0981EA11CB11CC114D104E10445
:1033C000F10421F7DECFFF90EF90DF90CF90BF9018
:1033D000AF909F908F9008952FB7F8946091060753
:1033E0007091070780910807909109072FBF0895F2
:1033F0001F920F920FB60F9211242F933F938F932A
:103400009F93AF93BF938091060790910707A09178
:103410000807B09109073091050723E0230F2D37E6
:1034200020F40196A11DB11D05C026E8230F0296C8
:10343000A11DB11D209305078093060790930707F0
:10344000A0930807B093090780910A0790910B0792
:10345000A0910C07B0910D070196A11DB11D80939D
:103460000A0790930B07A0930C07B0930D07BF9129
:10347000AF919F918F913F912F910F900FBE0F9021
:103480001F9018956115710579F0FB0101900020DE
:10349000E9F73197AF01461B570BDC01ED91FC9129
:1034A0000280F381E02D199480E090E008954F921E
:1034B0005F926F927F92EF92FF920F931F93CF9341
:1034C000DF93CDB7DEB7A1970FB6F894DEBF0FBE7E
:1034D000CDBF7C01FA01CB0119A2223008F42AE009
:1034E0008E010F5D1F4F422E512C612C712CBF019C
:1034F000A30192010E94CB2DF901CA0101501109CB
:103500006A3014F4605D01C0695CD8016C93232BB0
:10351000242B252B61F7B801C701B4DFA1960FB6A4
:10352000F894DEBF0FBECDBFDF91CF911F910F91F9
:10353000FF90EF907F906F905F904F9008958F92E3
:103540009F92AF92BF92CF92DF92EF92FF920F9332
:103550001F93CF93DF937C01EB016C0182E0C80ED7
:10356000D11C4701E5E08E0E911C00E010E0F60151
:1035700041916F0150E060E070E02AE0CE0197DFFA
:103580005C01E881F9810190F081E02D6EE2CE01CD
:1035900019958A0D9B1D080F191FC814D90439F7F6
:1035A000F701458150E060E070E02AE0CE017FDF66
:1035B000800F911FDF91CF911F910F91FF90EF909E
:1035C000DF90CF90BF90AF909F908F9008951F9203
:1035D0000F920FB60F9211240BB60F922F933F93B9
:1035E0004F935F936F937F938F939F93AF93BF930B
:1035F000EF93FF938EE097E00E945F12FF91EF91AF
:10360000BF91AF919F918F917F916F915F914F91FA
:103610003F912F910F900BBE0F900FBE0F901F90F8
:1036200018951F920F920FB60F9211240BB60F929E
:103630002F933F934F935F936F937F938F939F93BA
:10364000AF93BF93EF93FF938EE097E02DDDFF9153
:10365000EF91BF91AF919F918F917F916F915F910A
:103660004F913F912F910F900BBE0F900FBE0F9077
:103670001F9018951F920F920FB60F9211240BB640
:103680000F922F933F934F935F936F937F938F93FB
:103690009F93AF93BF93EF93FF938BEA97E00E94C2
:1036A0005F12FF91EF91BF91AF919F918F917F91A9
:1036B0006F915F914F913F912F910F900BBE0F90A3
:1036C0000FBE0F901F9018951F920F920FB60F927A
:1036D00011240BB60F922F933F934F935F936F93E9
:1036E0007F938F939F93AF93BF93EF93FF938BEA57
:1036F00097E0DADCFF91EF91BF91AF919F918F91AD
:103700007F916F915F914F913F912F910F900BBEE1
:103710000F900FBE0F901F9018951F920F920FB62B
:103720000F9211240BB60F922F933F934F935F93F9
:103730006F937F938F939F93AF93BF93EF93FF9379
:1037400088E498E00E945F12FF91EF91BF91AF91E2
:103750009F918F917F916F915F914F913F912F91A9
:103760000F900BBE0F900FBE0F901F9018951F92D9
:103770000F920FB60F9211240BB60F922F933F9317
:103780004F935F936F937F938F939F93AF93BF9369
:10379000EF93FF9388E498E087DCFF91EF91BF916E
:1037A000AF919F918F917F916F915F914F913F91D9
:1037B0002F910F900BBE0F900FBE0F901F9018957A
:1037C000AF92BF92CF92DF92EF92FF920F931F932F
:1037D000CF93DF931F92CDB7DEB75C01D62EE72ED5
:1037E000FC018585811105C0C5010E947A138111F4
:1037F00006C0F50113861586148680E065C040E09A
:1038000060EFC5010E940E1301E0F12CC12C11E004
:10381000C5010E94BB12682FC50169830E94BB12BB
:103820006981613019F48130B9F433C04F2D50E013
:1038300068131BC0F5018385181730F4E40FF51FDA
:103840008381802349F402C0181731F060E01930F9
:1038500058F4F501148708C0F501EF0DF11D8381BF
:10386000802B838361E009C0C12EF501E40FF51FB1
:103870009381802F809589238383C5010E94DF1265
:103880001F5F000F11F4F39401E0F7E0FF1508F05B
:10389000BFCF113408F4ADCFF501C386C11002C00B
:1038A00081E08587F5018381882309F4A2CFD501C2
:1038B0001396ED2DFE2D9501255F3F4F8D91819340
:1038C000A217B307D9F781E00F90DF91CF911F9135
:1038D0000F91FF90EF90DF90CF90BF90AF90089541
:1038E0001F93CF93DF93282F30E0F901E851FC4F6D
:1038F0008491F901EE55FC4FD491F901E45AFC4F43
:10390000C491CC23C1F0162F81119CDCEC2FF0E088
:10391000EE0FFF1FEE5BFC4FA591B4918FB7F894AB
:10392000111105C09C91ED2FE095E92302C0EC91A7
:10393000ED2BEC938FBFDF91CF911F91089564E73A
:103940007AE003D084E79AE00895CF92DF92EF9275
:10395000FF920F931F93CF93DF9300D01F92CDB7A9
:10396000DEB76C017B01E091880AF091890A3097FB
:1039700029F060E87AE019958C0102C00FEF1FEF83
:10398000F60140815181628173818091800A90911A
:10399000810AA091820AB091830A480F591F6A1FB9
:1039A0007B1F101611064CF4C801012E000CAA0B47
:1039B000BB0B480F591F6A1F7B1F49835A836B83B8
:1039C0007C83B701CE010196F6D3F70113870287F6
:1039D0000F900F900F900F90DF91CF911F910F914B
:1039E000FF90EF90DF90CF900895CF92DF92EF920B
:1039F0000F936B01E82E7C2D6D2D5E2DAE2DC60133
:103A00000196A11D442351F06C01EA2EE72FF62FF9
:103A10000E94132E603279F74150EDCFF6010E94DB
:103A2000132E6C01EA2E80E0603239F4F901108225
:103A30000F91EF90DF90CF9008958017B9F32F5F2B
:103A40003F4FF901319760838F5FF6015E2D0E9431
:103A5000132E9FEFC91AD90AE90AE6CF2F923F9297
:103A60004F925F926F927F928F929F92AF92BF928E
:103A7000CF92DF92EF92FF920F931F93CF93DF933A
:103A8000CDB7DEB7A2970FB6F894DEBF0FBECDBF9D
:103A90002C017AA369A34A017901612C712C9E0142
:103AA0002F5F3F4F690184E6282E312C99EAA92E19
:103AB00093E0B92E29A13AA16216730608F0BEC29E
:103AC000D4018C91853209F0A5C211961C91153450
:103AD00031F01F3421F0B2E08B0E911C06C0F401CE
:103AE000128194012D5F3F4F4901193509F423C21A
:103AF0000CF063C0193409F438C144F5133409F4E7
:103B0000E9C054F4113409F4C2C00CF0CEC015322F
:103B100009F068C2198369C2163409F4ECC064F470
:103B2000143409F05FC2F70186819781B1010E94C8
:103B3000B82D9F938F93DBC1173409F4F4C0183468
:103B400009F050C2D70112968C9129C1143509F49D
:103B500081C164F4123509F46BC10CF01EC11D342F
:103B600009F040C2D70111968C9119C1163509F49C
:103B70009BC10CF497C1173509F4A9C1183509F098
:103B800031C2D7018C91282F082E000C330B3F93A4
:103B90008F9311968C911197282F082E000C330BC0
:103BA0003F938F9312968C91282F082E000C330B85
:103BB0003F938F938EEE93E0AAC11D3609F4E6C0C1
:103BC000B4F5143609F493C074F4123609F467C0DE
:103BD0000CF075C0113609F005C203E09601D7015B
:103BE00014964C9158C0173609F49DC07CF41536D4
:103BF00009F0F8C1D70113968C91282F082E000CDC
:103C0000330B3F938F938EEA93E0BDC0183609F4CF
:103C100046C01A3609F0E6C1D70118968D919C91DD
:103C2000199701969F938F9384EC93E0ACC015375E
:103C300009F429C1B4F4103709F4B7C034F41E36BE
:103C400009F0D0C18AE08983D0C1123709F4BBC022
:103C5000143709F0C7C16AED73E0C6010E94762AE5
:103C6000C4C1183709F438C15CF4173709F0BAC178
:103C7000F7018481282F082E000C330B3F9361C17C
:103C8000193709F44BC11A3709F46BC1ABC10FEFF7
:103C90009601F701448165E874E080E00DC003E01F
:103CA0009601D70115964C9104C00FEF9601F701CC
:103CB00045816EE274E080E098DE90E098C1B60144
:103CC000C701F8D1F601CF018C199D09219121116D
:103CD000FACF8DC1D70116968D919C911797845973
:103CE000984FB1010E94B82D7F936F9334C0D701D4
:103CF00013968C9154C0F7018381282F082E000C55
:103D0000330B3F938F938581082E000C990B0196FE
:103D10009F938F93868197818459984F9F938F9318
:103D200082EB93E0F4C0D70118966D917C911997BE
:103D300016968D919C911797AE01455E5F4F845901
:103D4000984F15D3173651F48B8D9C8DB1010E947D
:103D5000B82D9F938F93AAEBB3E0F6C08C8D8F9311
:103D60008B8D8F93AFEBB3E0EFC0F70182816CE0F6
:103D70000E94972D992321F0892F990F990BD6C076
:103D80008CE090E0D3C09F938F93E0C0F7018581D2
:103D9000082E000C990B0196C9C0D7018C91282FD1
:103DA000082E000C330B3F93C2C081E48983F701D6
:103DB00082818C3014F080E589838DE48A831B82B4
:103DC00082E090E014C1D70112968C916CE00E94C1
:103DD000972D992321F0892F990F990B02C08CE020
:103DE00090E0F7012081422F022E000C550B5F93CB
:103DF0002F932181422F022E000C550B5F932F939E
:103E00009F938F9389EC93E09F938F93DF92CF9250
:103E10000E947D2A0FB6F894DEBF0FBECDBFD7013A
:103E200012962C912C300CF4E2C020E52B87DFC0D9
:103E3000F7018181282F082E000C330B3F938F93BD
:103E40008281282F082E000C330B3F938F9381EE35
:103E500093E0BCC0F7018081282F082E000C330BA3
:103E60003F938F938181282F082E000C330B3F93B3
:103E70008F938281282F082E000C330B3F938F9352
:103E80008CED93E044C0D70114968C91082E000C61
:103E9000990B009711F487E090E09F938F93ABE02C
:103EA000B3E052C060E014C0D70118966D917C91C8
:103EB000199716968D919C911797AE01455E5F4FAD
:103EC0008459984F54D28E8D8F938D8D30C061E080
:103ED000C701D1D01F922BC0D70116968D919C910E
:103EE0001797B1010E94B82D9F938F93F70183819B
:103EF000282F082E000C330B3F938F938581082EBB
:103F0000000C990B01969F938F938FE993E09F93F9
:103F10008F93DF92CF920E947D2A5EC0D7011696C2
:103F20008D919C911797B1010E94B82D9F938F930B
:103F3000BF92AF920BC0F701868197818459984F49
:103F40009F938F93ABEEB3E0BF93AF93DF92CF928B
:103F50000E947D2A0F900F900F900F900F900F905E
:103F600046C06091800A7091810A8091820A909186
:103F7000830A2CE330E040E050E00E94ED2D8901FF
:103F80009A01F801D7011A968D919C911B976CE3C9
:103F900070E00E94B82D161617061CF4FB01E00F06
:103FA000F11FCF016CE370E00E94B82D97FF03C0B2
:103FB0009195819591099F938F93CF016CE370E068
:103FC0000E94B82D7F936F938DEF93E09F938F9313
:103FD000DF92CF920E947D2A0FB6F894DEBF0FBE0B
:103FE000CDBF05C08FE389831A8281E090E09C01F8
:103FF000260D371D49A15AA1D20124173507F8F41F
:10400000F601AF014C195D09481759077CF441913D
:104010004D93F7CFF20181932F0193012F5F3F4F13
:10402000882379F0FFEF8F1A9F0A06C097FF02C01E
:1040300080E090E0480E591E39013CCDD2011C921F
:104040009301C901A2960FB6F894DEBF0FBECDBF93
:10405000DF91CF911F910F91FF90EF90DF90CF9064
:10406000BF90AF909F908F907F906F905F904F9098
:104070003F902F900895FC0120853185C901079656
:104080004481841B910947FD9395860F911DE7E0BC
:10409000F0E0BF010E94B82DA901481B590BCA01CD
:1040A00057FD06C0BF010E94B82D81E0860F08951C
:1040B00080E00895CF92DF92EF92FF920F931F93CB
:1040C000CF93DF938C01EB01FC018481B82FBB0FF0
:1040D000B80F8581782F770F780F7E019E012C5FB6
:1040E0003F4F40E0842F8B0F90E0A0E081549B4F26
:1040F000AF4FFC015A2F0E94132EF70161937F01ED
:10410000842F870F90E0A0E08B529B4FAF4FFC01B4
:104110005A2F0E94132EF90161939F014F5F433084
:1041200009F780E28F838B83BE01685F7F4FF801C0
:10413000838140E2082E000C990B91D1BE01655F8E
:104140007F4FF80182814AE3082E000C990B87D13A
:10415000BE01625F7F4FF80181814AE3082E000CA7
:10416000990B7DD1BE016F5E7F4FF801808140E2E7
:10417000082E000C990B73D1F8018681978164E6B3
:1041800070E08459984F0E94B82D6B017C01BE01EC
:104190006C5E7F4F40E2C60162D1BE016A5E7F4F16
:1041A00040E0C701DF91CF911F910F91FF90EF90F9
:1041B000DF90CF9054C1CF92DF92EF92FF920F9396
:1041C0001F93CF93DF93CDB7DEB728970FB6F89440
:1041D000DEBF0FBECDBF8B01FC016081718182818A
:1041E000938120E831E541E050E00E94CB2D690148
:1041F0007A012CE330E040E050E00E94ED2D29836D
:104200003A834B835C8389819A81AB81BC81F801BD
:1042100060836CE370E00E94B82DDC01CB01F801F3
:10422000A1838283C601069667E070E00E94A42DF8
:1042300084832DEA3EE840E050E0C701B6010E94C9
:10424000ED2D29833A836D837E838F8398878981BF
:104250009A8124E6289F6001299FD00C11246D814A
:104260007E818F81988525EB35E040E050E00E940B
:10427000ED2D29833A836D837E83E980FA80EE0CED
:10428000FF1CEE0CFF1CEC0CFD1C8D819E81F5E6E5
:10429000EF16F10410F0019604C024E6E216F104D2
:1042A00019F021E030E002C020E030E0A9014459DB
:1042B0005E4F4817590768F46DE671E0821B930B57
:1042C0000E94B82DDC01CB01E80EF91ECD0120E0E3
:1042D00030E044E6E40EF11CF801F782E6829187B3
:1042E0008087255C3F4F8217930748F46FE170E0A9
:1042F0000E94B82DDC01CB01F801858322C069E959
:1043000070E0821B930B0E94B82DDC01CB01F82ECC
:10431000FF0CFF0CF80E6DE370E0CD010E94B82D8C
:10432000DC01CB01E82EEE0C6FE170E0CD010E94C4
:10433000B82DDC01CB0122E0280FF20EFE0CF801B3
:10434000F582A383F8011386128683818F5F8383AE
:1043500028960FB6F894DEBF0FBECDBFDF91CF9188
:104360001F910F91FF90EF90DF90CF900895CF9223
:10437000DF92EF92FF920F931F93CF93DF938C0105
:104380007B01EA019983888384D0482FB801605D5E
:1043900077408DE691E0689F9001699F300D789F8E
:1043A000300D11242E0D3F1D6115710579F0CB01E3
:1043B00096958795969587950196280F391F241B0A
:1043C00031096536710510F021503109C901069691
:1043D00067E070E00E94A42D6C01892B19F487E03E
:1043E000C82ED12CDD82CC82C7010B968C199D0979
:1043F00067E070E00E94B82D65337105B1F481E08B
:10440000C81AD108EC18FD0883E0E80EF11C842FCF
:1044100090E084599E4F8E159F053CF488819981C8
:1044200001969983888361E070E07B836A83672BC0
:1044300069F401501109C8012CD0682F70E064594B
:104440007E4FAE01C80193DFDD82CC82DF91CF9138
:104450001F910F91FF90EF90DF90CF9008950F93F1
:104460001F93CF93DF931F92CDB7DEB78B016AE026
:1044700070E049830E94B82D605DF8016083805D23
:104480008183498142830F90DF91CF911F910F91DA
:1044900008959C0123703327232B59F464E670E0C0
:1044A0000E94B82D892B39F46370772781E0672B40
:1044B00019F080E0089581E00895CF93DF93CDB7A0
:1044C000DEB7C75ED1090FB6F894DEBF0FBECDBF11
:1044D000789484B5826084BD84B5816084BD85B5DF
:1044E000826085BD85B5816085BD80916E008160EB
:1044F00080936E0010928100809181008260809391
:104500008100809181008160809381008091800092
:104510008160809380008091B10084608093B100BD
:104520008091B00081608093B000809191008260A2
:10453000809391008091910081608093910080919F
:1045400090008160809390008091A10082608093B0
:10455000A1008091A10081608093A1008091A000C2
:1045600081608093A000809121018260809321016D
:1045700080912101816080932101809120018160DF
:104580008093200180917A00846080937A008091EA
:104590007A00826080937A0080917A0081608093B3
:1045A0007A0080917A00806880937A001092C1002E
:1045B0004E018BEC880E911CDE0111967D015E018F
:1045C000B9EDAB0EB11C3E018DEB680E711C66E0BF
:1045D000C4010E94D91581E592E1C554DF4F99834A
:1045E0008883CB5BD040C155DF4F99828882CF5AF8
:1045F000D040C255DF4F1882CE5AD040C655DF4F4B
:104600001882CA5AD04089E0C555DF4F8883CB5AFB
:10461000D04081E0C455DF4F8883CC5AD040C35589
:10462000DF4F8883CD5AD04082ED92E00E94E308AC
:10463000CE0186559F4F0E944F15C255DF4F4880CF
:10464000CE5AD040242C312C1F924F9285EF92E00D
:104650009F938F93FF92EF9250D7C7010E94E30878
:104660000F900F900F900F900F900F90C12CD12CA6
:10467000C41408F054C04C2DBE016D517F4FCE01C3
:1046800086559F4F0E9480126C2DCE0186559F4FFC
:104690000E94BF146C2DCE0186559F4F0E940F14AF
:1046A000CC51DF4F688379838A839B83C45ED0407B
:1046B000BE016D517F4FCE0186559F4F0E948614DB
:1046C000582E850122E049EFCC51DF4F6881798176
:1046D0008A819B81C45ED040B8D2BF92AF921F92B4
:1046E0005F92CD51DF4F8881C35ED0401F928F9380
:1046F000DF92CF923F922F92AEE0B3E0BF93AF93A1
:10470000FF92EF92FAD6C7010E94E3089FEFC91A01
:10471000D90A0FB6F894DEBF0FBECDBFA9CF67E0B0
:10472000C3010E94D91581E592E1C855DF4F9983F5
:104730008883C85AD040C456DF4F79826882CC59EA
:10474000D040C556DF4F1882CB59D040C956DF4FF5
:104750001882C759D04089E0C856DF4F8883C859AE
:10476000D04081E0C756DF4F8883C959D040C65634
:10477000DF4F8883CA59D040CE0189569F4F0E948F
:104780004F15C556DF4F4880CB59D040242C312CD3
:104790001F924F928AE493E09F938F93FF92EF9240
:1047A000ACD6C7010E94E3080F900F900F900F90B6
:1047B0000F900F90C12CD12CC41408F054C04C2D74
:1047C000BE016D517F4FCE0189569F4F0E948012CE
:1047D0006C2DCE0189569F4F0E94BF146C2DCE01C7
:1047E00089569F4F0E940F14CC51DF4F6883798305
:1047F0008A839B83C45ED040BE016D517F4FCE0142
:1048000089569F4F0E948614582E850122E049EF59
:10481000CC51DF4F688179818A819B81C45ED04011
:1048200014D2BF92AF921F925F92CD51DF4F888119
:10483000C35ED0401F928F93DF92CF923F922F9210
:10484000A3E6B3E0BF93AF93FF92EF9256D6C701B2
:104850000E94E3089FEFC91AD90A0FB6F894DEBF89
:104860000FBECDBFA9CF0E942312B1CE0F931F93CD
:104870008DE792E09093F2088093F1081092F3088C
:104880001092F4081092F5081092F6081092110791
:104890001092100748EE53E060E070E0409312077A
:1048A0005093130760931407709315072DE432E0BB
:1048B00030930F0720930E07E5EDF0E0F0931B0710
:1048C000E0931A07E4EDF0E0F0931D07E0931C0776
:1048D000E0EDF0E0F0931F07E0931E07E1EDF0E05C
:1048E000F0932107E0932007E2EDF0E0F093230737
:1048F000E0932207E6EDF0E0F0932507E09324072C
:1049000010922707109228071092290710922A0761
:104910001092AE071092AD074093AF075093B007C7
:104920006093B1077093B2073093AC072093AB0745
:10493000EDECF0E0F093B807E093B707ECECF0E0B3
:10494000F093BA07E093B907E8ECF0E0F093BC0706
:10495000E093BB07E9ECF0E0F093BE07E093BD07FE
:10496000EAECF0E0F093C007E093BF07EEECF0E074
:10497000F093C207E093C1071092C4071092C507D5
:104980001092C6071092C70710924B0810924A085F
:1049900040934C0850934D0860934E0870934F0815
:1049A000309349082093480825EC30E030935508AF
:1049B0002093540824EC30E0309357082093560895
:1049C00020EC30E0309359082093580821EC30E077
:1049D00030935B0820935A0822EC30E030935D0856
:1049E00020935C0826EC30E030935F0820935E084B
:1049F0001092610810926208109263081092640885
:104A00009093F8088093F7081092F9081092FA082A
:104A10001092FB081092FC089093FE088093FD080A
:104A20001092FF08109200091092010910920209D9
:104A300090930409809303091092050910920609C6
:104A40001092070910920809909312098093110996
:104A50001092130910921409109215091092160958
:104A600090930A098093090910920B0910920C097E
:104A700010920D0910920E0990931809809317094E
:104A80001092190910921A0910921B0910921C0910
:104A900090931E0980931D0910921F0910922009FE
:104AA00010922109109222091092280910922909C6
:104AB00010922C0910922E0902E010E020E030E064
:104AC0000093300910933109209332093093330950
:104AD0001092470910925109109250092FE532E0C7
:104AE00030934F0920934E09109253091092E80811
:104AF0001092E7084093E9085093EA086093EB08A6
:104B00007093EC082BE632E03093E6082093E5083A
:104B100090936E0980936D0910926F09109270093D
:104B2000109271091092720990937409809373091D
:104B300010927509109276091092770910927809EF
:104B40001092FC091092FB0980EB92E09093710A9D
:104B50008093700A1092720A1092730A1092120ACD
:104B600083E892E09093FA098093F9091092FE0984
:104B70001092FD0910920E0A1092110A8FEF809385
:104B80000F0A8093140AE8E1FAE09FEF86E18E0FA6
:104B900091938E13FDCF89ED90E19093020A80935B
:104BA000010A8FE691E19093040A8093030A8BEF48
:104BB0009FE09093060A8093050A82E59CE090931B
:104BC000080A8093070A20E030E040E069E08DEFBA
:104BD00099E00E94D9101092420A1092410A84E68C
:104BE00093E090932F0A80932E0A89E799E090939F
:104BF000330A8093320A81E08093340A1092350A96
:104C000080936E0A80936F0A8BE892E09093310A4A
:104C10008093300A8DEF99E00E94180382EB93E0B5
:104C20009093440A8093430A1092510A88E2809339
:104C3000180A8AE28093190A8CE28093210A8FEF86
:104C40008093230A1F910F910895EF920F931F9362
:104C5000CF93DF93E80147FD02C034E001C034E1A7
:104C6000E42F440FFF0BF7FF03C0F195E195F10925
:104C7000E32E022F2E2FAE01A7D0CE01DF91CF91D0
:104C80001F910F91EF900895E89409C097FB3EF4AF
:104C900090958095709561957F4F8F4F9F4F992389
:104CA000A9F0F92F96E9BB279395F6958795779507
:104CB0006795B795F111F8CFFAF4BB0F11F460FFC7
:104CC0001BC06F5F7F4F8F4F9F4F16C0882311F01F
:104CD00096E911C0772321F09EE8872F762F05C033
:104CE000662371F096E8862F70E060E02AF09A95CE
:104CF000660F771F881FDAF7880F9695879597F9C3
:104D000008950BD040C431D428F036D418F0952340
:104D100009F022C427C411246AC446D4A0F3959F85
:104D2000D1F3950F50E0551F629FF001729FBB2792
:104D3000F00DB11D639FAA27F00DB11DAA1F649F3E
:104D40006627B00DA11D661F829F2227B00DA11DF1
:104D5000621F739FB00DA11D621F839FA00D611D77
:104D6000221F749F3327A00D611D231F849F600D98
:104D7000211D822F762F6A2F11249F5750408AF0D1
:104D8000E1F088234AF0EE0FFF1FBB1F661F771F5D
:104D9000881F91505040A9F79E3F510570F0DCC329
:104DA00026C45F3FECF3983EDCF3869577956795D4
:104DB000B795F795E7959F5FC1F7FE2B880F911D7B
:104DC0009695879597F908954F925F926F927F928B
:104DD0009F92AF92BF92CF92DF92EF92FF920F938A
:104DE0001F93CF93DF93CDB7DEB729970FB6F89413
:104DF000DEBF0FBECDBF6A01122FB02E2BE32017EE
:104E000020F0FF24F394F00E02C0BCE3FB2E0F2D24
:104E100027E0AE014F5F5F4F91D2AC018981982F9F
:104E20009970913031F0E1FC06C0E0FE06C090E2DE
:104E300005C09DE203C09BE201C090E0EE2DE07151
:104E400083FF3CC0911102C083E001C084E0811760
:104E500018F4212F281B01C020E0E1110BC0F6013E
:104E6000822F30E2882319F031938150FBCFC20E9C
:104E7000D11C20E0992329F0D6019C93F6013196AC
:104E80006F01C6010396E2FE0AC03EE4D6013C93E0
:104E900041E411964C93119712963C9306C03EE65E
:104EA000F601308341E641833283FC01322F40E238
:104EB000332309F442C041933150FACF82FF44C0FA
:104EC000911102C083E001C084E0811718F4212F02
:104ED000281B01C020E0E1110BC0F601822F30E257
:104EE000882319F031938150FBCFC20ED11C20E0F2
:104EF000992329F0D6019C93F60131966F01C601E2
:104F00000396E2FE0BC039E4D6013C933EE41196D1
:104F10003C93119736E412963C9307C039E6F601AC
:104F200030833EE6318336E63283FC01322F40E2A5
:104F3000332319F041933150FBCFFC01E20FF11DF7
:104F400010828EEF9FEFB7C0F1E0911101C0F0E049
:104F50006F2F70E01416150624F49A012F5F3F4F4F
:104F600002C021E030E0260F371FBB2029F06B2D57
:104F700070E06F5F7F4F02C060E070E0260F371F68
:104F8000612F70E0261737071CF4121B212F01C078
:104F900020E03E2D387159F4D601322F60E23323E0
:104FA00019F06D933150FBCFC20ED11C20E0FF23CE
:104FB00031F0D6019C93B6016F5F7F4F6B01E11119
:104FC0000BC0F601922F30E3992319F031939150E1
:104FD000FBCFC20ED11C20E09F2D940F3A81782F79
:104FE0007071A72E84FF03C0313309F49150191654
:104FF00024F4993018F098E001C091E0E42F852F57
:1050000057FF02C0E0E080E06E2F782FE0E0F0E094
:10501000AEE29A2E3A01691A71082A01461A570A15
:105020000B2D10E01195019511096F3F8FEF780757
:1050300029F4D6019C92C60101966C0146175707C8
:1050400084F0661677066CF47F01E40CF51CA1E091
:10505000B0E0AC0FBD1FEA0EFB1ED7011196BC904D
:1050600002C090E3B92E615071093196C6010196D4
:105070007C016017710724F0D601BC926C01D5CF7A
:105080006417750741F4363320F4353321F4A11049
:1050900002C081E3B82EF601B082F701822F90E2C0
:1050A000882319F091938150FBCFF701E20FF11D96
:1050B000108280E090E029960FB6F894DEBF0FBE14
:1050C000CDBFDF91CF911F910F91FF90EF90DF90B7
:1050D000CF90BF90AF909F907F906F905F904F90D8
:1050E0000895CF93DF938230910510F482E090E031
:1050F000E091860AF091870A20E030E0C0E0D0E03D
:10510000309711F14081518148175907C0F0481775
:10511000590761F482819381209719F09B838A83D8
:105120002BC09093870A8093860A26C021153105EB
:1051300019F04217530718F49A01BE01DF01EF017D
:105140000280F381E02DDCCF2115310509F1281B08
:10515000390B2430310590F412968D919C91139760
:105160006115710521F0FB019383828304C0909344
:10517000870A8093860AFD01329644C0FD01E20F42
:10518000F31F81939193225031092D933C933AC0A0
:105190002091840A3091850A232B41F42091060244
:1051A000309107023093850A2093840A20910402EB
:1051B000309105022115310541F42DB73EB74091DC
:1051C000080250910902241B350BE091840AF091EA
:1051D000850AE217F307A0F42E1B3F0B28173907A7
:1051E00078F0AC014E5F5F4F2417350748F04E0F43
:1051F0005F1F5093850A4093840A8193919302C064
:10520000E0E0F0E0CF01DF91CF9108950F931F937D
:10521000CF93DF93009709F48CC0FC01329713827F
:1052200012820091860A1091870A0115110581F4F6
:1052300020813181820F931F2091840A3091850A49
:105240002817390779F5F093850AE093840A71C02D
:10525000D80140E050E0AE17BF0750F412962D91F0
:105260003C911397AD012115310509F1D901F3CF17
:105270009D01DA013383228360817181860F971F3C
:105280008217930769F4EC0128813981260F371FB3
:105290002E5F3F4F318320838A819B81938382835A
:1052A000452B29F4F093870AE093860A42C01396AF
:1052B000FC93EE931297ED01499159919E01240FB1
:1052C000351FE217F30771F480819181840F951FD8
:1052D000029611969C938E938281938113969C9350
:1052E0008E931297E0E0F0E0D80112968D919C9198
:1052F0001397009719F0F8018C01F6CF8D919C91CE
:1053000098012E5F3F4F820F931F2091840A3091A6
:10531000850A2817390769F4309729F41092870A0B
:105320001092860A02C0138212821093850A00939B
:10533000840ADF91CF911F910F910895283008F0D2
:1053400027E03327DA01990F311D87FD9160009620
:105350006105710539F432602E5F3D9330E32A9583
:10536000E1F708959F3F30F080387105610509F03D
:105370003C5F3C5F3D93913008F08068911DDF9366
:10538000CF931F930F93FF92EF92192F987F9695CB
:10539000E92F96959695E90FFF27EE59FE4F99272D
:1053A0003327EE24FF24A701E70105900894079412
:1053B00028F4360FE71EF81E491F511D660F771F90
:1053C000881F991F0694A1F70590079428F4E70E0B
:1053D000F81E491F561FC11D770F881F991F661F92
:1053E0000694A1F70590079428F4F80E491F561F5C
:1053F000C71FD11D880F991F661F771F0694A1F73D
:105400000590079420F4490F561FC71FD81F990F06
:10541000661F771F881F0694A9F78491109517704F
:1054200041F0D695C79557954795F794E7941A9507
:10543000C1F7E8E0F1E06894159015913591659118
:10544000959105907FE27395E118F10A430B560B95
:10545000C90BD009C0F7E10CF11E431F561FC91F2D
:10546000D01D7EF4703311F48A95E6CFE894015094
:1054700030F0080F0AF40027021708F4202F2395B4
:10548000022F7A3328F079E37D932A95E9F710C04B
:105490007D932A9589F60694979567953795179584
:1054A0001794E118F10A430B560BC90BD00998F079
:1054B00023957E9173957A3308F070E37C932013E3
:1054C000B8F77E9170617D9330F0839571E37D93A1
:1054D00070E32A95E1F71124EF90FF900F911F914F
:1054E000CF91DF91992787FD90950895FB01DC010D
:1054F00001900D920020E1F708950F931F93CF9331
:10550000DF93CDB7DEB72E970FB6F894DEBF0FBE90
:10551000CDBF0E891F8986E08C831A8309838FEFA4
:105520009FE79E838D83AE01465E5F4F688D798DC8
:10553000CE01019662D02F813885F801E20FF31F6A
:1055400010822E960FB6F894DEBF0FBECDBFDF914E
:10555000CF911F910F91089597F99F6780E870E0B0
:1055600060E008959FEF80EC089500240A941616D9
:10557000170618060906089500240A941216130641
:10558000140605060895092E0394000C11F48823CF
:1055900052F0BB0F40F4BF2B11F460FF04C06F5FEB
:1055A0007F4F8F4F9F4F089557FD9058440F551FC1
:1055B00059F05F3F71F04795880F97FB991F61F095
:1055C0009F3F79F087950895121613061406551F0C
:1055D000F2CF4695F1DF08C0161617061806991F78
:1055E000F1CF86957105610508940895E894BB276D
:1055F00066277727CB0197F908952F923F924F9214
:105600005F926F927F928F929F92AF92BF92CF9252
:10561000DF92EF92FF920F931F93CF93DF93CDB75B
:10562000DEB72C970FB6F894DEBF0FBECDBF7C015E
:105630006B018A01FC0117821682838181FFB0C150
:10564000CE0101964C01F7019381F60193FD8591FE
:1056500093FF81916F01882309F49EC1853239F44B
:1056600093FD859193FF81916F01853221F4B701FC
:1056700090E0C7D1E8CF512C312C20E02032A0F4AB
:105680008B3269F030F4803259F0833269F4206152
:105690002CC08D3239F0803339F4216026C022606D
:1056A000246023C0286021C027FD27C030ED380FBB
:1056B0003A3078F426FF06C0FAE05F9E300D1124E0
:1056C000532E13C08AE0389E300D1124332E2062F1
:1056D0000CC08E3221F426FD5FC1206406C08C36DA
:1056E00011F4206802C0883641F4F60193FD8591DB
:1056F00093FF81916F018111C1CF982F9F7D9554A8
:10570000933028F40C5F1F4FFFE3F9830DC08336FD
:1057100031F0833771F0833509F057C021C0F801AB
:10572000808189830E5F1F4F44244394512C540180
:1057300014C03801F2E06F0E711CF801A080B18036
:1057400026FF03C0652D70E002C06FEF7FEFC5013B
:105750002C874CD12C0183012C852F77222E16C04B
:105760003801F2E06F0E711CF801A080B18026FFB5
:1057700003C0652D70E002C06FEF7FEFC5012C877D
:105780002AD12C012C852068222E830123FC19C0EC
:10579000832D90E048165906A0F4B70180E290E00E
:1057A00030D13A94F5CFF50127FC859127FE819100
:1057B0005F01B70190E025D131103A94F1E04F1A22
:1057C00051084114510479F7DEC0843611F089364E
:1057D00031F5F80127FF07C06081718182819381D3
:1057E0000C5F1F4F08C060817181072E000C880B71
:1057F000990B0E5F1F4F2F76722E97FF09C0909561
:105800008095709561957F4F8F4F9F4F2068722EC6
:105810002AE030E0A4012DD1A82EA81843C0853776
:1058200029F42F7EB22E2AE030E025C0F22FF97F36
:10583000BF2E8F36C1F018F4883579F0ADC08037AF
:1058400019F0883721F0A8C02F2F2061B22EB4FEA6
:105850000DC08B2D8460B82E09C024FF0AC09F2F75
:105860009660B92E06C028E030E005C020E130E0A7
:1058700002C020E132E0F801B7FE07C0608171810B
:10588000828193810C5F1F4F06C06081718180E02F
:1058900090E00E5F1F4FA401ECD0A82EA818FB2D9E
:1058A000FF777F2E76FE0BC0372D3E7FA51450F478
:1058B00074FE0AC072FC08C0372D3E7E05C0BA2CAB
:1058C000372D03C0BA2C01C0B52C34FF0DC0FE012A
:1058D000EA0DF11D8081803311F4397E09C032FF59
:1058E00006C0B394B39404C0832F867809F0B394B0
:1058F00033FD12C030FF06C05A2CB31418F4530CF9
:105900005B18B32CB31460F4B70180E290E03C87DD
:1059100078D0B3943C85F6CFB31410F43B1801C093
:10592000312C34FF11C0B70180E390E03C8769D08F
:105930003C8532FF16C031FD03C088E790E002C00D
:1059400088E590E0B7010CC0832F867851F031FFD5
:1059500002C08BE201C080E237FD8DE2B70190E02A
:1059600050D0A51430F4B70180E390E04AD05A94A7
:10597000F8CFAA94F401EA0DF11D8081B70190E0FF
:1059800040D0A110F6CF332009F45DCEB70180E2FC
:1059900090E037D03A94F7CFF7018681978102C023
:1059A0008FEF9FEF2C960FB6F894DEBF0FBECDBFE2
:1059B000DF91CF911F910F91FF90EF90DF90CF90EB
:1059C000BF90AF909F908F907F906F905F904F901F
:1059D0003F902F900895FC01059061507040011098
:1059E000D8F7809590958E0F9F1F0895FC01615008
:1059F000704001900110D8F7809590958E0F9F1FF1
:105A000008950F931F93CF93DF93FB01238121FD13
:105A100003C08FEF9FEF28C022FF16C04681578139
:105A2000248135814217530744F4A081B1819D013F
:105A30002F5F3F4F318320838C93268137812F5FE7
:105A40003F4F3783268310C0EB01092F182F0084A6
:105A5000F185E02D1995892BE1F68E819F810196C4
:105A60009F838E83812F902FDF91CF911F910F9174
:105A70000895FA01AA27283051F1203181F1E894E4
:105A80006F936E7F6E5F7F4F8F4F9F4FAF4FB1E031
:105A90003ED0B4E03CD0670F781F891F9A1FA11D2C
:105AA000680F791F8A1F911DA11D6A0F711D811D2D
:105AB000911DA11D20D009F468943F912AE0269FF2
:105AC00011243019305D3193DEF6CF010895462F51
:105AD0004770405D4193B3E00FD0C9F7F6CF462F32
